{
  "_format": "hh-sol-artifact-1",
  "contractName": "AIMToken",
  "sourceName": "contracts/AIMToken.sol",
  "abi": [
    {
      "inputs": [
        {
          "internalType": "address",
          "name": "_token",
          "type": "address"
        }
      ],
      "stateMutability": "nonpayable",
      "type": "constructor"
    },
    {
      "inputs": [],
      "name": "contractDontHaveUSDT",
      "type": "error"
    },
    {
      "inputs": [],
      "name": "mintingIsNotAllowed",
      "type": "error"
    },
    {
      "inputs": [],
      "name": "pleaseSendTokenPrice",
      "type": "error"
    },
    {
      "inputs": [],
      "name": "roundSupplyLimitExceed",
      "type": "error"
    },
    {
      "inputs": [],
      "name": "transferFaild",
      "type": "error"
    },
    {
      "inputs": [],
      "name": "waitForStartingSaleRoud",
      "type": "error"
    },
    {
      "inputs": [],
      "name": "youDontHaveEnoughBalance",
      "type": "error"
    },
    {
      "inputs": [],
      "name": "youHavePurchasedToken",
      "type": "error"
    },
    {
      "anonymous": false,
      "inputs": [
        {
          "indexed": true,
          "internalType": "address",
          "name": "owner",
          "type": "address"
        },
        {
          "indexed": true,
          "internalType": "address",
          "name": "spender",
          "type": "address"
        },
        {
          "indexed": false,
          "internalType": "uint256",
          "name": "value",
          "type": "uint256"
        }
      ],
      "name": "Approval",
      "type": "event"
    },
    {
      "anonymous": false,
      "inputs": [
        {
          "indexed": true,
          "internalType": "address",
          "name": "previousOwner",
          "type": "address"
        },
        {
          "indexed": true,
          "internalType": "address",
          "name": "newOwner",
          "type": "address"
        }
      ],
      "name": "OwnershipTransferred",
      "type": "event"
    },
    {
      "anonymous": false,
      "inputs": [
        {
          "indexed": true,
          "internalType": "address",
          "name": "from",
          "type": "address"
        },
        {
          "indexed": true,
          "internalType": "address",
          "name": "to",
          "type": "address"
        },
        {
          "indexed": false,
          "internalType": "uint256",
          "name": "value",
          "type": "uint256"
        }
      ],
      "name": "Transfer",
      "type": "event"
    },
    {
      "inputs": [
        {
          "internalType": "address",
          "name": "owner",
          "type": "address"
        },
        {
          "internalType": "address",
          "name": "spender",
          "type": "address"
        }
      ],
      "name": "allowance",
      "outputs": [
        {
          "internalType": "uint256",
          "name": "",
          "type": "uint256"
        }
      ],
      "stateMutability": "view",
      "type": "function"
    },
    {
      "inputs": [
        {
          "internalType": "address",
          "name": "spender",
          "type": "address"
        },
        {
          "internalType": "uint256",
          "name": "amount",
          "type": "uint256"
        }
      ],
      "name": "approve",
      "outputs": [
        {
          "internalType": "bool",
          "name": "",
          "type": "bool"
        }
      ],
      "stateMutability": "nonpayable",
      "type": "function"
    },
    {
      "inputs": [
        {
          "internalType": "address",
          "name": "account",
          "type": "address"
        }
      ],
      "name": "balanceOf",
      "outputs": [
        {
          "internalType": "uint256",
          "name": "",
          "type": "uint256"
        }
      ],
      "stateMutability": "view",
      "type": "function"
    },
    {
      "inputs": [
        {
          "internalType": "uint256",
          "name": "",
          "type": "uint256"
        }
      ],
      "name": "buyerAddress",
      "outputs": [
        {
          "internalType": "address",
          "name": "",
          "type": "address"
        }
      ],
      "stateMutability": "view",
      "type": "function"
    },
    {
      "inputs": [],
      "name": "claimAIMToken",
      "outputs": [],
      "stateMutability": "nonpayable",
      "type": "function"
    },
    {
      "inputs": [],
      "name": "decimals",
      "outputs": [
        {
          "internalType": "uint8",
          "name": "",
          "type": "uint8"
        }
      ],
      "stateMutability": "view",
      "type": "function"
    },
    {
      "inputs": [
        {
          "internalType": "address",
          "name": "spender",
          "type": "address"
        },
        {
          "internalType": "uint256",
          "name": "subtractedValue",
          "type": "uint256"
        }
      ],
      "name": "decreaseAllowance",
      "outputs": [
        {
          "internalType": "bool",
          "name": "",
          "type": "bool"
        }
      ],
      "stateMutability": "nonpayable",
      "type": "function"
    },
    {
      "inputs": [],
      "name": "ethRaisedInCurrentRound",
      "outputs": [
        {
          "internalType": "uint256",
          "name": "",
          "type": "uint256"
        }
      ],
      "stateMutability": "view",
      "type": "function"
    },
    {
      "inputs": [],
      "name": "exchangeTokens",
      "outputs": [
        {
          "internalType": "uint256",
          "name": "",
          "type": "uint256"
        }
      ],
      "stateMutability": "view",
      "type": "function"
    },
    {
      "inputs": [],
      "name": "exchangeTokensWallet",
      "outputs": [
        {
          "internalType": "address",
          "name": "",
          "type": "address"
        }
      ],
      "stateMutability": "view",
      "type": "function"
    },
    {
      "inputs": [],
      "name": "getLatestUSDTPrice",
      "outputs": [
        {
          "internalType": "uint256",
          "name": "",
          "type": "uint256"
        }
      ],
      "stateMutability": "view",
      "type": "function"
    },
    {
      "inputs": [
        {
          "internalType": "address",
          "name": "spender",
          "type": "address"
        },
        {
          "internalType": "uint256",
          "name": "addedValue",
          "type": "uint256"
        }
      ],
      "name": "increaseAllowance",
      "outputs": [
        {
          "internalType": "bool",
          "name": "",
          "type": "bool"
        }
      ],
      "stateMutability": "nonpayable",
      "type": "function"
    },
    {
      "inputs": [
        {
          "internalType": "address",
          "name": "",
          "type": "address"
        }
      ],
      "name": "isBuyer",
      "outputs": [
        {
          "internalType": "bool",
          "name": "",
          "type": "bool"
        }
      ],
      "stateMutability": "view",
      "type": "function"
    },
    {
      "inputs": [],
      "name": "liquidityTokens",
      "outputs": [
        {
          "internalType": "uint256",
          "name": "",
          "type": "uint256"
        }
      ],
      "stateMutability": "view",
      "type": "function"
    },
    {
      "inputs": [],
      "name": "liquidityTokensWallet",
      "outputs": [
        {
          "internalType": "address",
          "name": "",
          "type": "address"
        }
      ],
      "stateMutability": "view",
      "type": "function"
    },
    {
      "inputs": [
        {
          "internalType": "uint256",
          "name": "_amount",
          "type": "uint256"
        }
      ],
      "name": "mintByEth",
      "outputs": [],
      "stateMutability": "payable",
      "type": "function"
    },
    {
      "inputs": [
        {
          "internalType": "uint256",
          "name": "_amount",
          "type": "uint256"
        }
      ],
      "name": "mintByUSDT",
      "outputs": [],
      "stateMutability": "nonpayable",
      "type": "function"
    },
    {
      "inputs": [],
      "name": "name",
      "outputs": [
        {
          "internalType": "string",
          "name": "",
          "type": "string"
        }
      ],
      "stateMutability": "view",
      "type": "function"
    },
    {
      "inputs": [],
      "name": "noOfUsersInRound",
      "outputs": [
        {
          "internalType": "uint256",
          "name": "",
          "type": "uint256"
        }
      ],
      "stateMutability": "view",
      "type": "function"
    },
    {
      "inputs": [],
      "name": "owner",
      "outputs": [
        {
          "internalType": "address",
          "name": "",
          "type": "address"
        }
      ],
      "stateMutability": "view",
      "type": "function"
    },
    {
      "inputs": [],
      "name": "remainingSupply",
      "outputs": [
        {
          "internalType": "uint256",
          "name": "",
          "type": "uint256"
        }
      ],
      "stateMutability": "view",
      "type": "function"
    },
    {
      "inputs": [],
      "name": "renounceOwnership",
      "outputs": [],
      "stateMutability": "nonpayable",
      "type": "function"
    },
    {
      "inputs": [],
      "name": "round",
      "outputs": [
        {
          "internalType": "uint256",
          "name": "",
          "type": "uint256"
        }
      ],
      "stateMutability": "view",
      "type": "function"
    },
    {
      "inputs": [],
      "name": "round1Price",
      "outputs": [
        {
          "internalType": "uint256",
          "name": "",
          "type": "uint256"
        }
      ],
      "stateMutability": "view",
      "type": "function"
    },
    {
      "inputs": [],
      "name": "round2Price",
      "outputs": [
        {
          "internalType": "uint256",
          "name": "",
          "type": "uint256"
        }
      ],
      "stateMutability": "view",
      "type": "function"
    },
    {
      "inputs": [],
      "name": "round3Price",
      "outputs": [
        {
          "internalType": "uint256",
          "name": "",
          "type": "uint256"
        }
      ],
      "stateMutability": "view",
      "type": "function"
    },
    {
      "inputs": [],
      "name": "round4Price",
      "outputs": [
        {
          "internalType": "uint256",
          "name": "",
          "type": "uint256"
        }
      ],
      "stateMutability": "view",
      "type": "function"
    },
    {
      "inputs": [],
      "name": "round5Price",
      "outputs": [
        {
          "internalType": "uint256",
          "name": "",
          "type": "uint256"
        }
      ],
      "stateMutability": "view",
      "type": "function"
    },
    {
      "inputs": [],
      "name": "roundLimit",
      "outputs": [
        {
          "internalType": "uint256",
          "name": "",
          "type": "uint256"
        }
      ],
      "stateMutability": "view",
      "type": "function"
    },
    {
      "inputs": [
        {
          "internalType": "uint256",
          "name": "",
          "type": "uint256"
        }
      ],
      "name": "roundsData",
      "outputs": [
        {
          "internalType": "uint256",
          "name": "usersInRound",
          "type": "uint256"
        },
        {
          "internalType": "uint256",
          "name": "tokensSold",
          "type": "uint256"
        },
        {
          "internalType": "uint256",
          "name": "ethRaised",
          "type": "uint256"
        },
        {
          "internalType": "uint256",
          "name": "usdtRaised",
          "type": "uint256"
        }
      ],
      "stateMutability": "view",
      "type": "function"
    },
    {
      "inputs": [
        {
          "internalType": "uint256",
          "name": "_amount",
          "type": "uint256"
        },
        {
          "internalType": "uint256",
          "name": "_roundPrice",
          "type": "uint256"
        }
      ],
      "name": "sellTokenInETHPrice",
      "outputs": [
        {
          "internalType": "uint256",
          "name": "",
          "type": "uint256"
        }
      ],
      "stateMutability": "view",
      "type": "function"
    },
    {
      "inputs": [
        {
          "internalType": "uint256",
          "name": "_amount",
          "type": "uint256"
        },
        {
          "internalType": "uint256",
          "name": "_roundPrice",
          "type": "uint256"
        }
      ],
      "name": "sellTokenInUDSTPrice",
      "outputs": [
        {
          "internalType": "uint256",
          "name": "",
          "type": "uint256"
        }
      ],
      "stateMutability": "view",
      "type": "function"
    },
    {
      "inputs": [
        {
          "internalType": "address",
          "name": "",
          "type": "address"
        }
      ],
      "name": "soldTokens",
      "outputs": [
        {
          "internalType": "uint256",
          "name": "",
          "type": "uint256"
        }
      ],
      "stateMutability": "view",
      "type": "function"
    },
    {
      "inputs": [],
      "name": "stakeholdersTokens",
      "outputs": [
        {
          "internalType": "uint256",
          "name": "",
          "type": "uint256"
        }
      ],
      "stateMutability": "view",
      "type": "function"
    },
    {
      "inputs": [],
      "name": "stakeholdersTokensWallet",
      "outputs": [
        {
          "internalType": "address",
          "name": "",
          "type": "address"
        }
      ],
      "stateMutability": "view",
      "type": "function"
    },
    {
      "inputs": [],
      "name": "startTheSale",
      "outputs": [],
      "stateMutability": "nonpayable",
      "type": "function"
    },
    {
      "inputs": [],
      "name": "symbol",
      "outputs": [
        {
          "internalType": "string",
          "name": "",
          "type": "string"
        }
      ],
      "stateMutability": "view",
      "type": "function"
    },
    {
      "inputs": [],
      "name": "tokensSoldInCurrentRound",
      "outputs": [
        {
          "internalType": "uint256",
          "name": "",
          "type": "uint256"
        }
      ],
      "stateMutability": "view",
      "type": "function"
    },
    {
      "inputs": [],
      "name": "totalSupply",
      "outputs": [
        {
          "internalType": "uint256",
          "name": "",
          "type": "uint256"
        }
      ],
      "stateMutability": "pure",
      "type": "function"
    },
    {
      "inputs": [
        {
          "internalType": "address",
          "name": "to",
          "type": "address"
        },
        {
          "internalType": "uint256",
          "name": "amount",
          "type": "uint256"
        }
      ],
      "name": "transfer",
      "outputs": [
        {
          "internalType": "bool",
          "name": "",
          "type": "bool"
        }
      ],
      "stateMutability": "nonpayable",
      "type": "function"
    },
    {
      "inputs": [
        {
          "internalType": "address",
          "name": "from",
          "type": "address"
        },
        {
          "internalType": "address",
          "name": "to",
          "type": "address"
        },
        {
          "internalType": "uint256",
          "name": "amount",
          "type": "uint256"
        }
      ],
      "name": "transferFrom",
      "outputs": [
        {
          "internalType": "bool",
          "name": "",
          "type": "bool"
        }
      ],
      "stateMutability": "nonpayable",
      "type": "function"
    },
    {
      "inputs": [
        {
          "internalType": "address",
          "name": "newOwner",
          "type": "address"
        }
      ],
      "name": "transferOwnership",
      "outputs": [],
      "stateMutability": "nonpayable",
      "type": "function"
    },
    {
      "inputs": [],
      "name": "usdtRaisedInCurrentRound",
      "outputs": [
        {
          "internalType": "uint256",
          "name": "",
          "type": "uint256"
        }
      ],
      "stateMutability": "view",
      "type": "function"
    },
    {
      "inputs": [
        {
          "internalType": "address",
          "name": "",
          "type": "address"
        }
      ],
      "name": "usersR1",
      "outputs": [
        {
          "internalType": "bool",
          "name": "",
          "type": "bool"
        }
      ],
      "stateMutability": "view",
      "type": "function"
    },
    {
      "inputs": [
        {
          "internalType": "address",
          "name": "",
          "type": "address"
        }
      ],
      "name": "usersR2",
      "outputs": [
        {
          "internalType": "bool",
          "name": "",
          "type": "bool"
        }
      ],
      "stateMutability": "view",
      "type": "function"
    },
    {
      "inputs": [
        {
          "internalType": "address",
          "name": "",
          "type": "address"
        }
      ],
      "name": "usersR3",
      "outputs": [
        {
          "internalType": "bool",
          "name": "",
          "type": "bool"
        }
      ],
      "stateMutability": "view",
      "type": "function"
    },
    {
      "inputs": [
        {
          "internalType": "address",
          "name": "",
          "type": "address"
        }
      ],
      "name": "usersR4",
      "outputs": [
        {
          "internalType": "bool",
          "name": "",
          "type": "bool"
        }
      ],
      "stateMutability": "view",
      "type": "function"
    },
    {
      "inputs": [
        {
          "internalType": "address",
          "name": "",
          "type": "address"
        }
      ],
      "name": "usersR5",
      "outputs": [
        {
          "internalType": "bool",
          "name": "",
          "type": "bool"
        }
      ],
      "stateMutability": "view",
      "type": "function"
    },
    {
      "inputs": [],
      "name": "withdraw",
      "outputs": [],
      "stateMutability": "nonpayable",
      "type": "function"
    },
    {
      "inputs": [],
      "name": "withdrawUSDT",
      "outputs": [],
      "stateMutability": "nonpayable",
      "type": "function"
    }
  ],
  "bytecode": "0x60806040526a52b7d2dcc80cd2e40000006007556aa56fa5b99019a5c80000006008556aa56fa5b99019a5c800000060095564e8d4a51000600c55611388600d55612710600e55614e20600f55619c40601055620138806011553480156200006657600080fd5b50604051620057163803806200571683398181016040528101906200008c91906200059a565b6040518060400160405280600881526020017f41494d546f6b656e0000000000000000000000000000000000000000000000008152506040518060400160405280600381526020017f41494d0000000000000000000000000000000000000000000000000000000000815250816003908162000109919062000846565b5080600490816200011b919062000846565b5050506200013e62000132620002eb60201b60201c565b620002f360201b60201c565b30601360006101000a81548173ffffffffffffffffffffffffffffffffffffffff021916908373ffffffffffffffffffffffffffffffffffffffff16021790555030601260006101000a81548173ffffffffffffffffffffffffffffffffffffffff021916908373ffffffffffffffffffffffffffffffffffffffff16021790555030601460006101000a81548173ffffffffffffffffffffffffffffffffffffffff021916908373ffffffffffffffffffffffffffffffffffffffff16021790555062000237601360009054906101000a900473ffffffffffffffffffffffffffffffffffffffff16600854620003b960201b60201c565b6200026d601260009054906101000a900473ffffffffffffffffffffffffffffffffffffffff16600754620003b960201b60201c565b620002a3601460009054906101000a900473ffffffffffffffffffffffffffffffffffffffff16600954620003b960201b60201c565b80602160006101000a81548173ffffffffffffffffffffffffffffffffffffffff021916908373ffffffffffffffffffffffffffffffffffffffff1602179055505062000a48565b600033905090565b6000600560009054906101000a900473ffffffffffffffffffffffffffffffffffffffff16905081600560006101000a81548173ffffffffffffffffffffffffffffffffffffffff021916908373ffffffffffffffffffffffffffffffffffffffff1602179055508173ffffffffffffffffffffffffffffffffffffffff168173ffffffffffffffffffffffffffffffffffffffff167f8be0079c531659141344cd1fd0a4f28419497f9722a3daafe3b4186f6b6457e060405160405180910390a35050565b600073ffffffffffffffffffffffffffffffffffffffff168273ffffffffffffffffffffffffffffffffffffffff16036200042b576040517f08c379a000000000000000000000000000000000000000000000000000000000815260040162000422906200098e565b60405180910390fd5b6200043f600083836200052660201b60201c565b8060026000828254620004539190620009df565b92505081905550806000808473ffffffffffffffffffffffffffffffffffffffff1673ffffffffffffffffffffffffffffffffffffffff168152602001908152602001600020600082825401925050819055508173ffffffffffffffffffffffffffffffffffffffff16600073ffffffffffffffffffffffffffffffffffffffff167fddf252ad1be2c89b69c2b068fc378daa952ba7f163c4a11628f55a4df523b3ef8360405162000506919062000a2b565b60405180910390a362000522600083836200052b60201b60201c565b5050565b505050565b505050565b600080fd5b600073ffffffffffffffffffffffffffffffffffffffff82169050919050565b6000620005628262000535565b9050919050565b620005748162000555565b81146200058057600080fd5b50565b600081519050620005948162000569565b92915050565b600060208284031215620005b357620005b262000530565b5b6000620005c38482850162000583565b91505092915050565b600081519050919050565b7f4e487b7100000000000000000000000000000000000000000000000000000000600052604160045260246000fd5b7f4e487b7100000000000000000000000000000000000000000000000000000000600052602260045260246000fd5b600060028204905060018216806200064e57607f821691505b60208210810362000664576200066362000606565b5b50919050565b60008190508160005260206000209050919050565b60006020601f8301049050919050565b600082821b905092915050565b600060088302620006ce7fffffffffffffffffffffffffffffffffffffffffffffffffffffffffffffffff826200068f565b620006da86836200068f565b95508019841693508086168417925050509392505050565b6000819050919050565b6000819050919050565b600062000727620007216200071b84620006f2565b620006fc565b620006f2565b9050919050565b6000819050919050565b620007438362000706565b6200075b62000752826200072e565b8484546200069c565b825550505050565b600090565b6200077262000763565b6200077f81848462000738565b505050565b5b81811015620007a7576200079b60008262000768565b60018101905062000785565b5050565b601f821115620007f657620007c0816200066a565b620007cb846200067f565b81016020851015620007db578190505b620007f3620007ea856200067f565b83018262000784565b50505b505050565b600082821c905092915050565b60006200081b60001984600802620007fb565b1980831691505092915050565b600062000836838362000808565b9150826002028217905092915050565b6200085182620005cc565b67ffffffffffffffff8111156200086d576200086c620005d7565b5b62000879825462000635565b62000886828285620007ab565b600060209050601f831160018114620008be5760008415620008a9578287015190505b620008b5858262000828565b86555062000925565b601f198416620008ce866200066a565b60005b82811015620008f857848901518255600182019150602085019450602081019050620008d1565b8683101562000918578489015162000914601f89168262000808565b8355505b6001600288020188555050505b505050505050565b600082825260208201905092915050565b7f45524332303a206d696e7420746f20746865207a65726f206164647265737300600082015250565b600062000976601f836200092d565b915062000983826200093e565b602082019050919050565b60006020820190508181036000830152620009a98162000967565b9050919050565b7f4e487b7100000000000000000000000000000000000000000000000000000000600052601160045260246000fd5b6000620009ec82620006f2565b9150620009f983620006f2565b925082820190508082111562000a145762000a13620009b0565b5b92915050565b62000a2581620006f2565b82525050565b600060208201905062000a42600083018462000a1a565b92915050565b614cbe8062000a586000396000f3fe6080604052600436106102c85760003560e01c80638182567a11610175578063ba0dc0cd116100dc578063da0239a611610095578063e167dbca1161006f578063e167dbca14610b59578063e86fa66514610b84578063f2fde38b14610baf578063f497f6ca14610bd8576102c8565b8063da0239a614610ab4578063dd62ed3e14610adf578063e092844c14610b1c576102c8565b8063ba0dc0cd14610967578063bed9b952146109a4578063bf595e6e146109e1578063c6f57c1e14610a1e578063c97d867914610a49578063d7f24c5d14610a89576102c8565b806395d89b411161012e57806395d89b4114610841578063965788791461086c57806398dd36bf14610897578063a457c2d7146108c2578063a9059cbb146108ff578063b1272af01461093c576102c8565b80638182567a1461074157806389d454af1461076c5780638da5cb5b146107975780638de2637b146107c2578063931da286146107d9578063949f264214610816576102c8565b8063313ce567116102345780634f6abf1b116101ed57806370a08231116101c757806370a08231146106a6578063715018a6146106e357806377186fba146106fa5780637a8c2ffe14610716576102c8565b80634f6abf1b146106275780636a43bcad146106645780636aab41df1461068f576102c8565b8063313ce56714610529578063362e496b14610554578063395093511461056b5780633ccfd60b146105a85780634184bcce146105bf5780634b8ce602146105fc576102c8565b806318160ddd1161028657806318160ddd146103e157806319617e341461040c5780631a4655a5146104495780632342583b1461048657806323b872dd146104af5780632a55feec146104ec576102c8565b8062b39c6a146102cd57806301730943146102f857806306fdde0314610323578063095ea7b31461034e57806314032c2b1461038b578063146ca531146103b6575b600080fd5b3480156102d957600080fd5b506102e2610c03565b6040516102ef9190613e48565b60405180910390f35b34801561030457600080fd5b5061030d610c09565b60405161031a9190613e48565b60405180910390f35b34801561032f57600080fd5b50610338610c0f565b6040516103459190613ef3565b60405180910390f35b34801561035a57600080fd5b5061037560048036038101906103709190613fa4565b610ca1565b6040516103829190613fff565b60405180910390f35b34801561039757600080fd5b506103a0610cc4565b6040516103ad9190614029565b60405180910390f35b3480156103c257600080fd5b506103cb610cea565b6040516103d89190613e48565b60405180910390f35b3480156103ed57600080fd5b506103f6610cf0565b6040516104039190613e48565b60405180910390f35b34801561041857600080fd5b50610433600480360381019061042e9190614044565b610d04565b6040516104409190613e48565b60405180910390f35b34801561045557600080fd5b50610470600480360381019061046b9190614044565b610d1c565b60405161047d9190613fff565b60405180910390f35b34801561049257600080fd5b506104ad60048036038101906104a89190614071565b610d3c565b005b3480156104bb57600080fd5b506104d660048036038101906104d1919061409e565b61202c565b6040516104e39190613fff565b60405180910390f35b3480156104f857600080fd5b50610513600480360381019061050e9190614044565b61205b565b6040516105209190613fff565b60405180910390f35b34801561053557600080fd5b5061053e61207b565b60405161054b919061410d565b60405180910390f35b34801561056057600080fd5b50610569612084565b005b34801561057757600080fd5b50610592600480360381019061058d9190613fa4565b6122a7565b60405161059f9190613fff565b60405180910390f35b3480156105b457600080fd5b506105bd6122de565b005b3480156105cb57600080fd5b506105e660048036038101906105e19190614128565b61238c565b6040516105f39190613e48565b60405180910390f35b34801561060857600080fd5b506106116123dd565b60405161061e9190613e48565b60405180910390f35b34801561063357600080fd5b5061064e60048036038101906106499190614044565b6123e3565b60405161065b9190613fff565b60405180910390f35b34801561067057600080fd5b50610679612403565b6040516106869190613e48565b60405180910390f35b34801561069b57600080fd5b506106a4612409565b005b3480156106b257600080fd5b506106cd60048036038101906106c89190614044565b6125b2565b6040516106da9190613e48565b60405180910390f35b3480156106ef57600080fd5b506106f86125fa565b005b610714600480360381019061070f9190614071565b61260e565b005b34801561072257600080fd5b5061072b613054565b6040516107389190614029565b60405180910390f35b34801561074d57600080fd5b5061075661307a565b6040516107639190614029565b60405180910390f35b34801561077857600080fd5b506107816130a0565b60405161078e9190613e48565b60405180910390f35b3480156107a357600080fd5b506107ac6130a6565b6040516107b99190614029565b60405180910390f35b3480156107ce57600080fd5b506107d76130d0565b005b3480156107e557600080fd5b5061080060048036038101906107fb9190614044565b6131fa565b60405161080d9190613fff565b60405180910390f35b34801561082257600080fd5b5061082b61321a565b6040516108389190613e48565b60405180910390f35b34801561084d57600080fd5b50610856613229565b6040516108639190613ef3565b60405180910390f35b34801561087857600080fd5b506108816132bb565b60405161088e9190613e48565b60405180910390f35b3480156108a357600080fd5b506108ac6132c1565b6040516108b99190613e48565b60405180910390f35b3480156108ce57600080fd5b506108e960048036038101906108e49190613fa4565b61339d565b6040516108f69190613fff565b60405180910390f35b34801561090b57600080fd5b5061092660048036038101906109219190613fa4565b613414565b6040516109339190613fff565b60405180910390f35b34801561094857600080fd5b50610951613437565b60405161095e9190613e48565b60405180910390f35b34801561097357600080fd5b5061098e60048036038101906109899190614128565b61343d565b60405161099b9190613e48565b60405180910390f35b3480156109b057600080fd5b506109cb60048036038101906109c69190614071565b6134cc565b6040516109d89190614029565b60405180910390f35b3480156109ed57600080fd5b50610a086004803603810190610a039190614044565b61350b565b604051610a159190613fff565b60405180910390f35b348015610a2a57600080fd5b50610a3361352b565b604051610a409190613e48565b60405180910390f35b348015610a5557600080fd5b50610a706004803603810190610a6b9190614071565b613531565b604051610a809493929190614168565b60405180910390f35b348015610a9557600080fd5b50610a9e613571565b604051610aab9190613e48565b60405180910390f35b348015610ac057600080fd5b50610ac9613577565b604051610ad69190613e48565b60405180910390f35b348015610aeb57600080fd5b50610b066004803603810190610b0191906141ad565b61357d565b604051610b139190613e48565b60405180910390f35b348015610b2857600080fd5b50610b436004803603810190610b3e9190614044565b613604565b604051610b509190613fff565b60405180910390f35b348015610b6557600080fd5b50610b6e613623565b604051610b7b9190613e48565b60405180910390f35b348015610b9057600080fd5b50610b99613629565b604051610ba69190613e48565b60405180910390f35b348015610bbb57600080fd5b50610bd66004803603810190610bd19190614044565b61362f565b005b348015610be457600080fd5b50610bed6136b2565b604051610bfa9190613e48565b60405180910390f35b600f5481565b60085481565b606060038054610c1e9061421c565b80601f0160208091040260200160405190810160405280929190818152602001828054610c4a9061421c565b8015610c975780601f10610c6c57610100808354040283529160200191610c97565b820191906000526020600020905b815481529060010190602001808311610c7a57829003601f168201915b5050505050905090565b600080610cac6136b8565b9050610cb98185856136c0565b600191505092915050565b601460009054906101000a900473ffffffffffffffffffffffffffffffffffffffff1681565b60065481565b60006b033b2e3c9fd0803ce8000000905090565b60156020528060005260406000206000915090505481565b601c6020528060005260406000206000915054906101000a900460ff1681565b600060065403610d78576040517f3f1b3b5300000000000000000000000000000000000000000000000000000000815260040160405180910390fd5b600081600b54610d88919061427c565b11610dbf576040517f9210988b00000000000000000000000000000000000000000000000000000000815260040160405180910390fd5b600160065403611163576000610dd782600d5461238c565b90506301c9c380602160009054906101000a900473ffffffffffffffffffffffffffffffffffffffff1673ffffffffffffffffffffffffffffffffffffffff166370a08231336040518263ffffffff1660e01b8152600401610e399190614029565b602060405180830381865afa158015610e56573d6000803e3d6000fd5b505050506040513d601f19601f82011682018060405250810190610e7a91906142c5565b1080610f20575080602160009054906101000a900473ffffffffffffffffffffffffffffffffffffffff1673ffffffffffffffffffffffffffffffffffffffff166370a08231336040518263ffffffff1660e01b8152600401610edd9190614029565b602060405180830381865afa158015610efa573d6000803e3d6000fd5b505050506040513d601f19601f82011682018060405250810190610f1e91906142c5565b105b15610f57576040517fcf553dfa00000000000000000000000000000000000000000000000000000000815260040160405180910390fd5b602160009054906101000a900473ffffffffffffffffffffffffffffffffffffffff1673ffffffffffffffffffffffffffffffffffffffff166323b872dd3330846040518463ffffffff1660e01b8152600401610fb6939291906142f2565b6020604051808303816000875af1158015610fd5573d6000803e3d6000fd5b505050506040513d601f19601f82011682018060405250810190610ff99190614355565b5081600b600082825461100c919061427c565b9250508190555081601560003373ffffffffffffffffffffffffffffffffffffffff1673ffffffffffffffffffffffffffffffffffffffff16815260200190815260200160002060008282546110629190614382565b92505081905550601c60003373ffffffffffffffffffffffffffffffffffffffff1673ffffffffffffffffffffffffffffffffffffffff16815260200190815260200160002060009054906101000a900460ff1661112b576001601c60003373ffffffffffffffffffffffffffffffffffffffff1673ffffffffffffffffffffffffffffffffffffffff16815260200190815260200160002060006101000a81548160ff02191690831515021790555060186000815480929190611125906143b6565b91905055505b816019600082825461113d9190614382565b9250508190555080601b60008282546111569190614382565b9250508190555050612029565b60026006540361150757600061117b82600e5461238c565b90506301c9c380602160009054906101000a900473ffffffffffffffffffffffffffffffffffffffff1673ffffffffffffffffffffffffffffffffffffffff166370a08231336040518263ffffffff1660e01b81526004016111dd9190614029565b602060405180830381865afa1580156111fa573d6000803e3d6000fd5b505050506040513d601f19601f8201168201806040525081019061121e91906142c5565b10806112c4575080602160009054906101000a900473ffffffffffffffffffffffffffffffffffffffff1673ffffffffffffffffffffffffffffffffffffffff166370a08231336040518263ffffffff1660e01b81526004016112819190614029565b602060405180830381865afa15801561129e573d6000803e3d6000fd5b505050506040513d601f19601f820116820180604052508101906112c291906142c5565b105b156112fb576040517fcf553dfa00000000000000000000000000000000000000000000000000000000815260040160405180910390fd5b602160009054906101000a900473ffffffffffffffffffffffffffffffffffffffff1673ffffffffffffffffffffffffffffffffffffffff166323b872dd3330846040518463ffffffff1660e01b815260040161135a939291906142f2565b6020604051808303816000875af1158015611379573d6000803e3d6000fd5b505050506040513d601f19601f8201168201806040525081019061139d9190614355565b5081600b60008282546113b0919061427c565b9250508190555081601560003373ffffffffffffffffffffffffffffffffffffffff1673ffffffffffffffffffffffffffffffffffffffff16815260200190815260200160002060008282546114069190614382565b92505081905550601d60003373ffffffffffffffffffffffffffffffffffffffff1673ffffffffffffffffffffffffffffffffffffffff16815260200190815260200160002060009054906101000a900460ff166114cf576001601d60003373ffffffffffffffffffffffffffffffffffffffff1673ffffffffffffffffffffffffffffffffffffffff16815260200190815260200160002060006101000a81548160ff021916908315150217905550601860008154809291906114c9906143b6565b91905055505b81601960008282546114e19190614382565b9250508190555080601b60008282546114fa9190614382565b9250508190555050612028565b6003600654036118ab57600061151f82600f5461238c565b90506301c9c380602160009054906101000a900473ffffffffffffffffffffffffffffffffffffffff1673ffffffffffffffffffffffffffffffffffffffff166370a08231336040518263ffffffff1660e01b81526004016115819190614029565b602060405180830381865afa15801561159e573d6000803e3d6000fd5b505050506040513d601f19601f820116820180604052508101906115c291906142c5565b1080611668575080602160009054906101000a900473ffffffffffffffffffffffffffffffffffffffff1673ffffffffffffffffffffffffffffffffffffffff166370a08231336040518263ffffffff1660e01b81526004016116259190614029565b602060405180830381865afa158015611642573d6000803e3d6000fd5b505050506040513d601f19601f8201168201806040525081019061166691906142c5565b105b1561169f576040517fcf553dfa00000000000000000000000000000000000000000000000000000000815260040160405180910390fd5b602160009054906101000a900473ffffffffffffffffffffffffffffffffffffffff1673ffffffffffffffffffffffffffffffffffffffff166323b872dd3330846040518463ffffffff1660e01b81526004016116fe939291906142f2565b6020604051808303816000875af115801561171d573d6000803e3d6000fd5b505050506040513d601f19601f820116820180604052508101906117419190614355565b5081600b6000828254611754919061427c565b9250508190555081601560003373ffffffffffffffffffffffffffffffffffffffff1673ffffffffffffffffffffffffffffffffffffffff16815260200190815260200160002060008282546117aa9190614382565b92505081905550601e60003373ffffffffffffffffffffffffffffffffffffffff1673ffffffffffffffffffffffffffffffffffffffff16815260200190815260200160002060009054906101000a900460ff16611873576001601e60003373ffffffffffffffffffffffffffffffffffffffff1673ffffffffffffffffffffffffffffffffffffffff16815260200190815260200160002060006101000a81548160ff0219169083151502179055506018600081548092919061186d906143b6565b91905055505b81601960008282546118859190614382565b9250508190555080601b600082825461189e9190614382565b9250508190555050612027565b600460065403611c4f5760006118c38260105461238c565b90506301c9c380602160009054906101000a900473ffffffffffffffffffffffffffffffffffffffff1673ffffffffffffffffffffffffffffffffffffffff166370a08231336040518263ffffffff1660e01b81526004016119259190614029565b602060405180830381865afa158015611942573d6000803e3d6000fd5b505050506040513d601f19601f8201168201806040525081019061196691906142c5565b1080611a0c575080602160009054906101000a900473ffffffffffffffffffffffffffffffffffffffff1673ffffffffffffffffffffffffffffffffffffffff166370a08231336040518263ffffffff1660e01b81526004016119c99190614029565b602060405180830381865afa1580156119e6573d6000803e3d6000fd5b505050506040513d601f19601f82011682018060405250810190611a0a91906142c5565b105b15611a43576040517fcf553dfa00000000000000000000000000000000000000000000000000000000815260040160405180910390fd5b602160009054906101000a900473ffffffffffffffffffffffffffffffffffffffff1673ffffffffffffffffffffffffffffffffffffffff166323b872dd3330846040518463ffffffff1660e01b8152600401611aa2939291906142f2565b6020604051808303816000875af1158015611ac1573d6000803e3d6000fd5b505050506040513d601f19601f82011682018060405250810190611ae59190614355565b5081600b6000828254611af8919061427c565b9250508190555081601560003373ffffffffffffffffffffffffffffffffffffffff1673ffffffffffffffffffffffffffffffffffffffff1681526020019081526020016000206000828254611b4e9190614382565b92505081905550601f60003373ffffffffffffffffffffffffffffffffffffffff1673ffffffffffffffffffffffffffffffffffffffff16815260200190815260200160002060009054906101000a900460ff16611c17576001601f60003373ffffffffffffffffffffffffffffffffffffffff1673ffffffffffffffffffffffffffffffffffffffff16815260200190815260200160002060006101000a81548160ff02191690831515021790555060186000815480929190611c11906143b6565b91905055505b8160196000828254611c299190614382565b9250508190555080601b6000828254611c429190614382565b9250508190555050612026565b600560065403611ff3576000611c678260115461238c565b90506301c9c380602160009054906101000a900473ffffffffffffffffffffffffffffffffffffffff1673ffffffffffffffffffffffffffffffffffffffff166370a08231336040518263ffffffff1660e01b8152600401611cc99190614029565b602060405180830381865afa158015611ce6573d6000803e3d6000fd5b505050506040513d601f19601f82011682018060405250810190611d0a91906142c5565b1080611db0575080602160009054906101000a900473ffffffffffffffffffffffffffffffffffffffff1673ffffffffffffffffffffffffffffffffffffffff166370a08231336040518263ffffffff1660e01b8152600401611d6d9190614029565b602060405180830381865afa158015611d8a573d6000803e3d6000fd5b505050506040513d601f19601f82011682018060405250810190611dae91906142c5565b105b15611de7576040517fcf553dfa00000000000000000000000000000000000000000000000000000000815260040160405180910390fd5b602160009054906101000a900473ffffffffffffffffffffffffffffffffffffffff1673ffffffffffffffffffffffffffffffffffffffff166323b872dd3330846040518463ffffffff1660e01b8152600401611e46939291906142f2565b6020604051808303816000875af1158015611e65573d6000803e3d6000fd5b505050506040513d601f19601f82011682018060405250810190611e899190614355565b5081600b6000828254611e9c919061427c565b9250508190555081601560003373ffffffffffffffffffffffffffffffffffffffff1673ffffffffffffffffffffffffffffffffffffffff1681526020019081526020016000206000828254611ef29190614382565b92505081905550602060003373ffffffffffffffffffffffffffffffffffffffff1673ffffffffffffffffffffffffffffffffffffffff16815260200190815260200160002060009054906101000a900460ff16611fbb576001602060003373ffffffffffffffffffffffffffffffffffffffff1673ffffffffffffffffffffffffffffffffffffffff16815260200190815260200160002060006101000a81548160ff02191690831515021790555060186000815480929190611fb5906143b6565b91905055505b8160196000828254611fcd9190614382565b9250508190555080601b6000828254611fe69190614382565b9250508190555050612025565b6040517fe5c86cd700000000000000000000000000000000000000000000000000000000815260040160405180910390fd5b5b5b5b5b50565b6000806120376136b8565b9050612044858285613889565b61204f858585613915565b60019150509392505050565b60166020528060005260406000206000915054906101000a900460ff1681565b60006012905090565b61208c613b8b565b6000602160009054906101000a900473ffffffffffffffffffffffffffffffffffffffff1673ffffffffffffffffffffffffffffffffffffffff166370a08231336040518263ffffffff1660e01b81526004016120e99190614029565b602060405180830381865afa158015612106573d6000803e3d6000fd5b505050506040513d601f19601f8201168201806040525081019061212a91906142c5565b1015612162576040517f4be200da00000000000000000000000000000000000000000000000000000000815260040160405180910390fd5b602160009054906101000a900473ffffffffffffffffffffffffffffffffffffffff1673ffffffffffffffffffffffffffffffffffffffff1663a9059cbb6121a86130a6565b602160009054906101000a900473ffffffffffffffffffffffffffffffffffffffff1673ffffffffffffffffffffffffffffffffffffffff166370a08231306040518263ffffffff1660e01b81526004016122039190614029565b602060405180830381865afa158015612220573d6000803e3d6000fd5b505050506040513d601f19601f8201168201806040525081019061224491906142c5565b6040518363ffffffff1660e01b81526004016122619291906143fe565b6020604051808303816000875af1158015612280573d6000803e3d6000fd5b505050506040513d601f19601f820116820180604052508101906122a49190614355565b50565b6000806122b26136b8565b90506122d38185856122c4858961357d565b6122ce9190614382565b6136c0565b600191505092915050565b6122e6613b8b565b60003373ffffffffffffffffffffffffffffffffffffffff164760405161230c90614458565b60006040518083038185875af1925050503d8060008114612349576040519150601f19603f3d011682016040523d82523d6000602084013e61234e565b606091505b5050905080612389576040517fa8fc93ca00000000000000000000000000000000000000000000000000000000815260040160405180910390fd5b50565b600080600c548361239d919061446d565b9050600064e8d4a51000670de0b6b3a764000086846123bc919061446d565b6123c691906144de565b6123d091906144de565b9050809250505092915050565b60075481565b601f6020528060005260406000206000915054906101000a900460ff1681565b601b5481565b6000601560003373ffffffffffffffffffffffffffffffffffffffff1673ffffffffffffffffffffffffffffffffffffffff1681526020019081526020016000205411612482576040517f98fc9e8c00000000000000000000000000000000000000000000000000000000815260040160405180910390fd5b60068054146124c6576040517f08c379a00000000000000000000000000000000000000000000000000000000081526004016124bd9061455b565b60405180910390fd5b6000601560003373ffffffffffffffffffffffffffffffffffffffff1673ffffffffffffffffffffffffffffffffffffffff1681526020019081526020016000205490506000601660003373ffffffffffffffffffffffffffffffffffffffff1673ffffffffffffffffffffffffffffffffffffffff16815260200190815260200160002060006101000a81548160ff02191690831515021790555061256c3382613c09565b601560003373ffffffffffffffffffffffffffffffffffffffff1673ffffffffffffffffffffffffffffffffffffffff1681526020019081526020016000206000905550565b60008060008373ffffffffffffffffffffffffffffffffffffffff1673ffffffffffffffffffffffffffffffffffffffff168152602001908152602001600020549050919050565b612602613b8b565b61260c6000613d5f565b565b60006006540361264a576040517f3f1b3b5300000000000000000000000000000000000000000000000000000000815260040160405180910390fd5b600081600b5461265a919061427c565b11612691576040517f9210988b00000000000000000000000000000000000000000000000000000000815260040160405180910390fd5b6301c9c380602160009054906101000a900473ffffffffffffffffffffffffffffffffffffffff1673ffffffffffffffffffffffffffffffffffffffff166370a08231336040518263ffffffff1660e01b81526004016126f19190614029565b602060405180830381865afa15801561270e573d6000803e3d6000fd5b505050506040513d601f19601f8201168201806040525081019061273291906142c5565b101561276a576040517fcf553dfa00000000000000000000000000000000000000000000000000000000815260040160405180910390fd5b60016006540361292757600061278282600d5461343d565b9050803410156127be576040517f8bbdc31c00000000000000000000000000000000000000000000000000000000815260040160405180910390fd5b81600b60008282546127d0919061427c565b9250508190555081601560003373ffffffffffffffffffffffffffffffffffffffff1673ffffffffffffffffffffffffffffffffffffffff16815260200190815260200160002060008282546128269190614382565b92505081905550601c60003373ffffffffffffffffffffffffffffffffffffffff1673ffffffffffffffffffffffffffffffffffffffff16815260200190815260200160002060009054906101000a900460ff166128ef576001601c60003373ffffffffffffffffffffffffffffffffffffffff1673ffffffffffffffffffffffffffffffffffffffff16815260200190815260200160002060006101000a81548160ff021916908315150217905550601860008154809291906128e9906143b6565b91905055505b81601960008282546129019190614382565b9250508190555034601a600082825461291a9190614382565b9250508190555050613051565b600260065403612ae457600061293f82600e5461343d565b90508034101561297b576040517f8bbdc31c00000000000000000000000000000000000000000000000000000000815260040160405180910390fd5b81600b600082825461298d919061427c565b9250508190555081601560003373ffffffffffffffffffffffffffffffffffffffff1673ffffffffffffffffffffffffffffffffffffffff16815260200190815260200160002060008282546129e39190614382565b92505081905550601d60003373ffffffffffffffffffffffffffffffffffffffff1673ffffffffffffffffffffffffffffffffffffffff16815260200190815260200160002060009054906101000a900460ff16612aac576001601d60003373ffffffffffffffffffffffffffffffffffffffff1673ffffffffffffffffffffffffffffffffffffffff16815260200190815260200160002060006101000a81548160ff02191690831515021790555060186000815480929190612aa6906143b6565b91905055505b8160196000828254612abe9190614382565b9250508190555034601a6000828254612ad79190614382565b9250508190555050613050565b600360065403612ca1576000612afc82600f5461343d565b905080341015612b38576040517f8bbdc31c00000000000000000000000000000000000000000000000000000000815260040160405180910390fd5b81600b6000828254612b4a919061427c565b9250508190555081601560003373ffffffffffffffffffffffffffffffffffffffff1673ffffffffffffffffffffffffffffffffffffffff1681526020019081526020016000206000828254612ba09190614382565b92505081905550601e60003373ffffffffffffffffffffffffffffffffffffffff1673ffffffffffffffffffffffffffffffffffffffff16815260200190815260200160002060009054906101000a900460ff16612c69576001601e60003373ffffffffffffffffffffffffffffffffffffffff1673ffffffffffffffffffffffffffffffffffffffff16815260200190815260200160002060006101000a81548160ff02191690831515021790555060186000815480929190612c63906143b6565b91905055505b8160196000828254612c7b9190614382565b9250508190555034601a6000828254612c949190614382565b925050819055505061304f565b600460065403612e5e576000612cb98260105461343d565b905080341015612cf5576040517f8bbdc31c00000000000000000000000000000000000000000000000000000000815260040160405180910390fd5b81600b6000828254612d07919061427c565b9250508190555081601560003373ffffffffffffffffffffffffffffffffffffffff1673ffffffffffffffffffffffffffffffffffffffff1681526020019081526020016000206000828254612d5d9190614382565b92505081905550601f60003373ffffffffffffffffffffffffffffffffffffffff1673ffffffffffffffffffffffffffffffffffffffff16815260200190815260200160002060009054906101000a900460ff16612e26576001601f60003373ffffffffffffffffffffffffffffffffffffffff1673ffffffffffffffffffffffffffffffffffffffff16815260200190815260200160002060006101000a81548160ff02191690831515021790555060186000815480929190612e20906143b6565b91905055505b8160196000828254612e389190614382565b9250508190555034601a6000828254612e519190614382565b925050819055505061304e565b60056006540361301b576000612e768260115461343d565b905080341015612eb2576040517f8bbdc31c00000000000000000000000000000000000000000000000000000000815260040160405180910390fd5b81600b6000828254612ec4919061427c565b9250508190555081601560003373ffffffffffffffffffffffffffffffffffffffff1673ffffffffffffffffffffffffffffffffffffffff1681526020019081526020016000206000828254612f1a9190614382565b92505081905550602060003373ffffffffffffffffffffffffffffffffffffffff1673ffffffffffffffffffffffffffffffffffffffff16815260200190815260200160002060009054906101000a900460ff16612fe3576001602060003373ffffffffffffffffffffffffffffffffffffffff1673ffffffffffffffffffffffffffffffffffffffff16815260200190815260200160002060006101000a81548160ff02191690831515021790555060186000815480929190612fdd906143b6565b91905055505b8160196000828254612ff59190614382565b9250508190555034601a600082825461300e9190614382565b925050819055505061304d565b6040517fe5c86cd700000000000000000000000000000000000000000000000000000000815260040160405180910390fd5b5b5b5b5b50565b601360009054906101000a900473ffffffffffffffffffffffffffffffffffffffff1681565b601260009054906101000a900473ffffffffffffffffffffffffffffffffffffffff1681565b600e5481565b6000600560009054906101000a900473ffffffffffffffffffffffffffffffffffffffff16905090565b6130d8613b8b565b600680541061311c576040517f08c379a0000000000000000000000000000000000000000000000000000000008152600401613113906145c7565b60405180910390fd5b60016006600082825461312f9190614382565b925050819055506a52b7d2dcc80cd2e4000000600b60008282546131539190614382565b925050819055506017604051806080016040528060185481526020016019548152602001601a548152602001601b548152509080600181540180825580915050600190039060005260206000209060040201600090919091909150600082015181600001556020820151816001015560408201518160020155606082015181600301555050600060188190555060006019819055506000601a819055506000601b81905550565b601d6020528060005260406000206000915054906101000a900460ff1681565b6a52b7d2dcc80cd2e400000081565b6060600480546132389061421c565b80601f01602080910402602001604051908101604052809291908181526020018280546132649061421c565b80156132b15780601f10613286576101008083540402835291602001916132b1565b820191906000526020600020905b81548152906001019060200180831161329457829003601f168201915b5050505050905090565b600d5481565b60008073ee9f2375b4bdf6387aa8265dd4fb8f16512a1d46905060008173ffffffffffffffffffffffffffffffffffffffff1663feaf968c6040518163ffffffff1660e01b815260040160a060405180830381865afa158015613328573d6000803e3d6000fd5b505050506040513d601f19601f8201168201806040525081019061334c919061465f565b50505091505060008113613395576040517f08c379a000000000000000000000000000000000000000000000000000000000815260040161338c90614726565b60405180910390fd5b809250505090565b6000806133a86136b8565b905060006133b6828661357d565b9050838110156133fb576040517f08c379a00000000000000000000000000000000000000000000000000000000081526004016133f2906147b8565b60405180910390fd5b61340882868684036136c0565b60019250505092915050565b60008061341f6136b8565b905061342c818585613915565b600191505092915050565b60105481565b600080600c548361344e919061446d565b9050600064e8d4a51000670de0b6b3a7640000868461346d919061446d565b61347791906144de565b61348191906144de565b90506000600c5482613493919061446d565b90506000670de0b6b3a7640000826134a96132c1565b6134b3919061446d565b6134bd91906144de565b90508094505050505092915050565b600a81815481106134dc57600080fd5b906000526020600020016000915054906101000a900473ffffffffffffffffffffffffffffffffffffffff1681565b601e6020528060005260406000206000915054906101000a900460ff1681565b601a5481565b6017818154811061354157600080fd5b90600052602060002090600402016000915090508060000154908060010154908060020154908060030154905084565b60185481565b600b5481565b6000600160008473ffffffffffffffffffffffffffffffffffffffff1673ffffffffffffffffffffffffffffffffffffffff16815260200190815260200160002060008373ffffffffffffffffffffffffffffffffffffffff1673ffffffffffffffffffffffffffffffffffffffff16815260200190815260200160002054905092915050565b602080528060005260406000206000915054906101000a900460ff1681565b60095481565b60195481565b613637613b8b565b600073ffffffffffffffffffffffffffffffffffffffff168173ffffffffffffffffffffffffffffffffffffffff16036136a6576040517f08c379a000000000000000000000000000000000000000000000000000000000815260040161369d9061484a565b60405180910390fd5b6136af81613d5f565b50565b60115481565b600033905090565b600073ffffffffffffffffffffffffffffffffffffffff168373ffffffffffffffffffffffffffffffffffffffff160361372f576040517f08c379a0000000000000000000000000000000000000000000000000000000008152600401613726906148dc565b60405180910390fd5b600073ffffffffffffffffffffffffffffffffffffffff168273ffffffffffffffffffffffffffffffffffffffff160361379e576040517f08c379a00000000000000000000000000000000000000000000000000000000081526004016137959061496e565b60405180910390fd5b80600160008573ffffffffffffffffffffffffffffffffffffffff1673ffffffffffffffffffffffffffffffffffffffff16815260200190815260200160002060008473ffffffffffffffffffffffffffffffffffffffff1673ffffffffffffffffffffffffffffffffffffffff168152602001908152602001600020819055508173ffffffffffffffffffffffffffffffffffffffff168373ffffffffffffffffffffffffffffffffffffffff167f8c5be1e5ebec7d5bd14f71427d1e84f3dd0314c0f7b2291e5b200ac8c7c3b9258360405161387c9190613e48565b60405180910390a3505050565b6000613895848461357d565b90507fffffffffffffffffffffffffffffffffffffffffffffffffffffffffffffffff811461390f5781811015613901576040517f08c379a00000000000000000000000000000000000000000000000000000000081526004016138f8906149da565b60405180910390fd5b61390e84848484036136c0565b5b50505050565b600073ffffffffffffffffffffffffffffffffffffffff168373ffffffffffffffffffffffffffffffffffffffff1603613984576040517f08c379a000000000000000000000000000000000000000000000000000000000815260040161397b90614a6c565b60405180910390fd5b600073ffffffffffffffffffffffffffffffffffffffff168273ffffffffffffffffffffffffffffffffffffffff16036139f3576040517f08c379a00000000000000000000000000000000000000000000000000000000081526004016139ea90614afe565b60405180910390fd5b6139fe838383613e25565b60008060008573ffffffffffffffffffffffffffffffffffffffff1673ffffffffffffffffffffffffffffffffffffffff16815260200190815260200160002054905081811015613a84576040517f08c379a0000000000000000000000000000000000000000000000000000000008152600401613a7b90614b90565b60405180910390fd5b8181036000808673ffffffffffffffffffffffffffffffffffffffff1673ffffffffffffffffffffffffffffffffffffffff16815260200190815260200160002081905550816000808573ffffffffffffffffffffffffffffffffffffffff1673ffffffffffffffffffffffffffffffffffffffff168152602001908152602001600020600082825401925050819055508273ffffffffffffffffffffffffffffffffffffffff168473ffffffffffffffffffffffffffffffffffffffff167fddf252ad1be2c89b69c2b068fc378daa952ba7f163c4a11628f55a4df523b3ef84604051613b729190613e48565b60405180910390a3613b85848484613e2a565b50505050565b613b936136b8565b73ffffffffffffffffffffffffffffffffffffffff16613bb16130a6565b73ffffffffffffffffffffffffffffffffffffffff1614613c07576040517f08c379a0000000000000000000000000000000000000000000000000000000008152600401613bfe90614bfc565b60405180910390fd5b565b600073ffffffffffffffffffffffffffffffffffffffff168273ffffffffffffffffffffffffffffffffffffffff1603613c78576040517f08c379a0000000000000000000000000000000000000000000000000000000008152600401613c6f90614c68565b60405180910390fd5b613c8460008383613e25565b8060026000828254613c969190614382565b92505081905550806000808473ffffffffffffffffffffffffffffffffffffffff1673ffffffffffffffffffffffffffffffffffffffff168152602001908152602001600020600082825401925050819055508173ffffffffffffffffffffffffffffffffffffffff16600073ffffffffffffffffffffffffffffffffffffffff167fddf252ad1be2c89b69c2b068fc378daa952ba7f163c4a11628f55a4df523b3ef83604051613d479190613e48565b60405180910390a3613d5b60008383613e2a565b5050565b6000600560009054906101000a900473ffffffffffffffffffffffffffffffffffffffff16905081600560006101000a81548173ffffffffffffffffffffffffffffffffffffffff021916908373ffffffffffffffffffffffffffffffffffffffff1602179055508173ffffffffffffffffffffffffffffffffffffffff168173ffffffffffffffffffffffffffffffffffffffff167f8be0079c531659141344cd1fd0a4f28419497f9722a3daafe3b4186f6b6457e060405160405180910390a35050565b505050565b505050565b6000819050919050565b613e4281613e2f565b82525050565b6000602082019050613e5d6000830184613e39565b92915050565b600081519050919050565b600082825260208201905092915050565b60005b83811015613e9d578082015181840152602081019050613e82565b60008484015250505050565b6000601f19601f8301169050919050565b6000613ec582613e63565b613ecf8185613e6e565b9350613edf818560208601613e7f565b613ee881613ea9565b840191505092915050565b60006020820190508181036000830152613f0d8184613eba565b905092915050565b600080fd5b600073ffffffffffffffffffffffffffffffffffffffff82169050919050565b6000613f4582613f1a565b9050919050565b613f5581613f3a565b8114613f6057600080fd5b50565b600081359050613f7281613f4c565b92915050565b613f8181613e2f565b8114613f8c57600080fd5b50565b600081359050613f9e81613f78565b92915050565b60008060408385031215613fbb57613fba613f15565b5b6000613fc985828601613f63565b9250506020613fda85828601613f8f565b9150509250929050565b60008115159050919050565b613ff981613fe4565b82525050565b60006020820190506140146000830184613ff0565b92915050565b61402381613f3a565b82525050565b600060208201905061403e600083018461401a565b92915050565b60006020828403121561405a57614059613f15565b5b600061406884828501613f63565b91505092915050565b60006020828403121561408757614086613f15565b5b600061409584828501613f8f565b91505092915050565b6000806000606084860312156140b7576140b6613f15565b5b60006140c586828701613f63565b93505060206140d686828701613f63565b92505060406140e786828701613f8f565b9150509250925092565b600060ff82169050919050565b614107816140f1565b82525050565b600060208201905061412260008301846140fe565b92915050565b6000806040838503121561413f5761413e613f15565b5b600061414d85828601613f8f565b925050602061415e85828601613f8f565b9150509250929050565b600060808201905061417d6000830187613e39565b61418a6020830186613e39565b6141976040830185613e39565b6141a46060830184613e39565b95945050505050565b600080604083850312156141c4576141c3613f15565b5b60006141d285828601613f63565b92505060206141e385828601613f63565b9150509250929050565b7f4e487b7100000000000000000000000000000000000000000000000000000000600052602260045260246000fd5b6000600282049050600182168061423457607f821691505b602082108103614247576142466141ed565b5b50919050565b7f4e487b7100000000000000000000000000000000000000000000000000000000600052601160045260246000fd5b600061428782613e2f565b915061429283613e2f565b92508282039050818111156142aa576142a961424d565b5b92915050565b6000815190506142bf81613f78565b92915050565b6000602082840312156142db576142da613f15565b5b60006142e9848285016142b0565b91505092915050565b6000606082019050614307600083018661401a565b614314602083018561401a565b6143216040830184613e39565b949350505050565b61433281613fe4565b811461433d57600080fd5b50565b60008151905061434f81614329565b92915050565b60006020828403121561436b5761436a613f15565b5b600061437984828501614340565b91505092915050565b600061438d82613e2f565b915061439883613e2f565b92508282019050808211156143b0576143af61424d565b5b92915050565b60006143c182613e2f565b91507fffffffffffffffffffffffffffffffffffffffffffffffffffffffffffffffff82036143f3576143f261424d565b5b600182019050919050565b6000604082019050614413600083018561401a565b6144206020830184613e39565b9392505050565b600081905092915050565b50565b6000614442600083614427565b915061444d82614432565b600082019050919050565b600061446382614435565b9150819050919050565b600061447882613e2f565b915061448383613e2f565b925082820261449181613e2f565b915082820484148315176144a8576144a761424d565b5b5092915050565b7f4e487b7100000000000000000000000000000000000000000000000000000000600052601260045260246000fd5b60006144e982613e2f565b91506144f483613e2f565b925082614504576145036144af565b5b828204905092915050565b7f706c65617365207761697420666f722070726553616c6520656e640000000000600082015250565b6000614545601b83613e6e565b91506145508261450f565b602082019050919050565b6000602082019050818103600083015261457481614538565b9050919050565b7f416c6c20726f756e6473206172652066696e6973686564000000000000000000600082015250565b60006145b1601783613e6e565b91506145bc8261457b565b602082019050919050565b600060208201905081810360008301526145e0816145a4565b9050919050565b600069ffffffffffffffffffff82169050919050565b614606816145e7565b811461461157600080fd5b50565b600081519050614623816145fd565b92915050565b6000819050919050565b61463c81614629565b811461464757600080fd5b50565b60008151905061465981614633565b92915050565b600080600080600060a0868803121561467b5761467a613f15565b5b600061468988828901614614565b955050602061469a8882890161464a565b94505060406146ab888289016142b0565b93505060606146bc888289016142b0565b92505060806146cd88828901614614565b9150509295509295909350565b7f496e76616c696420555344542070726963650000000000000000000000000000600082015250565b6000614710601283613e6e565b915061471b826146da565b602082019050919050565b6000602082019050818103600083015261473f81614703565b9050919050565b7f45524332303a2064656372656173656420616c6c6f77616e63652062656c6f7760008201527f207a65726f000000000000000000000000000000000000000000000000000000602082015250565b60006147a2602583613e6e565b91506147ad82614746565b604082019050919050565b600060208201905081810360008301526147d181614795565b9050919050565b7f4f776e61626c653a206e6577206f776e657220697320746865207a65726f206160008201527f6464726573730000000000000000000000000000000000000000000000000000602082015250565b6000614834602683613e6e565b915061483f826147d8565b604082019050919050565b6000602082019050818103600083015261486381614827565b9050919050565b7f45524332303a20617070726f76652066726f6d20746865207a65726f2061646460008201527f7265737300000000000000000000000000000000000000000000000000000000602082015250565b60006148c6602483613e6e565b91506148d18261486a565b604082019050919050565b600060208201905081810360008301526148f5816148b9565b9050919050565b7f45524332303a20617070726f766520746f20746865207a65726f20616464726560008201527f7373000000000000000000000000000000000000000000000000000000000000602082015250565b6000614958602283613e6e565b9150614963826148fc565b604082019050919050565b600060208201905081810360008301526149878161494b565b9050919050565b7f45524332303a20696e73756666696369656e7420616c6c6f77616e6365000000600082015250565b60006149c4601d83613e6e565b91506149cf8261498e565b602082019050919050565b600060208201905081810360008301526149f3816149b7565b9050919050565b7f45524332303a207472616e736665722066726f6d20746865207a65726f20616460008201527f6472657373000000000000000000000000000000000000000000000000000000602082015250565b6000614a56602583613e6e565b9150614a61826149fa565b604082019050919050565b60006020820190508181036000830152614a8581614a49565b9050919050565b7f45524332303a207472616e7366657220746f20746865207a65726f206164647260008201527f6573730000000000000000000000000000000000000000000000000000000000602082015250565b6000614ae8602383613e6e565b9150614af382614a8c565b604082019050919050565b60006020820190508181036000830152614b1781614adb565b9050919050565b7f45524332303a207472616e7366657220616d6f756e742065786365656473206260008201527f616c616e63650000000000000000000000000000000000000000000000000000602082015250565b6000614b7a602683613e6e565b9150614b8582614b1e565b604082019050919050565b60006020820190508181036000830152614ba981614b6d565b9050919050565b7f4f776e61626c653a2063616c6c6572206973206e6f7420746865206f776e6572600082015250565b6000614be6602083613e6e565b9150614bf182614bb0565b602082019050919050565b60006020820190508181036000830152614c1581614bd9565b9050919050565b7f45524332303a206d696e7420746f20746865207a65726f206164647265737300600082015250565b6000614c52601f83613e6e565b9150614c5d82614c1c565b602082019050919050565b60006020820190508181036000830152614c8181614c45565b905091905056fea2646970667358221220ae70dfd3dce6dfa6660263bda7b555be53af448763393ec52777a4c57f8f6c6064736f6c63430008130033",
  "linkReferences": {},
  "deployedLinkReferences": {}
}