{
  "_format": "hh-sol-artifact-1",
  "contractName": "AIMToken",
  "sourceName": "contracts/AIMToken.sol",
  "abi": [
    {
      "inputs": [],
      "stateMutability": "nonpayable",
      "type": "constructor"
    },
    {
      "inputs": [],
      "name": "allRoundsAreFinished",
      "type": "error"
    },
    {
      "inputs": [],
      "name": "contractDontHaveUSDT",
      "type": "error"
    },
    {
      "inputs": [],
      "name": "invalidUSDTPrice",
      "type": "error"
    },
    {
      "inputs": [],
      "name": "mintingIsNotAllowed",
      "type": "error"
    },
    {
      "inputs": [],
      "name": "pleasePurchaseMorethan30Doller",
      "type": "error"
    },
    {
      "inputs": [],
      "name": "pleaseSendTokenPrice",
      "type": "error"
    },
    {
      "inputs": [],
      "name": "pleaseWaitForPreSaleEnd",
      "type": "error"
    },
    {
      "inputs": [],
      "name": "roundSupplyLimitExceed",
      "type": "error"
    },
    {
      "inputs": [],
      "name": "transferFaild",
      "type": "error"
    },
    {
      "inputs": [],
      "name": "waitForStartingSaleRoud",
      "type": "error"
    },
    {
      "inputs": [],
      "name": "youDontHaveEnoughTokens",
      "type": "error"
    },
    {
      "inputs": [],
      "name": "youDontHaveEnoughUsdtORplasePurchaseMorethan30UsdtToken",
      "type": "error"
    },
    {
      "anonymous": false,
      "inputs": [
        {
          "indexed": true,
          "internalType": "address",
          "name": "owner",
          "type": "address"
        },
        {
          "indexed": true,
          "internalType": "address",
          "name": "spender",
          "type": "address"
        },
        {
          "indexed": false,
          "internalType": "uint256",
          "name": "value",
          "type": "uint256"
        }
      ],
      "name": "Approval",
      "type": "event"
    },
    {
      "anonymous": false,
      "inputs": [
        {
          "indexed": true,
          "internalType": "address",
          "name": "previousOwner",
          "type": "address"
        },
        {
          "indexed": true,
          "internalType": "address",
          "name": "newOwner",
          "type": "address"
        }
      ],
      "name": "OwnershipTransferred",
      "type": "event"
    },
    {
      "anonymous": false,
      "inputs": [
        {
          "indexed": false,
          "internalType": "uint256",
          "name": "_round",
          "type": "uint256"
        },
        {
          "indexed": false,
          "internalType": "address",
          "name": "_user",
          "type": "address"
        },
        {
          "indexed": false,
          "internalType": "uint256",
          "name": "_soldToken",
          "type": "uint256"
        },
        {
          "indexed": false,
          "internalType": "uint256",
          "name": "_BuywithEth",
          "type": "uint256"
        },
        {
          "indexed": false,
          "internalType": "uint256",
          "name": "_BuywithUSDT",
          "type": "uint256"
        }
      ],
      "name": "RoundData",
      "type": "event"
    },
    {
      "anonymous": false,
      "inputs": [
        {
          "indexed": true,
          "internalType": "address",
          "name": "from",
          "type": "address"
        },
        {
          "indexed": true,
          "internalType": "address",
          "name": "to",
          "type": "address"
        },
        {
          "indexed": false,
          "internalType": "uint256",
          "name": "value",
          "type": "uint256"
        }
      ],
      "name": "Transfer",
      "type": "event"
    },
    {
      "inputs": [
        {
          "internalType": "address",
          "name": "owner",
          "type": "address"
        },
        {
          "internalType": "address",
          "name": "spender",
          "type": "address"
        }
      ],
      "name": "allowance",
      "outputs": [
        {
          "internalType": "uint256",
          "name": "",
          "type": "uint256"
        }
      ],
      "stateMutability": "view",
      "type": "function"
    },
    {
      "inputs": [
        {
          "internalType": "address",
          "name": "spender",
          "type": "address"
        },
        {
          "internalType": "uint256",
          "name": "amount",
          "type": "uint256"
        }
      ],
      "name": "approve",
      "outputs": [
        {
          "internalType": "bool",
          "name": "",
          "type": "bool"
        }
      ],
      "stateMutability": "nonpayable",
      "type": "function"
    },
    {
      "inputs": [
        {
          "internalType": "address",
          "name": "account",
          "type": "address"
        }
      ],
      "name": "balanceOf",
      "outputs": [
        {
          "internalType": "uint256",
          "name": "",
          "type": "uint256"
        }
      ],
      "stateMutability": "view",
      "type": "function"
    },
    {
      "inputs": [],
      "name": "claimAIMToken",
      "outputs": [],
      "stateMutability": "nonpayable",
      "type": "function"
    },
    {
      "inputs": [],
      "name": "decimals",
      "outputs": [
        {
          "internalType": "uint8",
          "name": "",
          "type": "uint8"
        }
      ],
      "stateMutability": "view",
      "type": "function"
    },
    {
      "inputs": [
        {
          "internalType": "address",
          "name": "spender",
          "type": "address"
        },
        {
          "internalType": "uint256",
          "name": "subtractedValue",
          "type": "uint256"
        }
      ],
      "name": "decreaseAllowance",
      "outputs": [
        {
          "internalType": "bool",
          "name": "",
          "type": "bool"
        }
      ],
      "stateMutability": "nonpayable",
      "type": "function"
    },
    {
      "inputs": [],
      "name": "exchangeTokens",
      "outputs": [
        {
          "internalType": "uint256",
          "name": "",
          "type": "uint256"
        }
      ],
      "stateMutability": "view",
      "type": "function"
    },
    {
      "inputs": [],
      "name": "exchangeTokensWallet",
      "outputs": [
        {
          "internalType": "address",
          "name": "",
          "type": "address"
        }
      ],
      "stateMutability": "view",
      "type": "function"
    },
    {
      "inputs": [],
      "name": "getLatestUSDTPrice",
      "outputs": [
        {
          "internalType": "uint256",
          "name": "",
          "type": "uint256"
        }
      ],
      "stateMutability": "view",
      "type": "function"
    },
    {
      "inputs": [
        {
          "internalType": "address",
          "name": "spender",
          "type": "address"
        },
        {
          "internalType": "uint256",
          "name": "addedValue",
          "type": "uint256"
        }
      ],
      "name": "increaseAllowance",
      "outputs": [
        {
          "internalType": "bool",
          "name": "",
          "type": "bool"
        }
      ],
      "stateMutability": "nonpayable",
      "type": "function"
    },
    {
      "inputs": [],
      "name": "liquidityTokens",
      "outputs": [
        {
          "internalType": "uint256",
          "name": "",
          "type": "uint256"
        }
      ],
      "stateMutability": "view",
      "type": "function"
    },
    {
      "inputs": [],
      "name": "liquidityTokensWallet",
      "outputs": [
        {
          "internalType": "address",
          "name": "",
          "type": "address"
        }
      ],
      "stateMutability": "view",
      "type": "function"
    },
    {
      "inputs": [
        {
          "internalType": "uint256",
          "name": "_amount",
          "type": "uint256"
        }
      ],
      "name": "mintByEth",
      "outputs": [],
      "stateMutability": "payable",
      "type": "function"
    },
    {
      "inputs": [
        {
          "internalType": "uint256",
          "name": "_amount",
          "type": "uint256"
        }
      ],
      "name": "mintByUSDT",
      "outputs": [],
      "stateMutability": "nonpayable",
      "type": "function"
    },
    {
      "inputs": [],
      "name": "name",
      "outputs": [
        {
          "internalType": "string",
          "name": "",
          "type": "string"
        }
      ],
      "stateMutability": "view",
      "type": "function"
    },
    {
      "inputs": [],
      "name": "owner",
      "outputs": [
        {
          "internalType": "address",
          "name": "",
          "type": "address"
        }
      ],
      "stateMutability": "view",
      "type": "function"
    },
    {
      "inputs": [],
      "name": "remainingSupply",
      "outputs": [
        {
          "internalType": "uint256",
          "name": "",
          "type": "uint256"
        }
      ],
      "stateMutability": "view",
      "type": "function"
    },
    {
      "inputs": [],
      "name": "renounceOwnership",
      "outputs": [],
      "stateMutability": "nonpayable",
      "type": "function"
    },
    {
      "inputs": [],
      "name": "round",
      "outputs": [
        {
          "internalType": "uint256",
          "name": "",
          "type": "uint256"
        }
      ],
      "stateMutability": "view",
      "type": "function"
    },
    {
      "inputs": [],
      "name": "round1Price",
      "outputs": [
        {
          "internalType": "uint256",
          "name": "",
          "type": "uint256"
        }
      ],
      "stateMutability": "view",
      "type": "function"
    },
    {
      "inputs": [],
      "name": "round2Price",
      "outputs": [
        {
          "internalType": "uint256",
          "name": "",
          "type": "uint256"
        }
      ],
      "stateMutability": "view",
      "type": "function"
    },
    {
      "inputs": [],
      "name": "round3Price",
      "outputs": [
        {
          "internalType": "uint256",
          "name": "",
          "type": "uint256"
        }
      ],
      "stateMutability": "view",
      "type": "function"
    },
    {
      "inputs": [],
      "name": "round4Price",
      "outputs": [
        {
          "internalType": "uint256",
          "name": "",
          "type": "uint256"
        }
      ],
      "stateMutability": "view",
      "type": "function"
    },
    {
      "inputs": [],
      "name": "round5Price",
      "outputs": [
        {
          "internalType": "uint256",
          "name": "",
          "type": "uint256"
        }
      ],
      "stateMutability": "view",
      "type": "function"
    },
    {
      "inputs": [],
      "name": "roundLimit",
      "outputs": [
        {
          "internalType": "uint256",
          "name": "",
          "type": "uint256"
        }
      ],
      "stateMutability": "view",
      "type": "function"
    },
    {
      "inputs": [
        {
          "internalType": "uint256",
          "name": "_amount",
          "type": "uint256"
        },
        {
          "internalType": "uint256",
          "name": "_roundPrice",
          "type": "uint256"
        }
      ],
      "name": "sellTokenInETHPrice",
      "outputs": [
        {
          "internalType": "uint256",
          "name": "",
          "type": "uint256"
        }
      ],
      "stateMutability": "view",
      "type": "function"
    },
    {
      "inputs": [
        {
          "internalType": "uint256",
          "name": "_amount",
          "type": "uint256"
        },
        {
          "internalType": "uint256",
          "name": "_roundPrice",
          "type": "uint256"
        }
      ],
      "name": "sellTokenInUDSTPrice",
      "outputs": [
        {
          "internalType": "uint256",
          "name": "",
          "type": "uint256"
        }
      ],
      "stateMutability": "view",
      "type": "function"
    },
    {
      "inputs": [
        {
          "internalType": "address",
          "name": "",
          "type": "address"
        }
      ],
      "name": "soldTokens",
      "outputs": [
        {
          "internalType": "uint256",
          "name": "",
          "type": "uint256"
        }
      ],
      "stateMutability": "view",
      "type": "function"
    },
    {
      "inputs": [],
      "name": "stakeholdersTokens",
      "outputs": [
        {
          "internalType": "uint256",
          "name": "",
          "type": "uint256"
        }
      ],
      "stateMutability": "view",
      "type": "function"
    },
    {
      "inputs": [],
      "name": "stakeholdersTokensWallet",
      "outputs": [
        {
          "internalType": "address",
          "name": "",
          "type": "address"
        }
      ],
      "stateMutability": "view",
      "type": "function"
    },
    {
      "inputs": [],
      "name": "startTheSale",
      "outputs": [],
      "stateMutability": "nonpayable",
      "type": "function"
    },
    {
      "inputs": [],
      "name": "symbol",
      "outputs": [
        {
          "internalType": "string",
          "name": "",
          "type": "string"
        }
      ],
      "stateMutability": "view",
      "type": "function"
    },
    {
      "inputs": [],
      "name": "totalSupply",
      "outputs": [
        {
          "internalType": "uint256",
          "name": "",
          "type": "uint256"
        }
      ],
      "stateMutability": "pure",
      "type": "function"
    },
    {
      "inputs": [
        {
          "internalType": "address",
          "name": "to",
          "type": "address"
        },
        {
          "internalType": "uint256",
          "name": "amount",
          "type": "uint256"
        }
      ],
      "name": "transfer",
      "outputs": [
        {
          "internalType": "bool",
          "name": "",
          "type": "bool"
        }
      ],
      "stateMutability": "nonpayable",
      "type": "function"
    },
    {
      "inputs": [
        {
          "internalType": "address",
          "name": "from",
          "type": "address"
        },
        {
          "internalType": "address",
          "name": "to",
          "type": "address"
        },
        {
          "internalType": "uint256",
          "name": "amount",
          "type": "uint256"
        }
      ],
      "name": "transferFrom",
      "outputs": [
        {
          "internalType": "bool",
          "name": "",
          "type": "bool"
        }
      ],
      "stateMutability": "nonpayable",
      "type": "function"
    },
    {
      "inputs": [
        {
          "internalType": "address",
          "name": "newOwner",
          "type": "address"
        }
      ],
      "name": "transferOwnership",
      "outputs": [],
      "stateMutability": "nonpayable",
      "type": "function"
    },
    {
      "inputs": [],
      "name": "withdraw",
      "outputs": [],
      "stateMutability": "nonpayable",
      "type": "function"
    },
    {
      "inputs": [
        {
          "internalType": "uint256",
          "name": "_amount",
          "type": "uint256"
        }
      ],
      "name": "withdrawUSDT",
      "outputs": [],
      "stateMutability": "nonpayable",
      "type": "function"
    }
  ],
  "bytecode": "0x60806040526a52b7d2dcc80cd2e40000006007556aa56fa5b99019a5c80000006008556aa56fa5b99019a5c800000060095564e8d4a51000600b55611388600c55612710600d55614e20600e55619c40600f55620138806010553480156200006657600080fd5b506040518060400160405280600881526020017f41494d546f6b656e0000000000000000000000000000000000000000000000008152506040518060400160405280600381526020017f41494d00000000000000000000000000000000000000000000000000000000008152508160039080519060200190620000eb92919062000569565b5080600490805190602001906200010492919062000569565b505050620001276200011b6200032360201b60201c565b6200032b60201b60201c565b731ed5c3cc9a3379b757d9056de8f75bdf9b1ca17a601260006101000a81548173ffffffffffffffffffffffffffffffffffffffff021916908373ffffffffffffffffffffffffffffffffffffffff160217905550731ed5c3cc9a3379b757d9056de8f75bdf9b1ca17a601160006101000a81548173ffffffffffffffffffffffffffffffffffffffff021916908373ffffffffffffffffffffffffffffffffffffffff160217905550731ed5c3cc9a3379b757d9056de8f75bdf9b1ca17a601360006101000a81548173ffffffffffffffffffffffffffffffffffffffff021916908373ffffffffffffffffffffffffffffffffffffffff1602179055506200025c601260009054906101000a900473ffffffffffffffffffffffffffffffffffffffff16600854620003f160201b60201c565b62000292601160009054906101000a900473ffffffffffffffffffffffffffffffffffffffff16600754620003f160201b60201c565b620002c8601360009054906101000a900473ffffffffffffffffffffffffffffffffffffffff16600954620003f160201b60201c565b73dac17f958d2ee523a2206206994597c13d831ec7601560006101000a81548173ffffffffffffffffffffffffffffffffffffffff021916908373ffffffffffffffffffffffffffffffffffffffff160217905550620007c5565b600033905090565b6000600560009054906101000a900473ffffffffffffffffffffffffffffffffffffffff16905081600560006101000a81548173ffffffffffffffffffffffffffffffffffffffff021916908373ffffffffffffffffffffffffffffffffffffffff1602179055508173ffffffffffffffffffffffffffffffffffffffff168173ffffffffffffffffffffffffffffffffffffffff167f8be0079c531659141344cd1fd0a4f28419497f9722a3daafe3b4186f6b6457e060405160405180910390a35050565b600073ffffffffffffffffffffffffffffffffffffffff168273ffffffffffffffffffffffffffffffffffffffff16141562000464576040517f08c379a00000000000000000000000000000000000000000000000000000000081526004016200045b906200067a565b60405180910390fd5b62000478600083836200055f60201b60201c565b80600260008282546200048c9190620006d5565b92505081905550806000808473ffffffffffffffffffffffffffffffffffffffff1673ffffffffffffffffffffffffffffffffffffffff168152602001908152602001600020600082825401925050819055508173ffffffffffffffffffffffffffffffffffffffff16600073ffffffffffffffffffffffffffffffffffffffff167fddf252ad1be2c89b69c2b068fc378daa952ba7f163c4a11628f55a4df523b3ef836040516200053f919062000743565b60405180910390a36200055b600083836200056460201b60201c565b5050565b505050565b505050565b82805462000577906200078f565b90600052602060002090601f0160209004810192826200059b5760008555620005e7565b82601f10620005b657805160ff1916838001178555620005e7565b82800160010185558215620005e7579182015b82811115620005e6578251825591602001919060010190620005c9565b5b509050620005f69190620005fa565b5090565b5b8082111562000615576000816000905550600101620005fb565b5090565b600082825260208201905092915050565b7f45524332303a206d696e7420746f20746865207a65726f206164647265737300600082015250565b600062000662601f8362000619565b91506200066f826200062a565b602082019050919050565b60006020820190508181036000830152620006958162000653565b9050919050565b6000819050919050565b7f4e487b7100000000000000000000000000000000000000000000000000000000600052601160045260246000fd5b6000620006e2826200069c565b9150620006ef836200069c565b9250827fffffffffffffffffffffffffffffffffffffffffffffffffffffffffffffffff03821115620007275762000726620006a6565b5b828201905092915050565b6200073d816200069c565b82525050565b60006020820190506200075a600083018462000732565b92915050565b7f4e487b7100000000000000000000000000000000000000000000000000000000600052602260045260246000fd5b60006002820490506001821680620007a857607f821691505b60208210811415620007bf57620007be62000760565b5b50919050565b613c5d80620007d56000396000f3fe6080604052600436106102245760003560e01c806377186fba1161012357806398dd36bf116100ab578063da0239a61161006f578063da0239a6146107f3578063dd62ed3e1461081e578063e167dbca1461085b578063f2fde38b14610886578063f497f6ca146108af57610224565b806398dd36bf146106e6578063a457c2d714610711578063a9059cbb1461074e578063b1272af01461078b578063ba0dc0cd146107b657610224565b80638da5cb5b116100f25780638da5cb5b146106235780638de2637b1461064e578063949f26421461066557806395d89b411461069057806396578879146106bb57610224565b806377186fba146105865780637a8c2ffe146105a25780638182567a146105cd57806389d454af146105f857610224565b806323b872dd116101b15780634184bcce116101755780634184bcce146104b35780634b8ce602146104f05780636aab41df1461051b57806370a0823114610532578063715018a61461056f57610224565b806323b872dd146103ce578063313ce5671461040b57806339509351146104365780633ccfd60b146104735780633ea521ef1461048a57610224565b806314032c2b116101f857806314032c2b146102e7578063146ca5311461031257806318160ddd1461033d57806319617e34146103685780632342583b146103a557610224565b8062b39c6a14610229578063017309431461025457806306fdde031461027f578063095ea7b3146102aa575b600080fd5b34801561023557600080fd5b5061023e6108da565b60405161024b9190612ee2565b60405180910390f35b34801561026057600080fd5b506102696108e0565b6040516102769190612ee2565b60405180910390f35b34801561028b57600080fd5b506102946108e6565b6040516102a19190612f96565b60405180910390f35b3480156102b657600080fd5b506102d160048036038101906102cc9190613047565b610978565b6040516102de91906130a2565b60405180910390f35b3480156102f357600080fd5b506102fc61099b565b60405161030991906130cc565b60405180910390f35b34801561031e57600080fd5b506103276109c1565b6040516103349190612ee2565b60405180910390f35b34801561034957600080fd5b506103526109c7565b60405161035f9190612ee2565b60405180910390f35b34801561037457600080fd5b5061038f600480360381019061038a91906130e7565b6109db565b60405161039c9190612ee2565b60405180910390f35b3480156103b157600080fd5b506103cc60048036038101906103c79190613114565b6109f3565b005b3480156103da57600080fd5b506103f560048036038101906103f09190613141565b611663565b60405161040291906130a2565b60405180910390f35b34801561041757600080fd5b50610420611692565b60405161042d91906131b0565b60405180910390f35b34801561044257600080fd5b5061045d60048036038101906104589190613047565b61169b565b60405161046a91906130a2565b60405180910390f35b34801561047f57600080fd5b506104886116d2565b005b34801561049657600080fd5b506104b160048036038101906104ac9190613114565b611780565b005b3480156104bf57600080fd5b506104da60048036038101906104d591906131cb565b61190a565b6040516104e79190612ee2565b60405180910390f35b3480156104fc57600080fd5b50610505611923565b6040516105129190612ee2565b60405180910390f35b34801561052757600080fd5b50610530611929565b005b34801561053e57600080fd5b50610559600480360381019061055491906130e7565b611a72565b6040516105669190612ee2565b60405180910390f35b34801561057b57600080fd5b50610584611aba565b005b6105a0600480360381019061059b9190613114565b611ace565b005b3480156105ae57600080fd5b506105b7612252565b6040516105c491906130cc565b60405180910390f35b3480156105d957600080fd5b506105e2612278565b6040516105ef91906130cc565b60405180910390f35b34801561060457600080fd5b5061060d61229e565b60405161061a9190612ee2565b60405180910390f35b34801561062f57600080fd5b506106386122a4565b60405161064591906130cc565b60405180910390f35b34801561065a57600080fd5b506106636122ce565b005b34801561067157600080fd5b5061067a612353565b6040516106879190612ee2565b60405180910390f35b34801561069c57600080fd5b506106a5612362565b6040516106b29190612f96565b60405180910390f35b3480156106c757600080fd5b506106d06123f4565b6040516106dd9190612ee2565b60405180910390f35b3480156106f257600080fd5b506106fb6123fa565b6040516107089190612ee2565b60405180910390f35b34801561071d57600080fd5b5061073860048036038101906107339190613047565b6124dc565b60405161074591906130a2565b60405180910390f35b34801561075a57600080fd5b5061077560048036038101906107709190613047565b612553565b60405161078291906130a2565b60405180910390f35b34801561079757600080fd5b506107a0612576565b6040516107ad9190612ee2565b60405180910390f35b3480156107c257600080fd5b506107dd60048036038101906107d891906131cb565b61257c565b6040516107ea9190612ee2565b60405180910390f35b3480156107ff57600080fd5b506108086125a3565b6040516108159190612ee2565b60405180910390f35b34801561082a57600080fd5b506108456004803603810190610840919061320b565b6125a9565b6040516108529190612ee2565b60405180910390f35b34801561086757600080fd5b50610870612630565b60405161087d9190612ee2565b60405180910390f35b34801561089257600080fd5b506108ad60048036038101906108a891906130e7565b612636565b005b3480156108bb57600080fd5b506108c46126ba565b6040516108d19190612ee2565b60405180910390f35b600e5481565b60085481565b6060600380546108f59061327a565b80601f01602080910402602001604051908101604052809291908181526020018280546109219061327a565b801561096e5780601f106109435761010080835404028352916020019161096e565b820191906000526020600020905b81548152906001019060200180831161095157829003601f168201915b5050505050905090565b6000806109836126c0565b90506109908185856126c8565b600191505092915050565b601360009054906101000a900473ffffffffffffffffffffffffffffffffffffffff1681565b60065481565b60006b033b2e3c9fd0803ce8000000905090565b60146020528060005260406000206000915090505481565b60006006541415610a30576040517f3f1b3b5300000000000000000000000000000000000000000000000000000000815260040160405180910390fd5b600081600a54610a4091906132db565b11610a77576040517f9210988b00000000000000000000000000000000000000000000000000000000815260040160405180910390fd5b60016006541415610cce576000610a9082600c5461190a565b90506301c9c380811080610b4f575080601560009054906101000a900473ffffffffffffffffffffffffffffffffffffffff1673ffffffffffffffffffffffffffffffffffffffff166370a08231336040518263ffffffff1660e01b8152600401610afb91906130cc565b602060405180830381600087803b158015610b1557600080fd5b505af1158015610b29573d6000803e3d6000fd5b505050506040513d601f19601f82011682018060405250810190610b4d9190613324565b105b15610b86576040517fb9b1c21600000000000000000000000000000000000000000000000000000000815260040160405180910390fd5b601560009054906101000a900473ffffffffffffffffffffffffffffffffffffffff1673ffffffffffffffffffffffffffffffffffffffff166323b872dd3330846040518463ffffffff1660e01b8152600401610be593929190613351565b600060405180830381600087803b158015610bff57600080fd5b505af1158015610c13573d6000803e3d6000fd5b5050505081600a6000828254610c2991906132db565b9250508190555081601460003373ffffffffffffffffffffffffffffffffffffffff1673ffffffffffffffffffffffffffffffffffffffff1681526020019081526020016000206000828254610c7f9190613388565b925050819055507f702daf19347ac5d6af369c5a377056b2e08aaaf05065c8b444bacd28abfe61966006543384600085604051610cc0959493929190613423565b60405180910390a150611660565b60026006541415610f25576000610ce782600d5461190a565b90506301c9c380811080610da6575080601560009054906101000a900473ffffffffffffffffffffffffffffffffffffffff1673ffffffffffffffffffffffffffffffffffffffff166370a08231336040518263ffffffff1660e01b8152600401610d5291906130cc565b602060405180830381600087803b158015610d6c57600080fd5b505af1158015610d80573d6000803e3d6000fd5b505050506040513d601f19601f82011682018060405250810190610da49190613324565b105b15610ddd576040517fb9b1c21600000000000000000000000000000000000000000000000000000000815260040160405180910390fd5b601560009054906101000a900473ffffffffffffffffffffffffffffffffffffffff1673ffffffffffffffffffffffffffffffffffffffff166323b872dd3330846040518463ffffffff1660e01b8152600401610e3c93929190613351565b600060405180830381600087803b158015610e5657600080fd5b505af1158015610e6a573d6000803e3d6000fd5b5050505081600a6000828254610e8091906132db565b9250508190555081601460003373ffffffffffffffffffffffffffffffffffffffff1673ffffffffffffffffffffffffffffffffffffffff1681526020019081526020016000206000828254610ed69190613388565b925050819055507f702daf19347ac5d6af369c5a377056b2e08aaaf05065c8b444bacd28abfe61966006543384600085604051610f17959493929190613423565b60405180910390a15061165f565b6003600654141561117c576000610f3e82600e5461190a565b90506301c9c380811080610ffd575080601560009054906101000a900473ffffffffffffffffffffffffffffffffffffffff1673ffffffffffffffffffffffffffffffffffffffff166370a08231336040518263ffffffff1660e01b8152600401610fa991906130cc565b602060405180830381600087803b158015610fc357600080fd5b505af1158015610fd7573d6000803e3d6000fd5b505050506040513d601f19601f82011682018060405250810190610ffb9190613324565b105b15611034576040517fb9b1c21600000000000000000000000000000000000000000000000000000000815260040160405180910390fd5b601560009054906101000a900473ffffffffffffffffffffffffffffffffffffffff1673ffffffffffffffffffffffffffffffffffffffff166323b872dd3330846040518463ffffffff1660e01b815260040161109393929190613351565b600060405180830381600087803b1580156110ad57600080fd5b505af11580156110c1573d6000803e3d6000fd5b5050505081600a60008282546110d791906132db565b9250508190555081601460003373ffffffffffffffffffffffffffffffffffffffff1673ffffffffffffffffffffffffffffffffffffffff168152602001908152602001600020600082825461112d9190613388565b925050819055507f702daf19347ac5d6af369c5a377056b2e08aaaf05065c8b444bacd28abfe6196600654338460008560405161116e959493929190613423565b60405180910390a15061165e565b600460065414156113d357600061119582600f5461190a565b90506301c9c380811080611254575080601560009054906101000a900473ffffffffffffffffffffffffffffffffffffffff1673ffffffffffffffffffffffffffffffffffffffff166370a08231336040518263ffffffff1660e01b815260040161120091906130cc565b602060405180830381600087803b15801561121a57600080fd5b505af115801561122e573d6000803e3d6000fd5b505050506040513d601f19601f820116820180604052508101906112529190613324565b105b1561128b576040517fb9b1c21600000000000000000000000000000000000000000000000000000000815260040160405180910390fd5b601560009054906101000a900473ffffffffffffffffffffffffffffffffffffffff1673ffffffffffffffffffffffffffffffffffffffff166323b872dd3330846040518463ffffffff1660e01b81526004016112ea93929190613351565b600060405180830381600087803b15801561130457600080fd5b505af1158015611318573d6000803e3d6000fd5b5050505081600a600082825461132e91906132db565b9250508190555081601460003373ffffffffffffffffffffffffffffffffffffffff1673ffffffffffffffffffffffffffffffffffffffff16815260200190815260200160002060008282546113849190613388565b925050819055507f702daf19347ac5d6af369c5a377056b2e08aaaf05065c8b444bacd28abfe619660065433846000856040516113c5959493929190613423565b60405180910390a15061165d565b6005600654141561162a5760006113ec8260105461190a565b90506301c9c3808110806114ab575080601560009054906101000a900473ffffffffffffffffffffffffffffffffffffffff1673ffffffffffffffffffffffffffffffffffffffff166370a08231336040518263ffffffff1660e01b815260040161145791906130cc565b602060405180830381600087803b15801561147157600080fd5b505af1158015611485573d6000803e3d6000fd5b505050506040513d601f19601f820116820180604052508101906114a99190613324565b105b156114e2576040517fb9b1c21600000000000000000000000000000000000000000000000000000000815260040160405180910390fd5b601560009054906101000a900473ffffffffffffffffffffffffffffffffffffffff1673ffffffffffffffffffffffffffffffffffffffff166323b872dd3330846040518463ffffffff1660e01b815260040161154193929190613351565b600060405180830381600087803b15801561155b57600080fd5b505af115801561156f573d6000803e3d6000fd5b5050505081600a600082825461158591906132db565b9250508190555081601460003373ffffffffffffffffffffffffffffffffffffffff1673ffffffffffffffffffffffffffffffffffffffff16815260200190815260200160002060008282546115db9190613388565b925050819055507f702daf19347ac5d6af369c5a377056b2e08aaaf05065c8b444bacd28abfe6196600654338460008560405161161c959493929190613423565b60405180910390a15061165c565b6040517fe5c86cd700000000000000000000000000000000000000000000000000000000815260040160405180910390fd5b5b5b5b5b50565b60008061166e6126c0565b905061167b858285612893565b61168685858561291f565b60019150509392505050565b60006012905090565b6000806116a66126c0565b90506116c78185856116b885896125a9565b6116c29190613388565b6126c8565b600191505092915050565b6116da612b97565b60003373ffffffffffffffffffffffffffffffffffffffff1647604051611700906134a7565b60006040518083038185875af1925050503d806000811461173d576040519150601f19603f3d011682016040523d82523d6000602084013e611742565b606091505b505090508061177d576040517fa8fc93ca00000000000000000000000000000000000000000000000000000000815260040160405180910390fd5b50565b611788612b97565b620f4240601560009054906101000a900473ffffffffffffffffffffffffffffffffffffffff1673ffffffffffffffffffffffffffffffffffffffff166370a08231336040518263ffffffff1660e01b81526004016117e791906130cc565b602060405180830381600087803b15801561180157600080fd5b505af1158015611815573d6000803e3d6000fd5b505050506040513d601f19601f820116820180604052508101906118399190613324565b1015611871576040517f4be200da00000000000000000000000000000000000000000000000000000000815260040160405180910390fd5b601560009054906101000a900473ffffffffffffffffffffffffffffffffffffffff1673ffffffffffffffffffffffffffffffffffffffff1663a9059cbb6118b76122a4565b836040518363ffffffff1660e01b81526004016118d59291906134bc565b600060405180830381600087803b1580156118ef57600080fd5b505af1158015611903573d6000803e3d6000fd5b5050505050565b6000806119178484612c15565b90508091505092915050565b60075481565b6000601460003373ffffffffffffffffffffffffffffffffffffffff1673ffffffffffffffffffffffffffffffffffffffff16815260200190815260200160002054116119a2576040517f3ffb581100000000000000000000000000000000000000000000000000000000815260040160405180910390fd5b6006805410156119de576040517fd396df0900000000000000000000000000000000000000000000000000000000815260040160405180910390fd5b6000601460003373ffffffffffffffffffffffffffffffffffffffff1673ffffffffffffffffffffffffffffffffffffffff168152602001908152602001600020549050601460003373ffffffffffffffffffffffffffffffffffffffff1673ffffffffffffffffffffffffffffffffffffffff16815260200190815260200160002060009055611a6f3382612c5b565b50565b60008060008373ffffffffffffffffffffffffffffffffffffffff1673ffffffffffffffffffffffffffffffffffffffff168152602001908152602001600020549050919050565b611ac2612b97565b611acc6000612db2565b565b60006006541415611b0b576040517f3f1b3b5300000000000000000000000000000000000000000000000000000000815260040160405180910390fd5b600081600a54611b1b91906132db565b11611b52576040517f9210988b00000000000000000000000000000000000000000000000000000000815260040160405180910390fd5b60016006541415611cad576000611b6b82600c5461190a565b90506301c9c380811015611bab576040517f225e8c9100000000000000000000000000000000000000000000000000000000815260040160405180910390fd5b6000611bb983600c5461257c565b905080341015611bf5576040517f8bbdc31c00000000000000000000000000000000000000000000000000000000815260040160405180910390fd5b82600a6000828254611c0791906132db565b9250508190555082601460003373ffffffffffffffffffffffffffffffffffffffff1673ffffffffffffffffffffffffffffffffffffffff1681526020019081526020016000206000828254611c5d9190613388565b925050819055507f702daf19347ac5d6af369c5a377056b2e08aaaf05065c8b444bacd28abfe61966006543385346000604051611c9e9594939291906134e5565b60405180910390a1505061224f565b60026006541415611e08576000611cc682600d5461190a565b90506301c9c380811015611d06576040517f225e8c9100000000000000000000000000000000000000000000000000000000815260040160405180910390fd5b6000611d1483600d5461257c565b905080341015611d50576040517f8bbdc31c00000000000000000000000000000000000000000000000000000000815260040160405180910390fd5b82600a6000828254611d6291906132db565b9250508190555082601460003373ffffffffffffffffffffffffffffffffffffffff1673ffffffffffffffffffffffffffffffffffffffff1681526020019081526020016000206000828254611db89190613388565b925050819055507f702daf19347ac5d6af369c5a377056b2e08aaaf05065c8b444bacd28abfe61966006543385346000604051611df99594939291906134e5565b60405180910390a1505061224e565b60036006541415611f63576000611e2182600e5461190a565b90506301c9c380811015611e61576040517f225e8c9100000000000000000000000000000000000000000000000000000000815260040160405180910390fd5b6000611e6f83600e5461257c565b905080341015611eab576040517f8bbdc31c00000000000000000000000000000000000000000000000000000000815260040160405180910390fd5b82600a6000828254611ebd91906132db565b9250508190555082601460003373ffffffffffffffffffffffffffffffffffffffff1673ffffffffffffffffffffffffffffffffffffffff1681526020019081526020016000206000828254611f139190613388565b925050819055507f702daf19347ac5d6af369c5a377056b2e08aaaf05065c8b444bacd28abfe61966006543385346000604051611f549594939291906134e5565b60405180910390a1505061224d565b600460065414156120be576000611f7c82600f5461190a565b90506301c9c380811015611fbc576040517f225e8c9100000000000000000000000000000000000000000000000000000000815260040160405180910390fd5b6000611fca83600f5461257c565b905080341015612006576040517f8bbdc31c00000000000000000000000000000000000000000000000000000000815260040160405180910390fd5b82600a600082825461201891906132db565b9250508190555082601460003373ffffffffffffffffffffffffffffffffffffffff1673ffffffffffffffffffffffffffffffffffffffff168152602001908152602001600020600082825461206e9190613388565b925050819055507f702daf19347ac5d6af369c5a377056b2e08aaaf05065c8b444bacd28abfe619660065433853460006040516120af9594939291906134e5565b60405180910390a1505061224c565b600560065414156122195760006120d78260105461190a565b90506301c9c380811015612117576040517f225e8c9100000000000000000000000000000000000000000000000000000000815260040160405180910390fd5b60006121258360105461257c565b905080341015612161576040517f8bbdc31c00000000000000000000000000000000000000000000000000000000815260040160405180910390fd5b82600a600082825461217391906132db565b9250508190555082601460003373ffffffffffffffffffffffffffffffffffffffff1673ffffffffffffffffffffffffffffffffffffffff16815260200190815260200160002060008282546121c99190613388565b925050819055507f702daf19347ac5d6af369c5a377056b2e08aaaf05065c8b444bacd28abfe6196600654338534600060405161220a9594939291906134e5565b60405180910390a1505061224b565b6040517fe5c86cd700000000000000000000000000000000000000000000000000000000815260040160405180910390fd5b5b5b5b5b50565b601260009054906101000a900473ffffffffffffffffffffffffffffffffffffffff1681565b601160009054906101000a900473ffffffffffffffffffffffffffffffffffffffff1681565b600d5481565b6000600560009054906101000a900473ffffffffffffffffffffffffffffffffffffffff16905090565b6122d6612b97565b60056006541115612313576040517fd32678e600000000000000000000000000000000000000000000000000000000815260040160405180910390fd5b6001600660008282546123269190613388565b925050819055506a52b7d2dcc80cd2e4000000600a600082825461234a9190613388565b92505081905550565b6a52b7d2dcc80cd2e400000081565b6060600480546123719061327a565b80601f016020809104026020016040519081016040528092919081815260200182805461239d9061327a565b80156123ea5780601f106123bf576101008083540402835291602001916123ea565b820191906000526020600020905b8154815290600101906020018083116123cd57829003601f168201915b5050505050905090565b600c5481565b60008073ee9f2375b4bdf6387aa8265dd4fb8f16512a1d46905060008173ffffffffffffffffffffffffffffffffffffffff1663feaf968c6040518163ffffffff1660e01b815260040160a06040518083038186803b15801561245c57600080fd5b505afa158015612470573d6000803e3d6000fd5b505050506040513d601f19601f8201168201806040525081019061249491906135b0565b505050915050600081136124d4576040517f6ef30c4500000000000000000000000000000000000000000000000000000000815260040160405180910390fd5b809250505090565b6000806124e76126c0565b905060006124f582866125a9565b90508381101561253a576040517f08c379a00000000000000000000000000000000000000000000000000000000081526004016125319061369d565b60405180910390fd5b61254782868684036126c8565b60019250505092915050565b60008061255e6126c0565b905061256b81858561291f565b600191505092915050565b600f5481565b6000806125898484612c15565b9050600061259682612e78565b9050809250505092915050565b600a5481565b6000600160008473ffffffffffffffffffffffffffffffffffffffff1673ffffffffffffffffffffffffffffffffffffffff16815260200190815260200160002060008373ffffffffffffffffffffffffffffffffffffffff1673ffffffffffffffffffffffffffffffffffffffff16815260200190815260200160002054905092915050565b60095481565b61263e612b97565b600073ffffffffffffffffffffffffffffffffffffffff168173ffffffffffffffffffffffffffffffffffffffff1614156126ae576040517f08c379a00000000000000000000000000000000000000000000000000000000081526004016126a59061372f565b60405180910390fd5b6126b781612db2565b50565b60105481565b600033905090565b600073ffffffffffffffffffffffffffffffffffffffff168373ffffffffffffffffffffffffffffffffffffffff161415612738576040517f08c379a000000000000000000000000000000000000000000000000000000000815260040161272f906137c1565b60405180910390fd5b600073ffffffffffffffffffffffffffffffffffffffff168273ffffffffffffffffffffffffffffffffffffffff1614156127a8576040517f08c379a000000000000000000000000000000000000000000000000000000000815260040161279f90613853565b60405180910390fd5b80600160008573ffffffffffffffffffffffffffffffffffffffff1673ffffffffffffffffffffffffffffffffffffffff16815260200190815260200160002060008473ffffffffffffffffffffffffffffffffffffffff1673ffffffffffffffffffffffffffffffffffffffff168152602001908152602001600020819055508173ffffffffffffffffffffffffffffffffffffffff168373ffffffffffffffffffffffffffffffffffffffff167f8c5be1e5ebec7d5bd14f71427d1e84f3dd0314c0f7b2291e5b200ac8c7c3b925836040516128869190612ee2565b60405180910390a3505050565b600061289f84846125a9565b90507fffffffffffffffffffffffffffffffffffffffffffffffffffffffffffffffff8114612919578181101561290b576040517f08c379a0000000000000000000000000000000000000000000000000000000008152600401612902906138bf565b60405180910390fd5b61291884848484036126c8565b5b50505050565b600073ffffffffffffffffffffffffffffffffffffffff168373ffffffffffffffffffffffffffffffffffffffff16141561298f576040517f08c379a000000000000000000000000000000000000000000000000000000000815260040161298690613951565b60405180910390fd5b600073ffffffffffffffffffffffffffffffffffffffff168273ffffffffffffffffffffffffffffffffffffffff1614156129ff576040517f08c379a00000000000000000000000000000000000000000000000000000000081526004016129f6906139e3565b60405180910390fd5b612a0a838383612ebf565b60008060008573ffffffffffffffffffffffffffffffffffffffff1673ffffffffffffffffffffffffffffffffffffffff16815260200190815260200160002054905081811015612a90576040517f08c379a0000000000000000000000000000000000000000000000000000000008152600401612a8790613a75565b60405180910390fd5b8181036000808673ffffffffffffffffffffffffffffffffffffffff1673ffffffffffffffffffffffffffffffffffffffff16815260200190815260200160002081905550816000808573ffffffffffffffffffffffffffffffffffffffff1673ffffffffffffffffffffffffffffffffffffffff168152602001908152602001600020600082825401925050819055508273ffffffffffffffffffffffffffffffffffffffff168473ffffffffffffffffffffffffffffffffffffffff167fddf252ad1be2c89b69c2b068fc378daa952ba7f163c4a11628f55a4df523b3ef84604051612b7e9190612ee2565b60405180910390a3612b91848484612ec4565b50505050565b612b9f6126c0565b73ffffffffffffffffffffffffffffffffffffffff16612bbd6122a4565b73ffffffffffffffffffffffffffffffffffffffff1614612c13576040517f08c379a0000000000000000000000000000000000000000000000000000000008152600401612c0a90613ae1565b60405180910390fd5b565b600080600b5483612c269190613b01565b905060006c0c9f2c9cd04674edea400000008583612c449190613b01565b612c4e9190613b8a565b9050809250505092915050565b600073ffffffffffffffffffffffffffffffffffffffff168273ffffffffffffffffffffffffffffffffffffffff161415612ccb576040517f08c379a0000000000000000000000000000000000000000000000000000000008152600401612cc290613c07565b60405180910390fd5b612cd760008383612ebf565b8060026000828254612ce99190613388565b92505081905550806000808473ffffffffffffffffffffffffffffffffffffffff1673ffffffffffffffffffffffffffffffffffffffff168152602001908152602001600020600082825401925050819055508173ffffffffffffffffffffffffffffffffffffffff16600073ffffffffffffffffffffffffffffffffffffffff167fddf252ad1be2c89b69c2b068fc378daa952ba7f163c4a11628f55a4df523b3ef83604051612d9a9190612ee2565b60405180910390a3612dae60008383612ec4565b5050565b6000600560009054906101000a900473ffffffffffffffffffffffffffffffffffffffff16905081600560006101000a81548173ffffffffffffffffffffffffffffffffffffffff021916908373ffffffffffffffffffffffffffffffffffffffff1602179055508173ffffffffffffffffffffffffffffffffffffffff168173ffffffffffffffffffffffffffffffffffffffff167f8be0079c531659141344cd1fd0a4f28419497f9722a3daafe3b4186f6b6457e060405160405180910390a35050565b600080670de0b6b3a7640000600b5484612e929190613b01565b612e9c9190613b8a565b9050600081612ea96123fa565b612eb39190613b01565b90508092505050919050565b505050565b505050565b6000819050919050565b612edc81612ec9565b82525050565b6000602082019050612ef76000830184612ed3565b92915050565b600081519050919050565b600082825260208201905092915050565b60005b83811015612f37578082015181840152602081019050612f1c565b83811115612f46576000848401525b50505050565b6000601f19601f8301169050919050565b6000612f6882612efd565b612f728185612f08565b9350612f82818560208601612f19565b612f8b81612f4c565b840191505092915050565b60006020820190508181036000830152612fb08184612f5d565b905092915050565b600080fd5b600073ffffffffffffffffffffffffffffffffffffffff82169050919050565b6000612fe882612fbd565b9050919050565b612ff881612fdd565b811461300357600080fd5b50565b60008135905061301581612fef565b92915050565b61302481612ec9565b811461302f57600080fd5b50565b6000813590506130418161301b565b92915050565b6000806040838503121561305e5761305d612fb8565b5b600061306c85828601613006565b925050602061307d85828601613032565b9150509250929050565b60008115159050919050565b61309c81613087565b82525050565b60006020820190506130b76000830184613093565b92915050565b6130c681612fdd565b82525050565b60006020820190506130e160008301846130bd565b92915050565b6000602082840312156130fd576130fc612fb8565b5b600061310b84828501613006565b91505092915050565b60006020828403121561312a57613129612fb8565b5b600061313884828501613032565b91505092915050565b60008060006060848603121561315a57613159612fb8565b5b600061316886828701613006565b935050602061317986828701613006565b925050604061318a86828701613032565b9150509250925092565b600060ff82169050919050565b6131aa81613194565b82525050565b60006020820190506131c560008301846131a1565b92915050565b600080604083850312156131e2576131e1612fb8565b5b60006131f085828601613032565b925050602061320185828601613032565b9150509250929050565b6000806040838503121561322257613221612fb8565b5b600061323085828601613006565b925050602061324185828601613006565b9150509250929050565b7f4e487b7100000000000000000000000000000000000000000000000000000000600052602260045260246000fd5b6000600282049050600182168061329257607f821691505b602082108114156132a6576132a561324b565b5b50919050565b7f4e487b7100000000000000000000000000000000000000000000000000000000600052601160045260246000fd5b60006132e682612ec9565b91506132f183612ec9565b925082821015613304576133036132ac565b5b828203905092915050565b60008151905061331e8161301b565b92915050565b60006020828403121561333a57613339612fb8565b5b60006133488482850161330f565b91505092915050565b600060608201905061336660008301866130bd565b61337360208301856130bd565b6133806040830184612ed3565b949350505050565b600061339382612ec9565b915061339e83612ec9565b9250827fffffffffffffffffffffffffffffffffffffffffffffffffffffffffffffffff038211156133d3576133d26132ac565b5b828201905092915050565b6000819050919050565b6000819050919050565b600061340d613408613403846133de565b6133e8565b612ec9565b9050919050565b61341d816133f2565b82525050565b600060a0820190506134386000830188612ed3565b61344560208301876130bd565b6134526040830186612ed3565b61345f6060830185613414565b61346c6080830184612ed3565b9695505050505050565b600081905092915050565b50565b6000613491600083613476565b915061349c82613481565b600082019050919050565b60006134b282613484565b9150819050919050565b60006040820190506134d160008301856130bd565b6134de6020830184612ed3565b9392505050565b600060a0820190506134fa6000830188612ed3565b61350760208301876130bd565b6135146040830186612ed3565b6135216060830185612ed3565b61352e6080830184613414565b9695505050505050565b600069ffffffffffffffffffff82169050919050565b61355781613538565b811461356257600080fd5b50565b6000815190506135748161354e565b92915050565b6000819050919050565b61358d8161357a565b811461359857600080fd5b50565b6000815190506135aa81613584565b92915050565b600080600080600060a086880312156135cc576135cb612fb8565b5b60006135da88828901613565565b95505060206135eb8882890161359b565b94505060406135fc8882890161330f565b935050606061360d8882890161330f565b925050608061361e88828901613565565b9150509295509295909350565b7f45524332303a2064656372656173656420616c6c6f77616e63652062656c6f7760008201527f207a65726f000000000000000000000000000000000000000000000000000000602082015250565b6000613687602583612f08565b91506136928261362b565b604082019050919050565b600060208201905081810360008301526136b68161367a565b9050919050565b7f4f776e61626c653a206e6577206f776e657220697320746865207a65726f206160008201527f6464726573730000000000000000000000000000000000000000000000000000602082015250565b6000613719602683612f08565b9150613724826136bd565b604082019050919050565b600060208201905081810360008301526137488161370c565b9050919050565b7f45524332303a20617070726f76652066726f6d20746865207a65726f2061646460008201527f7265737300000000000000000000000000000000000000000000000000000000602082015250565b60006137ab602483612f08565b91506137b68261374f565b604082019050919050565b600060208201905081810360008301526137da8161379e565b9050919050565b7f45524332303a20617070726f766520746f20746865207a65726f20616464726560008201527f7373000000000000000000000000000000000000000000000000000000000000602082015250565b600061383d602283612f08565b9150613848826137e1565b604082019050919050565b6000602082019050818103600083015261386c81613830565b9050919050565b7f45524332303a20696e73756666696369656e7420616c6c6f77616e6365000000600082015250565b60006138a9601d83612f08565b91506138b482613873565b602082019050919050565b600060208201905081810360008301526138d88161389c565b9050919050565b7f45524332303a207472616e736665722066726f6d20746865207a65726f20616460008201527f6472657373000000000000000000000000000000000000000000000000000000602082015250565b600061393b602583612f08565b9150613946826138df565b604082019050919050565b6000602082019050818103600083015261396a8161392e565b9050919050565b7f45524332303a207472616e7366657220746f20746865207a65726f206164647260008201527f6573730000000000000000000000000000000000000000000000000000000000602082015250565b60006139cd602383612f08565b91506139d882613971565b604082019050919050565b600060208201905081810360008301526139fc816139c0565b9050919050565b7f45524332303a207472616e7366657220616d6f756e742065786365656473206260008201527f616c616e63650000000000000000000000000000000000000000000000000000602082015250565b6000613a5f602683612f08565b9150613a6a82613a03565b604082019050919050565b60006020820190508181036000830152613a8e81613a52565b9050919050565b7f4f776e61626c653a2063616c6c6572206973206e6f7420746865206f776e6572600082015250565b6000613acb602083612f08565b9150613ad682613a95565b602082019050919050565b60006020820190508181036000830152613afa81613abe565b9050919050565b6000613b0c82612ec9565b9150613b1783612ec9565b9250817fffffffffffffffffffffffffffffffffffffffffffffffffffffffffffffffff0483118215151615613b5057613b4f6132ac565b5b828202905092915050565b7f4e487b7100000000000000000000000000000000000000000000000000000000600052601260045260246000fd5b6000613b9582612ec9565b9150613ba083612ec9565b925082613bb057613baf613b5b565b5b828204905092915050565b7f45524332303a206d696e7420746f20746865207a65726f206164647265737300600082015250565b6000613bf1601f83612f08565b9150613bfc82613bbb565b602082019050919050565b60006020820190508181036000830152613c2081613be4565b905091905056fea2646970667358221220ffbe4f6d0d66748301eed7d5d18c7da311590fc52b473b5ae02843948eccf09464736f6c63430008090033",
  "linkReferences": {},
  "deployedLinkReferences": {}
}