{
  "_format": "hh-sol-artifact-1",
  "contractName": "AIMToken",
  "sourceName": "contracts/AIMToken.sol",
  "abi": [
    {
      "inputs": [],
      "stateMutability": "nonpayable",
      "type": "constructor"
    },
    {
      "inputs": [],
      "name": "allRoundsAreFinished",
      "type": "error"
    },
    {
      "inputs": [],
      "name": "contractDontHaveUSDT",
      "type": "error"
    },
    {
      "inputs": [],
      "name": "invalidUSDTPrice",
      "type": "error"
    },
    {
      "inputs": [],
      "name": "mintingIsNotAllowed",
      "type": "error"
    },
    {
      "inputs": [],
      "name": "pleasePurchaseMorethan30Doller",
      "type": "error"
    },
    {
      "inputs": [],
      "name": "pleaseSendTokenPrice",
      "type": "error"
    },
    {
      "inputs": [],
      "name": "pleaseWaitForPreSaleEnd",
      "type": "error"
    },
    {
      "inputs": [],
      "name": "roundSupplyLimitExceed",
      "type": "error"
    },
    {
      "inputs": [],
      "name": "transferFaild",
      "type": "error"
    },
    {
      "inputs": [],
      "name": "waitForStartingSaleRoud",
      "type": "error"
    },
    {
      "inputs": [],
      "name": "youDontHaveEnoughTokens",
      "type": "error"
    },
    {
      "inputs": [],
      "name": "youDontHaveEnoughUsdtORplasePurchaseMorethan30UsdtToken",
      "type": "error"
    },
    {
      "anonymous": false,
      "inputs": [
        {
          "indexed": true,
          "internalType": "address",
          "name": "owner",
          "type": "address"
        },
        {
          "indexed": true,
          "internalType": "address",
          "name": "spender",
          "type": "address"
        },
        {
          "indexed": false,
          "internalType": "uint256",
          "name": "value",
          "type": "uint256"
        }
      ],
      "name": "Approval",
      "type": "event"
    },
    {
      "anonymous": false,
      "inputs": [
        {
          "indexed": true,
          "internalType": "address",
          "name": "previousOwner",
          "type": "address"
        },
        {
          "indexed": true,
          "internalType": "address",
          "name": "newOwner",
          "type": "address"
        }
      ],
      "name": "OwnershipTransferred",
      "type": "event"
    },
    {
      "anonymous": false,
      "inputs": [
        {
          "indexed": false,
          "internalType": "uint256",
          "name": "_round",
          "type": "uint256"
        },
        {
          "indexed": false,
          "internalType": "address",
          "name": "_user",
          "type": "address"
        },
        {
          "indexed": false,
          "internalType": "uint256",
          "name": "_soldToken",
          "type": "uint256"
        },
        {
          "indexed": false,
          "internalType": "uint256",
          "name": "_BuywithEth",
          "type": "uint256"
        },
        {
          "indexed": false,
          "internalType": "uint256",
          "name": "_BuywithUSDT",
          "type": "uint256"
        }
      ],
      "name": "RoundData",
      "type": "event"
    },
    {
      "anonymous": false,
      "inputs": [
        {
          "indexed": true,
          "internalType": "address",
          "name": "from",
          "type": "address"
        },
        {
          "indexed": true,
          "internalType": "address",
          "name": "to",
          "type": "address"
        },
        {
          "indexed": false,
          "internalType": "uint256",
          "name": "value",
          "type": "uint256"
        }
      ],
      "name": "Transfer",
      "type": "event"
    },
    {
      "inputs": [
        {
          "internalType": "address",
          "name": "owner",
          "type": "address"
        },
        {
          "internalType": "address",
          "name": "spender",
          "type": "address"
        }
      ],
      "name": "allowance",
      "outputs": [
        {
          "internalType": "uint256",
          "name": "",
          "type": "uint256"
        }
      ],
      "stateMutability": "view",
      "type": "function"
    },
    {
      "inputs": [
        {
          "internalType": "address",
          "name": "spender",
          "type": "address"
        },
        {
          "internalType": "uint256",
          "name": "amount",
          "type": "uint256"
        }
      ],
      "name": "approve",
      "outputs": [
        {
          "internalType": "bool",
          "name": "",
          "type": "bool"
        }
      ],
      "stateMutability": "nonpayable",
      "type": "function"
    },
    {
      "inputs": [
        {
          "internalType": "address",
          "name": "account",
          "type": "address"
        }
      ],
      "name": "balanceOf",
      "outputs": [
        {
          "internalType": "uint256",
          "name": "",
          "type": "uint256"
        }
      ],
      "stateMutability": "view",
      "type": "function"
    },
    {
      "inputs": [],
      "name": "claimAIMToken",
      "outputs": [],
      "stateMutability": "nonpayable",
      "type": "function"
    },
    {
      "inputs": [],
      "name": "decimals",
      "outputs": [
        {
          "internalType": "uint8",
          "name": "",
          "type": "uint8"
        }
      ],
      "stateMutability": "view",
      "type": "function"
    },
    {
      "inputs": [
        {
          "internalType": "address",
          "name": "spender",
          "type": "address"
        },
        {
          "internalType": "uint256",
          "name": "subtractedValue",
          "type": "uint256"
        }
      ],
      "name": "decreaseAllowance",
      "outputs": [
        {
          "internalType": "bool",
          "name": "",
          "type": "bool"
        }
      ],
      "stateMutability": "nonpayable",
      "type": "function"
    },
    {
      "inputs": [],
      "name": "exchangeTokens",
      "outputs": [
        {
          "internalType": "uint256",
          "name": "",
          "type": "uint256"
        }
      ],
      "stateMutability": "view",
      "type": "function"
    },
    {
      "inputs": [],
      "name": "exchangeTokensWallet",
      "outputs": [
        {
          "internalType": "address",
          "name": "",
          "type": "address"
        }
      ],
      "stateMutability": "view",
      "type": "function"
    },
    {
      "inputs": [],
      "name": "getLatestUSDTPrice",
      "outputs": [
        {
          "internalType": "uint256",
          "name": "",
          "type": "uint256"
        }
      ],
      "stateMutability": "view",
      "type": "function"
    },
    {
      "inputs": [
        {
          "internalType": "address",
          "name": "spender",
          "type": "address"
        },
        {
          "internalType": "uint256",
          "name": "addedValue",
          "type": "uint256"
        }
      ],
      "name": "increaseAllowance",
      "outputs": [
        {
          "internalType": "bool",
          "name": "",
          "type": "bool"
        }
      ],
      "stateMutability": "nonpayable",
      "type": "function"
    },
    {
      "inputs": [],
      "name": "liquidityTokens",
      "outputs": [
        {
          "internalType": "uint256",
          "name": "",
          "type": "uint256"
        }
      ],
      "stateMutability": "view",
      "type": "function"
    },
    {
      "inputs": [],
      "name": "liquidityTokensWallet",
      "outputs": [
        {
          "internalType": "address",
          "name": "",
          "type": "address"
        }
      ],
      "stateMutability": "view",
      "type": "function"
    },
    {
      "inputs": [
        {
          "internalType": "uint256",
          "name": "_amount",
          "type": "uint256"
        }
      ],
      "name": "mintByEth",
      "outputs": [],
      "stateMutability": "payable",
      "type": "function"
    },
    {
      "inputs": [
        {
          "internalType": "uint256",
          "name": "_amount",
          "type": "uint256"
        }
      ],
      "name": "mintByUSDT",
      "outputs": [],
      "stateMutability": "nonpayable",
      "type": "function"
    },
    {
      "inputs": [],
      "name": "name",
      "outputs": [
        {
          "internalType": "string",
          "name": "",
          "type": "string"
        }
      ],
      "stateMutability": "view",
      "type": "function"
    },
    {
      "inputs": [],
      "name": "owner",
      "outputs": [
        {
          "internalType": "address",
          "name": "",
          "type": "address"
        }
      ],
      "stateMutability": "view",
      "type": "function"
    },
    {
      "inputs": [],
      "name": "raisedAmount",
      "outputs": [
        {
          "internalType": "uint256",
          "name": "",
          "type": "uint256"
        }
      ],
      "stateMutability": "view",
      "type": "function"
    },
    {
      "inputs": [],
      "name": "remainingSupply",
      "outputs": [
        {
          "internalType": "uint256",
          "name": "",
          "type": "uint256"
        }
      ],
      "stateMutability": "view",
      "type": "function"
    },
    {
      "inputs": [],
      "name": "renounceOwnership",
      "outputs": [],
      "stateMutability": "nonpayable",
      "type": "function"
    },
    {
      "inputs": [],
      "name": "round",
      "outputs": [
        {
          "internalType": "uint256",
          "name": "",
          "type": "uint256"
        }
      ],
      "stateMutability": "view",
      "type": "function"
    },
    {
      "inputs": [],
      "name": "round1Price",
      "outputs": [
        {
          "internalType": "uint256",
          "name": "",
          "type": "uint256"
        }
      ],
      "stateMutability": "view",
      "type": "function"
    },
    {
      "inputs": [],
      "name": "round2Price",
      "outputs": [
        {
          "internalType": "uint256",
          "name": "",
          "type": "uint256"
        }
      ],
      "stateMutability": "view",
      "type": "function"
    },
    {
      "inputs": [],
      "name": "round3Price",
      "outputs": [
        {
          "internalType": "uint256",
          "name": "",
          "type": "uint256"
        }
      ],
      "stateMutability": "view",
      "type": "function"
    },
    {
      "inputs": [],
      "name": "round4Price",
      "outputs": [
        {
          "internalType": "uint256",
          "name": "",
          "type": "uint256"
        }
      ],
      "stateMutability": "view",
      "type": "function"
    },
    {
      "inputs": [],
      "name": "round5Price",
      "outputs": [
        {
          "internalType": "uint256",
          "name": "",
          "type": "uint256"
        }
      ],
      "stateMutability": "view",
      "type": "function"
    },
    {
      "inputs": [],
      "name": "roundLimit",
      "outputs": [
        {
          "internalType": "uint256",
          "name": "",
          "type": "uint256"
        }
      ],
      "stateMutability": "view",
      "type": "function"
    },
    {
      "inputs": [
        {
          "internalType": "uint256",
          "name": "_amount",
          "type": "uint256"
        },
        {
          "internalType": "uint256",
          "name": "_roundPrice",
          "type": "uint256"
        }
      ],
      "name": "sellTokenInETHPrice",
      "outputs": [
        {
          "internalType": "uint256",
          "name": "",
          "type": "uint256"
        }
      ],
      "stateMutability": "view",
      "type": "function"
    },
    {
      "inputs": [
        {
          "internalType": "uint256",
          "name": "_amount",
          "type": "uint256"
        },
        {
          "internalType": "uint256",
          "name": "_roundPrice",
          "type": "uint256"
        }
      ],
      "name": "sellTokenInUDSTPrice",
      "outputs": [
        {
          "internalType": "uint256",
          "name": "",
          "type": "uint256"
        }
      ],
      "stateMutability": "view",
      "type": "function"
    },
    {
      "inputs": [
        {
          "internalType": "address",
          "name": "",
          "type": "address"
        }
      ],
      "name": "soldTokens",
      "outputs": [
        {
          "internalType": "uint256",
          "name": "",
          "type": "uint256"
        }
      ],
      "stateMutability": "view",
      "type": "function"
    },
    {
      "inputs": [],
      "name": "stakeholdersTokens",
      "outputs": [
        {
          "internalType": "uint256",
          "name": "",
          "type": "uint256"
        }
      ],
      "stateMutability": "view",
      "type": "function"
    },
    {
      "inputs": [],
      "name": "stakeholdersTokensWallet",
      "outputs": [
        {
          "internalType": "address",
          "name": "",
          "type": "address"
        }
      ],
      "stateMutability": "view",
      "type": "function"
    },
    {
      "inputs": [],
      "name": "startTheSale",
      "outputs": [],
      "stateMutability": "nonpayable",
      "type": "function"
    },
    {
      "inputs": [],
      "name": "symbol",
      "outputs": [
        {
          "internalType": "string",
          "name": "",
          "type": "string"
        }
      ],
      "stateMutability": "view",
      "type": "function"
    },
    {
      "inputs": [],
      "name": "totalSupply",
      "outputs": [
        {
          "internalType": "uint256",
          "name": "",
          "type": "uint256"
        }
      ],
      "stateMutability": "pure",
      "type": "function"
    },
    {
      "inputs": [
        {
          "internalType": "address",
          "name": "to",
          "type": "address"
        },
        {
          "internalType": "uint256",
          "name": "amount",
          "type": "uint256"
        }
      ],
      "name": "transfer",
      "outputs": [
        {
          "internalType": "bool",
          "name": "",
          "type": "bool"
        }
      ],
      "stateMutability": "nonpayable",
      "type": "function"
    },
    {
      "inputs": [
        {
          "internalType": "address",
          "name": "from",
          "type": "address"
        },
        {
          "internalType": "address",
          "name": "to",
          "type": "address"
        },
        {
          "internalType": "uint256",
          "name": "amount",
          "type": "uint256"
        }
      ],
      "name": "transferFrom",
      "outputs": [
        {
          "internalType": "bool",
          "name": "",
          "type": "bool"
        }
      ],
      "stateMutability": "nonpayable",
      "type": "function"
    },
    {
      "inputs": [
        {
          "internalType": "address",
          "name": "newOwner",
          "type": "address"
        }
      ],
      "name": "transferOwnership",
      "outputs": [],
      "stateMutability": "nonpayable",
      "type": "function"
    },
    {
      "inputs": [],
      "name": "withdraw",
      "outputs": [],
      "stateMutability": "nonpayable",
      "type": "function"
    },
    {
      "inputs": [
        {
          "internalType": "uint256",
          "name": "_amount",
          "type": "uint256"
        }
      ],
      "name": "withdrawUSDT",
      "outputs": [],
      "stateMutability": "nonpayable",
      "type": "function"
    }
  ],
  "bytecode": "0x60806040526a52b7d2dcc80cd2e40000006008556aa56fa5b99019a5c80000006009556aa56fa5b99019a5c8000000600a5564e8d4a51000600c55611388600d55612710600e55614e20600f55619c40601055620138806011553480156200006657600080fd5b506040518060400160405280600881526020017f41494d546f6b656e0000000000000000000000000000000000000000000000008152506040518060400160405280600381526020017f41494d00000000000000000000000000000000000000000000000000000000008152508160039080519060200190620000eb92919062000569565b5080600490805190602001906200010492919062000569565b505050620001276200011b6200032360201b60201c565b6200032b60201b60201c565b731ed5c3cc9a3379b757d9056de8f75bdf9b1ca17a601360006101000a81548173ffffffffffffffffffffffffffffffffffffffff021916908373ffffffffffffffffffffffffffffffffffffffff160217905550731ed5c3cc9a3379b757d9056de8f75bdf9b1ca17a601260006101000a81548173ffffffffffffffffffffffffffffffffffffffff021916908373ffffffffffffffffffffffffffffffffffffffff160217905550731ed5c3cc9a3379b757d9056de8f75bdf9b1ca17a601460006101000a81548173ffffffffffffffffffffffffffffffffffffffff021916908373ffffffffffffffffffffffffffffffffffffffff1602179055506200025c601360009054906101000a900473ffffffffffffffffffffffffffffffffffffffff16600954620003f160201b60201c565b62000292601260009054906101000a900473ffffffffffffffffffffffffffffffffffffffff16600854620003f160201b60201c565b620002c8601460009054906101000a900473ffffffffffffffffffffffffffffffffffffffff16600a54620003f160201b60201c565b7314edad7784360b622e9f284ffb314216de14cb0a601660006101000a81548173ffffffffffffffffffffffffffffffffffffffff021916908373ffffffffffffffffffffffffffffffffffffffff160217905550620007c5565b600033905090565b6000600560009054906101000a900473ffffffffffffffffffffffffffffffffffffffff16905081600560006101000a81548173ffffffffffffffffffffffffffffffffffffffff021916908373ffffffffffffffffffffffffffffffffffffffff1602179055508173ffffffffffffffffffffffffffffffffffffffff168173ffffffffffffffffffffffffffffffffffffffff167f8be0079c531659141344cd1fd0a4f28419497f9722a3daafe3b4186f6b6457e060405160405180910390a35050565b600073ffffffffffffffffffffffffffffffffffffffff168273ffffffffffffffffffffffffffffffffffffffff16141562000464576040517f08c379a00000000000000000000000000000000000000000000000000000000081526004016200045b906200067a565b60405180910390fd5b62000478600083836200055f60201b60201c565b80600260008282546200048c9190620006d5565b92505081905550806000808473ffffffffffffffffffffffffffffffffffffffff1673ffffffffffffffffffffffffffffffffffffffff168152602001908152602001600020600082825401925050819055508173ffffffffffffffffffffffffffffffffffffffff16600073ffffffffffffffffffffffffffffffffffffffff167fddf252ad1be2c89b69c2b068fc378daa952ba7f163c4a11628f55a4df523b3ef836040516200053f919062000743565b60405180910390a36200055b600083836200056460201b60201c565b5050565b505050565b505050565b82805462000577906200078f565b90600052602060002090601f0160209004810192826200059b5760008555620005e7565b82601f10620005b657805160ff1916838001178555620005e7565b82800160010185558215620005e7579182015b82811115620005e6578251825591602001919060010190620005c9565b5b509050620005f69190620005fa565b5090565b5b8082111562000615576000816000905550600101620005fb565b5090565b600082825260208201905092915050565b7f45524332303a206d696e7420746f20746865207a65726f206164647265737300600082015250565b600062000662601f8362000619565b91506200066f826200062a565b602082019050919050565b60006020820190508181036000830152620006958162000653565b9050919050565b6000819050919050565b7f4e487b7100000000000000000000000000000000000000000000000000000000600052601160045260246000fd5b6000620006e2826200069c565b9150620006ef836200069c565b9250827fffffffffffffffffffffffffffffffffffffffffffffffffffffffffffffffff03821115620007275762000726620006a6565b5b828201905092915050565b6200073d816200069c565b82525050565b60006020820190506200075a600083018462000732565b92915050565b7f4e487b7100000000000000000000000000000000000000000000000000000000600052602260045260246000fd5b60006002820490506001821680620007a857607f821691505b60208210811415620007bf57620007be62000760565b5b50919050565b613dbc80620007d56000396000f3fe60806040526004361061022f5760003560e01c806377186fba1161012e578063a457c2d7116100ab578063da0239a61161006f578063da0239a614610829578063dd62ed3e14610854578063e167dbca14610891578063f2fde38b146108bc578063f497f6ca146108e55761022f565b8063a457c2d71461071c578063a9059cbb14610759578063b1272af014610796578063ba0dc0cd146107c1578063c59ee1dc146107fe5761022f565b80638de2637b116100f25780638de2637b14610659578063949f26421461067057806395d89b411461069b57806396578879146106c657806398dd36bf146106f15761022f565b806377186fba146105915780637a8c2ffe146105ad5780638182567a146105d857806389d454af146106035780638da5cb5b1461062e5761022f565b806323b872dd116101bc5780634184bcce116101805780634184bcce146104be5780634b8ce602146104fb5780636aab41df1461052657806370a082311461053d578063715018a61461057a5761022f565b806323b872dd146103d9578063313ce5671461041657806339509351146104415780633ccfd60b1461047e5780633ea521ef146104955761022f565b806314032c2b1161020357806314032c2b146102f2578063146ca5311461031d57806318160ddd1461034857806319617e34146103735780632342583b146103b05761022f565b8062b39c6a14610234578063017309431461025f57806306fdde031461028a578063095ea7b3146102b5575b600080fd5b34801561024057600080fd5b50610249610910565b6040516102569190613041565b60405180910390f35b34801561026b57600080fd5b50610274610916565b6040516102819190613041565b60405180910390f35b34801561029657600080fd5b5061029f61091c565b6040516102ac91906130f5565b60405180910390f35b3480156102c157600080fd5b506102dc60048036038101906102d791906131a6565b6109ae565b6040516102e99190613201565b60405180910390f35b3480156102fe57600080fd5b506103076109d1565b604051610314919061322b565b60405180910390f35b34801561032957600080fd5b506103326109f7565b60405161033f9190613041565b60405180910390f35b34801561035457600080fd5b5061035d6109fd565b60405161036a9190613041565b60405180910390f35b34801561037f57600080fd5b5061039a60048036038101906103959190613246565b610a11565b6040516103a79190613041565b60405180910390f35b3480156103bc57600080fd5b506103d760048036038101906103d29190613273565b610a29565b005b3480156103e557600080fd5b5061040060048036038101906103fb91906132a0565b611717565b60405161040d9190613201565b60405180910390f35b34801561042257600080fd5b5061042b611746565b604051610438919061330f565b60405180910390f35b34801561044d57600080fd5b50610468600480360381019061046391906131a6565b61174f565b6040516104759190613201565b60405180910390f35b34801561048a57600080fd5b50610493611786565b005b3480156104a157600080fd5b506104bc60048036038101906104b79190613273565b611834565b005b3480156104ca57600080fd5b506104e560048036038101906104e0919061332a565b6119d7565b6040516104f29190613041565b60405180910390f35b34801561050757600080fd5b506105106119f0565b60405161051d9190613041565b60405180910390f35b34801561053257600080fd5b5061053b6119f6565b005b34801561054957600080fd5b50610564600480360381019061055f9190613246565b611b3f565b6040516105719190613041565b60405180910390f35b34801561058657600080fd5b5061058f611b87565b005b6105ab60048036038101906105a69190613273565b611b9b565b005b3480156105b957600080fd5b506105c2612398565b6040516105cf919061322b565b60405180910390f35b3480156105e457600080fd5b506105ed6123be565b6040516105fa919061322b565b60405180910390f35b34801561060f57600080fd5b506106186123e4565b6040516106259190613041565b60405180910390f35b34801561063a57600080fd5b506106436123ea565b604051610650919061322b565b60405180910390f35b34801561066557600080fd5b5061066e612414565b005b34801561067c57600080fd5b506106856124ac565b6040516106929190613041565b60405180910390f35b3480156106a757600080fd5b506106b06124bb565b6040516106bd91906130f5565b60405180910390f35b3480156106d257600080fd5b506106db61254d565b6040516106e89190613041565b60405180910390f35b3480156106fd57600080fd5b50610706612553565b6040516107139190613041565b60405180910390f35b34801561072857600080fd5b50610743600480360381019061073e91906131a6565b612635565b6040516107509190613201565b60405180910390f35b34801561076557600080fd5b50610780600480360381019061077b91906131a6565b6126ac565b60405161078d9190613201565b60405180910390f35b3480156107a257600080fd5b506107ab6126cf565b6040516107b89190613041565b60405180910390f35b3480156107cd57600080fd5b506107e860048036038101906107e3919061332a565b6126d5565b6040516107f59190613041565b60405180910390f35b34801561080a57600080fd5b506108136126fc565b6040516108209190613041565b60405180910390f35b34801561083557600080fd5b5061083e612702565b60405161084b9190613041565b60405180910390f35b34801561086057600080fd5b5061087b6004803603810190610876919061336a565b612708565b6040516108889190613041565b60405180910390f35b34801561089d57600080fd5b506108a661278f565b6040516108b39190613041565b60405180910390f35b3480156108c857600080fd5b506108e360048036038101906108de9190613246565b612795565b005b3480156108f157600080fd5b506108fa612819565b6040516109079190613041565b60405180910390f35b600f5481565b60095481565b60606003805461092b906133d9565b80601f0160208091040260200160405190810160405280929190818152602001828054610957906133d9565b80156109a45780601f10610979576101008083540402835291602001916109a4565b820191906000526020600020905b81548152906001019060200180831161098757829003601f168201915b5050505050905090565b6000806109b961281f565b90506109c6818585612827565b600191505092915050565b601460009054906101000a900473ffffffffffffffffffffffffffffffffffffffff1681565b60065481565b60006b033b2e3c9fd0803ce8000000905090565b60156020528060005260406000206000915090505481565b60006006541415610a66576040517f3f1b3b5300000000000000000000000000000000000000000000000000000000815260040160405180910390fd5b600081600b54610a76919061343a565b1015610aae576040517f9210988b00000000000000000000000000000000000000000000000000000000815260040160405180910390fd5b60016006541415610d1e576000610ac782600d546119d7565b90506301c9c380811080610b86575080601660009054906101000a900473ffffffffffffffffffffffffffffffffffffffff1673ffffffffffffffffffffffffffffffffffffffff166370a08231336040518263ffffffff1660e01b8152600401610b32919061322b565b602060405180830381600087803b158015610b4c57600080fd5b505af1158015610b60573d6000803e3d6000fd5b505050506040513d601f19601f82011682018060405250810190610b849190613483565b105b15610bbd576040517fb9b1c21600000000000000000000000000000000000000000000000000000000815260040160405180910390fd5b601660009054906101000a900473ffffffffffffffffffffffffffffffffffffffff1673ffffffffffffffffffffffffffffffffffffffff166323b872dd3330846040518463ffffffff1660e01b8152600401610c1c939291906134b0565b600060405180830381600087803b158015610c3657600080fd5b505af1158015610c4a573d6000803e3d6000fd5b5050505081600b6000828254610c60919061343a565b9250508190555081601560003373ffffffffffffffffffffffffffffffffffffffff1673ffffffffffffffffffffffffffffffffffffffff1681526020019081526020016000206000828254610cb691906134e7565b925050819055508060076000828254610ccf91906134e7565b925050819055507f702daf19347ac5d6af369c5a377056b2e08aaaf05065c8b444bacd28abfe61966006543384600085604051610d10959493929190613582565b60405180910390a150611714565b60026006541415610f8e576000610d3782600e546119d7565b90506301c9c380811080610df6575080601660009054906101000a900473ffffffffffffffffffffffffffffffffffffffff1673ffffffffffffffffffffffffffffffffffffffff166370a08231336040518263ffffffff1660e01b8152600401610da2919061322b565b602060405180830381600087803b158015610dbc57600080fd5b505af1158015610dd0573d6000803e3d6000fd5b505050506040513d601f19601f82011682018060405250810190610df49190613483565b105b15610e2d576040517fb9b1c21600000000000000000000000000000000000000000000000000000000815260040160405180910390fd5b601660009054906101000a900473ffffffffffffffffffffffffffffffffffffffff1673ffffffffffffffffffffffffffffffffffffffff166323b872dd3330846040518463ffffffff1660e01b8152600401610e8c939291906134b0565b600060405180830381600087803b158015610ea657600080fd5b505af1158015610eba573d6000803e3d6000fd5b5050505081600b6000828254610ed0919061343a565b9250508190555081601560003373ffffffffffffffffffffffffffffffffffffffff1673ffffffffffffffffffffffffffffffffffffffff1681526020019081526020016000206000828254610f2691906134e7565b925050819055508060076000828254610f3f91906134e7565b925050819055507f702daf19347ac5d6af369c5a377056b2e08aaaf05065c8b444bacd28abfe61966006543384600085604051610f80959493929190613582565b60405180910390a150611713565b600360065414156111fe576000610fa782600f546119d7565b90506301c9c380811080611066575080601660009054906101000a900473ffffffffffffffffffffffffffffffffffffffff1673ffffffffffffffffffffffffffffffffffffffff166370a08231336040518263ffffffff1660e01b8152600401611012919061322b565b602060405180830381600087803b15801561102c57600080fd5b505af1158015611040573d6000803e3d6000fd5b505050506040513d601f19601f820116820180604052508101906110649190613483565b105b1561109d576040517fb9b1c21600000000000000000000000000000000000000000000000000000000815260040160405180910390fd5b601660009054906101000a900473ffffffffffffffffffffffffffffffffffffffff1673ffffffffffffffffffffffffffffffffffffffff166323b872dd3330846040518463ffffffff1660e01b81526004016110fc939291906134b0565b600060405180830381600087803b15801561111657600080fd5b505af115801561112a573d6000803e3d6000fd5b5050505081600b6000828254611140919061343a565b9250508190555081601560003373ffffffffffffffffffffffffffffffffffffffff1673ffffffffffffffffffffffffffffffffffffffff168152602001908152602001600020600082825461119691906134e7565b9250508190555080600760008282546111af91906134e7565b925050819055507f702daf19347ac5d6af369c5a377056b2e08aaaf05065c8b444bacd28abfe619660065433846000856040516111f0959493929190613582565b60405180910390a150611712565b6004600654141561146e576000611217826010546119d7565b90506301c9c3808110806112d6575080601660009054906101000a900473ffffffffffffffffffffffffffffffffffffffff1673ffffffffffffffffffffffffffffffffffffffff166370a08231336040518263ffffffff1660e01b8152600401611282919061322b565b602060405180830381600087803b15801561129c57600080fd5b505af11580156112b0573d6000803e3d6000fd5b505050506040513d601f19601f820116820180604052508101906112d49190613483565b105b1561130d576040517fb9b1c21600000000000000000000000000000000000000000000000000000000815260040160405180910390fd5b601660009054906101000a900473ffffffffffffffffffffffffffffffffffffffff1673ffffffffffffffffffffffffffffffffffffffff166323b872dd3330846040518463ffffffff1660e01b815260040161136c939291906134b0565b600060405180830381600087803b15801561138657600080fd5b505af115801561139a573d6000803e3d6000fd5b5050505081600b60008282546113b0919061343a565b9250508190555081601560003373ffffffffffffffffffffffffffffffffffffffff1673ffffffffffffffffffffffffffffffffffffffff168152602001908152602001600020600082825461140691906134e7565b92505081905550806007600082825461141f91906134e7565b925050819055507f702daf19347ac5d6af369c5a377056b2e08aaaf05065c8b444bacd28abfe61966006543384600085604051611460959493929190613582565b60405180910390a150611711565b600560065414156116de576000611487826011546119d7565b90506301c9c380811080611546575080601660009054906101000a900473ffffffffffffffffffffffffffffffffffffffff1673ffffffffffffffffffffffffffffffffffffffff166370a08231336040518263ffffffff1660e01b81526004016114f2919061322b565b602060405180830381600087803b15801561150c57600080fd5b505af1158015611520573d6000803e3d6000fd5b505050506040513d601f19601f820116820180604052508101906115449190613483565b105b1561157d576040517fb9b1c21600000000000000000000000000000000000000000000000000000000815260040160405180910390fd5b601660009054906101000a900473ffffffffffffffffffffffffffffffffffffffff1673ffffffffffffffffffffffffffffffffffffffff166323b872dd3330846040518463ffffffff1660e01b81526004016115dc939291906134b0565b600060405180830381600087803b1580156115f657600080fd5b505af115801561160a573d6000803e3d6000fd5b5050505081600b6000828254611620919061343a565b9250508190555081601560003373ffffffffffffffffffffffffffffffffffffffff1673ffffffffffffffffffffffffffffffffffffffff168152602001908152602001600020600082825461167691906134e7565b92505081905550806007600082825461168f91906134e7565b925050819055507f702daf19347ac5d6af369c5a377056b2e08aaaf05065c8b444bacd28abfe619660065433846000856040516116d0959493929190613582565b60405180910390a150611710565b6040517fe5c86cd700000000000000000000000000000000000000000000000000000000815260040160405180910390fd5b5b5b5b5b50565b60008061172261281f565b905061172f8582856129f2565b61173a858585612a7e565b60019150509392505050565b60006012905090565b60008061175a61281f565b905061177b81858561176c8589612708565b61177691906134e7565b612827565b600191505092915050565b61178e612cf6565b60003373ffffffffffffffffffffffffffffffffffffffff16476040516117b490613606565b60006040518083038185875af1925050503d80600081146117f1576040519150601f19603f3d011682016040523d82523d6000602084013e6117f6565b606091505b5050905080611831576040517fa8fc93ca00000000000000000000000000000000000000000000000000000000815260040160405180910390fd5b50565b61183c612cf6565b620f42408161184b919061361b565b601660009054906101000a900473ffffffffffffffffffffffffffffffffffffffff1673ffffffffffffffffffffffffffffffffffffffff166370a08231306040518263ffffffff1660e01b81526004016118a6919061322b565b602060405180830381600087803b1580156118c057600080fd5b505af11580156118d4573d6000803e3d6000fd5b505050506040513d601f19601f820116820180604052508101906118f89190613483565b1015611930576040517f4be200da00000000000000000000000000000000000000000000000000000000815260040160405180910390fd5b601660009054906101000a900473ffffffffffffffffffffffffffffffffffffffff1673ffffffffffffffffffffffffffffffffffffffff1663a9059cbb6119766123ea565b620f424084611985919061361b565b6040518363ffffffff1660e01b81526004016119a2929190613675565b600060405180830381600087803b1580156119bc57600080fd5b505af11580156119d0573d6000803e3d6000fd5b5050505050565b6000806119e48484612d74565b90508091505092915050565b60085481565b6000601560003373ffffffffffffffffffffffffffffffffffffffff1673ffffffffffffffffffffffffffffffffffffffff1681526020019081526020016000205411611a6f576040517f3ffb581100000000000000000000000000000000000000000000000000000000815260040160405180910390fd5b600680541015611aab576040517fd396df0900000000000000000000000000000000000000000000000000000000815260040160405180910390fd5b6000601560003373ffffffffffffffffffffffffffffffffffffffff1673ffffffffffffffffffffffffffffffffffffffff168152602001908152602001600020549050601560003373ffffffffffffffffffffffffffffffffffffffff1673ffffffffffffffffffffffffffffffffffffffff16815260200190815260200160002060009055611b3c3382612dba565b50565b60008060008373ffffffffffffffffffffffffffffffffffffffff1673ffffffffffffffffffffffffffffffffffffffff168152602001908152602001600020549050919050565b611b8f612cf6565b611b996000612f11565b565b60006006541415611bd8576040517f3f1b3b5300000000000000000000000000000000000000000000000000000000815260040160405180910390fd5b600081600b54611be8919061343a565b1015611c20576040517f9210988b00000000000000000000000000000000000000000000000000000000815260040160405180910390fd5b60016006541415611d93576000611c3982600d546119d7565b90506301c9c380811015611c79576040517f225e8c9100000000000000000000000000000000000000000000000000000000815260040160405180910390fd5b6000611c8783600d546126d5565b905080341015611cc3576040517f8bbdc31c00000000000000000000000000000000000000000000000000000000815260040160405180910390fd5b82600b6000828254611cd5919061343a565b9250508190555082601560003373ffffffffffffffffffffffffffffffffffffffff1673ffffffffffffffffffffffffffffffffffffffff1681526020019081526020016000206000828254611d2b91906134e7565b925050819055508160076000828254611d4491906134e7565b925050819055507f702daf19347ac5d6af369c5a377056b2e08aaaf05065c8b444bacd28abfe619660065433853486604051611d8495949392919061369e565b60405180910390a15050612395565b60026006541415611f06576000611dac82600e546119d7565b90506301c9c380811015611dec576040517f225e8c9100000000000000000000000000000000000000000000000000000000815260040160405180910390fd5b6000611dfa83600e546126d5565b905080341015611e36576040517f8bbdc31c00000000000000000000000000000000000000000000000000000000815260040160405180910390fd5b82600b6000828254611e48919061343a565b9250508190555082601560003373ffffffffffffffffffffffffffffffffffffffff1673ffffffffffffffffffffffffffffffffffffffff1681526020019081526020016000206000828254611e9e91906134e7565b925050819055508160076000828254611eb791906134e7565b925050819055507f702daf19347ac5d6af369c5a377056b2e08aaaf05065c8b444bacd28abfe619660065433853486604051611ef795949392919061369e565b60405180910390a15050612394565b60036006541415612079576000611f1f82600f546119d7565b90506301c9c380811015611f5f576040517f225e8c9100000000000000000000000000000000000000000000000000000000815260040160405180910390fd5b6000611f6d83600f546126d5565b905080341015611fa9576040517f8bbdc31c00000000000000000000000000000000000000000000000000000000815260040160405180910390fd5b82600b6000828254611fbb919061343a565b9250508190555082601560003373ffffffffffffffffffffffffffffffffffffffff1673ffffffffffffffffffffffffffffffffffffffff168152602001908152602001600020600082825461201191906134e7565b92505081905550816007600082825461202a91906134e7565b925050819055507f702daf19347ac5d6af369c5a377056b2e08aaaf05065c8b444bacd28abfe61966006543385348660405161206a95949392919061369e565b60405180910390a15050612393565b600460065414156121ec576000612092826010546119d7565b90506301c9c3808110156120d2576040517f225e8c9100000000000000000000000000000000000000000000000000000000815260040160405180910390fd5b60006120e0836010546126d5565b90508034101561211c576040517f8bbdc31c00000000000000000000000000000000000000000000000000000000815260040160405180910390fd5b82600b600082825461212e919061343a565b9250508190555082601560003373ffffffffffffffffffffffffffffffffffffffff1673ffffffffffffffffffffffffffffffffffffffff168152602001908152602001600020600082825461218491906134e7565b92505081905550816007600082825461219d91906134e7565b925050819055507f702daf19347ac5d6af369c5a377056b2e08aaaf05065c8b444bacd28abfe6196600654338534866040516121dd95949392919061369e565b60405180910390a15050612392565b6005600654141561235f576000612205826011546119d7565b90506301c9c380811015612245576040517f225e8c9100000000000000000000000000000000000000000000000000000000815260040160405180910390fd5b6000612253836011546126d5565b90508034101561228f576040517f8bbdc31c00000000000000000000000000000000000000000000000000000000815260040160405180910390fd5b82600b60008282546122a1919061343a565b9250508190555082601560003373ffffffffffffffffffffffffffffffffffffffff1673ffffffffffffffffffffffffffffffffffffffff16815260200190815260200160002060008282546122f791906134e7565b92505081905550816007600082825461231091906134e7565b925050819055507f702daf19347ac5d6af369c5a377056b2e08aaaf05065c8b444bacd28abfe61966006543385348660405161235095949392919061369e565b60405180910390a15050612391565b6040517fe5c86cd700000000000000000000000000000000000000000000000000000000815260040160405180910390fd5b5b5b5b5b50565b601360009054906101000a900473ffffffffffffffffffffffffffffffffffffffff1681565b601260009054906101000a900473ffffffffffffffffffffffffffffffffffffffff1681565b600e5481565b6000600560009054906101000a900473ffffffffffffffffffffffffffffffffffffffff16905090565b61241c612cf6565b60056006541115612459576040517fd32678e600000000000000000000000000000000000000000000000000000000815260040160405180910390fd5b60016006600082825461246c91906134e7565b925050819055506006805410156124aa576a52b7d2dcc80cd2e4000000600b600082825461249a91906134e7565b9250508190555060006007819055505b565b6a52b7d2dcc80cd2e400000081565b6060600480546124ca906133d9565b80601f01602080910402602001604051908101604052809291908181526020018280546124f6906133d9565b80156125435780601f1061251857610100808354040283529160200191612543565b820191906000526020600020905b81548152906001019060200180831161252657829003601f168201915b5050505050905090565b600d5481565b60008073ee9f2375b4bdf6387aa8265dd4fb8f16512a1d46905060008173ffffffffffffffffffffffffffffffffffffffff1663feaf968c6040518163ffffffff1660e01b815260040160a06040518083038186803b1580156125b557600080fd5b505afa1580156125c9573d6000803e3d6000fd5b505050506040513d601f19601f820116820180604052508101906125ed9190613769565b5050509150506000811361262d576040517f6ef30c4500000000000000000000000000000000000000000000000000000000815260040160405180910390fd5b809250505090565b60008061264061281f565b9050600061264e8286612708565b905083811015612693576040517f08c379a000000000000000000000000000000000000000000000000000000000815260040161268a90613856565b60405180910390fd5b6126a08286868403612827565b60019250505092915050565b6000806126b761281f565b90506126c4818585612a7e565b600191505092915050565b60105481565b6000806126e28484612d74565b905060006126ef82612fd7565b9050809250505092915050565b60075481565b600b5481565b6000600160008473ffffffffffffffffffffffffffffffffffffffff1673ffffffffffffffffffffffffffffffffffffffff16815260200190815260200160002060008373ffffffffffffffffffffffffffffffffffffffff1673ffffffffffffffffffffffffffffffffffffffff16815260200190815260200160002054905092915050565b600a5481565b61279d612cf6565b600073ffffffffffffffffffffffffffffffffffffffff168173ffffffffffffffffffffffffffffffffffffffff16141561280d576040517f08c379a0000000000000000000000000000000000000000000000000000000008152600401612804906138e8565b60405180910390fd5b61281681612f11565b50565b60115481565b600033905090565b600073ffffffffffffffffffffffffffffffffffffffff168373ffffffffffffffffffffffffffffffffffffffff161415612897576040517f08c379a000000000000000000000000000000000000000000000000000000000815260040161288e9061397a565b60405180910390fd5b600073ffffffffffffffffffffffffffffffffffffffff168273ffffffffffffffffffffffffffffffffffffffff161415612907576040517f08c379a00000000000000000000000000000000000000000000000000000000081526004016128fe90613a0c565b60405180910390fd5b80600160008573ffffffffffffffffffffffffffffffffffffffff1673ffffffffffffffffffffffffffffffffffffffff16815260200190815260200160002060008473ffffffffffffffffffffffffffffffffffffffff1673ffffffffffffffffffffffffffffffffffffffff168152602001908152602001600020819055508173ffffffffffffffffffffffffffffffffffffffff168373ffffffffffffffffffffffffffffffffffffffff167f8c5be1e5ebec7d5bd14f71427d1e84f3dd0314c0f7b2291e5b200ac8c7c3b925836040516129e59190613041565b60405180910390a3505050565b60006129fe8484612708565b90507fffffffffffffffffffffffffffffffffffffffffffffffffffffffffffffffff8114612a785781811015612a6a576040517f08c379a0000000000000000000000000000000000000000000000000000000008152600401612a6190613a78565b60405180910390fd5b612a778484848403612827565b5b50505050565b600073ffffffffffffffffffffffffffffffffffffffff168373ffffffffffffffffffffffffffffffffffffffff161415612aee576040517f08c379a0000000000000000000000000000000000000000000000000000000008152600401612ae590613b0a565b60405180910390fd5b600073ffffffffffffffffffffffffffffffffffffffff168273ffffffffffffffffffffffffffffffffffffffff161415612b5e576040517f08c379a0000000000000000000000000000000000000000000000000000000008152600401612b5590613b9c565b60405180910390fd5b612b6983838361301e565b60008060008573ffffffffffffffffffffffffffffffffffffffff1673ffffffffffffffffffffffffffffffffffffffff16815260200190815260200160002054905081811015612bef576040517f08c379a0000000000000000000000000000000000000000000000000000000008152600401612be690613c2e565b60405180910390fd5b8181036000808673ffffffffffffffffffffffffffffffffffffffff1673ffffffffffffffffffffffffffffffffffffffff16815260200190815260200160002081905550816000808573ffffffffffffffffffffffffffffffffffffffff1673ffffffffffffffffffffffffffffffffffffffff168152602001908152602001600020600082825401925050819055508273ffffffffffffffffffffffffffffffffffffffff168473ffffffffffffffffffffffffffffffffffffffff167fddf252ad1be2c89b69c2b068fc378daa952ba7f163c4a11628f55a4df523b3ef84604051612cdd9190613041565b60405180910390a3612cf0848484613023565b50505050565b612cfe61281f565b73ffffffffffffffffffffffffffffffffffffffff16612d1c6123ea565b73ffffffffffffffffffffffffffffffffffffffff1614612d72576040517f08c379a0000000000000000000000000000000000000000000000000000000008152600401612d6990613c9a565b60405180910390fd5b565b600080600c5483612d85919061361b565b905060006c0c9f2c9cd04674edea400000008583612da3919061361b565b612dad9190613ce9565b9050809250505092915050565b600073ffffffffffffffffffffffffffffffffffffffff168273ffffffffffffffffffffffffffffffffffffffff161415612e2a576040517f08c379a0000000000000000000000000000000000000000000000000000000008152600401612e2190613d66565b60405180910390fd5b612e366000838361301e565b8060026000828254612e4891906134e7565b92505081905550806000808473ffffffffffffffffffffffffffffffffffffffff1673ffffffffffffffffffffffffffffffffffffffff168152602001908152602001600020600082825401925050819055508173ffffffffffffffffffffffffffffffffffffffff16600073ffffffffffffffffffffffffffffffffffffffff167fddf252ad1be2c89b69c2b068fc378daa952ba7f163c4a11628f55a4df523b3ef83604051612ef99190613041565b60405180910390a3612f0d60008383613023565b5050565b6000600560009054906101000a900473ffffffffffffffffffffffffffffffffffffffff16905081600560006101000a81548173ffffffffffffffffffffffffffffffffffffffff021916908373ffffffffffffffffffffffffffffffffffffffff1602179055508173ffffffffffffffffffffffffffffffffffffffff168173ffffffffffffffffffffffffffffffffffffffff167f8be0079c531659141344cd1fd0a4f28419497f9722a3daafe3b4186f6b6457e060405160405180910390a35050565b600080670de0b6b3a7640000600c5484612ff1919061361b565b612ffb9190613ce9565b9050600081613008612553565b613012919061361b565b90508092505050919050565b505050565b505050565b6000819050919050565b61303b81613028565b82525050565b60006020820190506130566000830184613032565b92915050565b600081519050919050565b600082825260208201905092915050565b60005b8381101561309657808201518184015260208101905061307b565b838111156130a5576000848401525b50505050565b6000601f19601f8301169050919050565b60006130c78261305c565b6130d18185613067565b93506130e1818560208601613078565b6130ea816130ab565b840191505092915050565b6000602082019050818103600083015261310f81846130bc565b905092915050565b600080fd5b600073ffffffffffffffffffffffffffffffffffffffff82169050919050565b60006131478261311c565b9050919050565b6131578161313c565b811461316257600080fd5b50565b6000813590506131748161314e565b92915050565b61318381613028565b811461318e57600080fd5b50565b6000813590506131a08161317a565b92915050565b600080604083850312156131bd576131bc613117565b5b60006131cb85828601613165565b92505060206131dc85828601613191565b9150509250929050565b60008115159050919050565b6131fb816131e6565b82525050565b600060208201905061321660008301846131f2565b92915050565b6132258161313c565b82525050565b6000602082019050613240600083018461321c565b92915050565b60006020828403121561325c5761325b613117565b5b600061326a84828501613165565b91505092915050565b60006020828403121561328957613288613117565b5b600061329784828501613191565b91505092915050565b6000806000606084860312156132b9576132b8613117565b5b60006132c786828701613165565b93505060206132d886828701613165565b92505060406132e986828701613191565b9150509250925092565b600060ff82169050919050565b613309816132f3565b82525050565b60006020820190506133246000830184613300565b92915050565b6000806040838503121561334157613340613117565b5b600061334f85828601613191565b925050602061336085828601613191565b9150509250929050565b6000806040838503121561338157613380613117565b5b600061338f85828601613165565b92505060206133a085828601613165565b9150509250929050565b7f4e487b7100000000000000000000000000000000000000000000000000000000600052602260045260246000fd5b600060028204905060018216806133f157607f821691505b60208210811415613405576134046133aa565b5b50919050565b7f4e487b7100000000000000000000000000000000000000000000000000000000600052601160045260246000fd5b600061344582613028565b915061345083613028565b9250828210156134635761346261340b565b5b828203905092915050565b60008151905061347d8161317a565b92915050565b60006020828403121561349957613498613117565b5b60006134a78482850161346e565b91505092915050565b60006060820190506134c5600083018661321c565b6134d2602083018561321c565b6134df6040830184613032565b949350505050565b60006134f282613028565b91506134fd83613028565b9250827fffffffffffffffffffffffffffffffffffffffffffffffffffffffffffffffff038211156135325761353161340b565b5b828201905092915050565b6000819050919050565b6000819050919050565b600061356c6135676135628461353d565b613547565b613028565b9050919050565b61357c81613551565b82525050565b600060a0820190506135976000830188613032565b6135a4602083018761321c565b6135b16040830186613032565b6135be6060830185613573565b6135cb6080830184613032565b9695505050505050565b600081905092915050565b50565b60006135f06000836135d5565b91506135fb826135e0565b600082019050919050565b6000613611826135e3565b9150819050919050565b600061362682613028565b915061363183613028565b9250817fffffffffffffffffffffffffffffffffffffffffffffffffffffffffffffffff048311821515161561366a5761366961340b565b5b828202905092915050565b600060408201905061368a600083018561321c565b6136976020830184613032565b9392505050565b600060a0820190506136b36000830188613032565b6136c0602083018761321c565b6136cd6040830186613032565b6136da6060830185613032565b6136e76080830184613032565b9695505050505050565b600069ffffffffffffffffffff82169050919050565b613710816136f1565b811461371b57600080fd5b50565b60008151905061372d81613707565b92915050565b6000819050919050565b61374681613733565b811461375157600080fd5b50565b6000815190506137638161373d565b92915050565b600080600080600060a0868803121561378557613784613117565b5b60006137938882890161371e565b95505060206137a488828901613754565b94505060406137b58882890161346e565b93505060606137c68882890161346e565b92505060806137d78882890161371e565b9150509295509295909350565b7f45524332303a2064656372656173656420616c6c6f77616e63652062656c6f7760008201527f207a65726f000000000000000000000000000000000000000000000000000000602082015250565b6000613840602583613067565b915061384b826137e4565b604082019050919050565b6000602082019050818103600083015261386f81613833565b9050919050565b7f4f776e61626c653a206e6577206f776e657220697320746865207a65726f206160008201527f6464726573730000000000000000000000000000000000000000000000000000602082015250565b60006138d2602683613067565b91506138dd82613876565b604082019050919050565b60006020820190508181036000830152613901816138c5565b9050919050565b7f45524332303a20617070726f76652066726f6d20746865207a65726f2061646460008201527f7265737300000000000000000000000000000000000000000000000000000000602082015250565b6000613964602483613067565b915061396f82613908565b604082019050919050565b6000602082019050818103600083015261399381613957565b9050919050565b7f45524332303a20617070726f766520746f20746865207a65726f20616464726560008201527f7373000000000000000000000000000000000000000000000000000000000000602082015250565b60006139f6602283613067565b9150613a018261399a565b604082019050919050565b60006020820190508181036000830152613a25816139e9565b9050919050565b7f45524332303a20696e73756666696369656e7420616c6c6f77616e6365000000600082015250565b6000613a62601d83613067565b9150613a6d82613a2c565b602082019050919050565b60006020820190508181036000830152613a9181613a55565b9050919050565b7f45524332303a207472616e736665722066726f6d20746865207a65726f20616460008201527f6472657373000000000000000000000000000000000000000000000000000000602082015250565b6000613af4602583613067565b9150613aff82613a98565b604082019050919050565b60006020820190508181036000830152613b2381613ae7565b9050919050565b7f45524332303a207472616e7366657220746f20746865207a65726f206164647260008201527f6573730000000000000000000000000000000000000000000000000000000000602082015250565b6000613b86602383613067565b9150613b9182613b2a565b604082019050919050565b60006020820190508181036000830152613bb581613b79565b9050919050565b7f45524332303a207472616e7366657220616d6f756e742065786365656473206260008201527f616c616e63650000000000000000000000000000000000000000000000000000602082015250565b6000613c18602683613067565b9150613c2382613bbc565b604082019050919050565b60006020820190508181036000830152613c4781613c0b565b9050919050565b7f4f776e61626c653a2063616c6c6572206973206e6f7420746865206f776e6572600082015250565b6000613c84602083613067565b9150613c8f82613c4e565b602082019050919050565b60006020820190508181036000830152613cb381613c77565b9050919050565b7f4e487b7100000000000000000000000000000000000000000000000000000000600052601260045260246000fd5b6000613cf482613028565b9150613cff83613028565b925082613d0f57613d0e613cba565b5b828204905092915050565b7f45524332303a206d696e7420746f20746865207a65726f206164647265737300600082015250565b6000613d50601f83613067565b9150613d5b82613d1a565b602082019050919050565b60006020820190508181036000830152613d7f81613d43565b905091905056fea2646970667358221220dca74f0c9c267b6e1761188bd58705ca1356ffc8fc27bee173b6cd1f36fa7a4764736f6c63430008090033",
  "linkReferences": {},
  "deployedLinkReferences": {}
}