{
  "_format": "hh-sol-artifact-1",
  "contractName": "AIMToken",
  "sourceName": "contracts/AIMToken.sol",
  "abi": [
    {
      "inputs": [],
      "stateMutability": "nonpayable",
      "type": "constructor"
    },
    {
      "inputs": [],
      "name": "allRoundsAreFinished",
      "type": "error"
    },
    {
      "inputs": [],
      "name": "contractDontHaveUSDT",
      "type": "error"
    },
    {
      "inputs": [],
      "name": "invalidUSDTPrice",
      "type": "error"
    },
    {
      "inputs": [],
      "name": "mintingIsNotAllowed",
      "type": "error"
    },
    {
      "inputs": [],
      "name": "pleasePurchaseMorethan30Doller",
      "type": "error"
    },
    {
      "inputs": [],
      "name": "pleaseSendTokenPrice",
      "type": "error"
    },
    {
      "inputs": [],
      "name": "pleaseWaitForPreSaleEnd",
      "type": "error"
    },
    {
      "inputs": [],
      "name": "roundSupplyLimitExceed",
      "type": "error"
    },
    {
      "inputs": [],
      "name": "transferFaild",
      "type": "error"
    },
    {
      "inputs": [],
      "name": "waitForStartingSaleRoud",
      "type": "error"
    },
    {
      "inputs": [],
      "name": "youDontHaveEnoughTokens",
      "type": "error"
    },
    {
      "inputs": [],
      "name": "youDontHaveEnoughUsdtORplasePurchaseMorethan30UsdtToken",
      "type": "error"
    },
    {
      "anonymous": false,
      "inputs": [
        {
          "indexed": true,
          "internalType": "address",
          "name": "owner",
          "type": "address"
        },
        {
          "indexed": true,
          "internalType": "address",
          "name": "spender",
          "type": "address"
        },
        {
          "indexed": false,
          "internalType": "uint256",
          "name": "value",
          "type": "uint256"
        }
      ],
      "name": "Approval",
      "type": "event"
    },
    {
      "anonymous": false,
      "inputs": [
        {
          "indexed": true,
          "internalType": "address",
          "name": "previousOwner",
          "type": "address"
        },
        {
          "indexed": true,
          "internalType": "address",
          "name": "newOwner",
          "type": "address"
        }
      ],
      "name": "OwnershipTransferred",
      "type": "event"
    },
    {
      "anonymous": false,
      "inputs": [
        {
          "indexed": false,
          "internalType": "uint256",
          "name": "_round",
          "type": "uint256"
        },
        {
          "indexed": false,
          "internalType": "address",
          "name": "_user",
          "type": "address"
        },
        {
          "indexed": false,
          "internalType": "uint256",
          "name": "_soldToken",
          "type": "uint256"
        },
        {
          "indexed": false,
          "internalType": "uint256",
          "name": "_BuywithEth",
          "type": "uint256"
        },
        {
          "indexed": false,
          "internalType": "uint256",
          "name": "_BuywithUSDT",
          "type": "uint256"
        }
      ],
      "name": "RoundData",
      "type": "event"
    },
    {
      "anonymous": false,
      "inputs": [
        {
          "indexed": true,
          "internalType": "address",
          "name": "from",
          "type": "address"
        },
        {
          "indexed": true,
          "internalType": "address",
          "name": "to",
          "type": "address"
        },
        {
          "indexed": false,
          "internalType": "uint256",
          "name": "value",
          "type": "uint256"
        }
      ],
      "name": "Transfer",
      "type": "event"
    },
    {
      "inputs": [
        {
          "internalType": "address",
          "name": "owner",
          "type": "address"
        },
        {
          "internalType": "address",
          "name": "spender",
          "type": "address"
        }
      ],
      "name": "allowance",
      "outputs": [
        {
          "internalType": "uint256",
          "name": "",
          "type": "uint256"
        }
      ],
      "stateMutability": "view",
      "type": "function"
    },
    {
      "inputs": [
        {
          "internalType": "address",
          "name": "spender",
          "type": "address"
        },
        {
          "internalType": "uint256",
          "name": "amount",
          "type": "uint256"
        }
      ],
      "name": "approve",
      "outputs": [
        {
          "internalType": "bool",
          "name": "",
          "type": "bool"
        }
      ],
      "stateMutability": "nonpayable",
      "type": "function"
    },
    {
      "inputs": [
        {
          "internalType": "address",
          "name": "account",
          "type": "address"
        }
      ],
      "name": "balanceOf",
      "outputs": [
        {
          "internalType": "uint256",
          "name": "",
          "type": "uint256"
        }
      ],
      "stateMutability": "view",
      "type": "function"
    },
    {
      "inputs": [],
      "name": "claimAIMToken",
      "outputs": [],
      "stateMutability": "nonpayable",
      "type": "function"
    },
    {
      "inputs": [],
      "name": "decimals",
      "outputs": [
        {
          "internalType": "uint8",
          "name": "",
          "type": "uint8"
        }
      ],
      "stateMutability": "view",
      "type": "function"
    },
    {
      "inputs": [
        {
          "internalType": "address",
          "name": "spender",
          "type": "address"
        },
        {
          "internalType": "uint256",
          "name": "subtractedValue",
          "type": "uint256"
        }
      ],
      "name": "decreaseAllowance",
      "outputs": [
        {
          "internalType": "bool",
          "name": "",
          "type": "bool"
        }
      ],
      "stateMutability": "nonpayable",
      "type": "function"
    },
    {
      "inputs": [],
      "name": "exchangeTokens",
      "outputs": [
        {
          "internalType": "uint256",
          "name": "",
          "type": "uint256"
        }
      ],
      "stateMutability": "view",
      "type": "function"
    },
    {
      "inputs": [],
      "name": "exchangeTokensWallet",
      "outputs": [
        {
          "internalType": "address",
          "name": "",
          "type": "address"
        }
      ],
      "stateMutability": "view",
      "type": "function"
    },
    {
      "inputs": [],
      "name": "getLatestUSDTPrice",
      "outputs": [
        {
          "internalType": "uint256",
          "name": "",
          "type": "uint256"
        }
      ],
      "stateMutability": "view",
      "type": "function"
    },
    {
      "inputs": [
        {
          "internalType": "address",
          "name": "spender",
          "type": "address"
        },
        {
          "internalType": "uint256",
          "name": "addedValue",
          "type": "uint256"
        }
      ],
      "name": "increaseAllowance",
      "outputs": [
        {
          "internalType": "bool",
          "name": "",
          "type": "bool"
        }
      ],
      "stateMutability": "nonpayable",
      "type": "function"
    },
    {
      "inputs": [],
      "name": "liquidityTokens",
      "outputs": [
        {
          "internalType": "uint256",
          "name": "",
          "type": "uint256"
        }
      ],
      "stateMutability": "view",
      "type": "function"
    },
    {
      "inputs": [],
      "name": "liquidityTokensWallet",
      "outputs": [
        {
          "internalType": "address",
          "name": "",
          "type": "address"
        }
      ],
      "stateMutability": "view",
      "type": "function"
    },
    {
      "inputs": [
        {
          "internalType": "uint256",
          "name": "_amount",
          "type": "uint256"
        }
      ],
      "name": "mintByEth",
      "outputs": [],
      "stateMutability": "payable",
      "type": "function"
    },
    {
      "inputs": [
        {
          "internalType": "uint256",
          "name": "_amount",
          "type": "uint256"
        }
      ],
      "name": "mintByUSDT",
      "outputs": [],
      "stateMutability": "nonpayable",
      "type": "function"
    },
    {
      "inputs": [],
      "name": "name",
      "outputs": [
        {
          "internalType": "string",
          "name": "",
          "type": "string"
        }
      ],
      "stateMutability": "view",
      "type": "function"
    },
    {
      "inputs": [],
      "name": "owner",
      "outputs": [
        {
          "internalType": "address",
          "name": "",
          "type": "address"
        }
      ],
      "stateMutability": "view",
      "type": "function"
    },
    {
      "inputs": [],
      "name": "raisedAmount",
      "outputs": [
        {
          "internalType": "uint256",
          "name": "",
          "type": "uint256"
        }
      ],
      "stateMutability": "view",
      "type": "function"
    },
    {
      "inputs": [],
      "name": "remainingSupply",
      "outputs": [
        {
          "internalType": "uint256",
          "name": "",
          "type": "uint256"
        }
      ],
      "stateMutability": "view",
      "type": "function"
    },
    {
      "inputs": [],
      "name": "renounceOwnership",
      "outputs": [],
      "stateMutability": "nonpayable",
      "type": "function"
    },
    {
      "inputs": [],
      "name": "round",
      "outputs": [
        {
          "internalType": "uint256",
          "name": "",
          "type": "uint256"
        }
      ],
      "stateMutability": "view",
      "type": "function"
    },
    {
      "inputs": [],
      "name": "round1Price",
      "outputs": [
        {
          "internalType": "uint256",
          "name": "",
          "type": "uint256"
        }
      ],
      "stateMutability": "view",
      "type": "function"
    },
    {
      "inputs": [],
      "name": "round2Price",
      "outputs": [
        {
          "internalType": "uint256",
          "name": "",
          "type": "uint256"
        }
      ],
      "stateMutability": "view",
      "type": "function"
    },
    {
      "inputs": [],
      "name": "round3Price",
      "outputs": [
        {
          "internalType": "uint256",
          "name": "",
          "type": "uint256"
        }
      ],
      "stateMutability": "view",
      "type": "function"
    },
    {
      "inputs": [],
      "name": "round4Price",
      "outputs": [
        {
          "internalType": "uint256",
          "name": "",
          "type": "uint256"
        }
      ],
      "stateMutability": "view",
      "type": "function"
    },
    {
      "inputs": [],
      "name": "round5Price",
      "outputs": [
        {
          "internalType": "uint256",
          "name": "",
          "type": "uint256"
        }
      ],
      "stateMutability": "view",
      "type": "function"
    },
    {
      "inputs": [],
      "name": "roundLimit",
      "outputs": [
        {
          "internalType": "uint256",
          "name": "",
          "type": "uint256"
        }
      ],
      "stateMutability": "view",
      "type": "function"
    },
    {
      "inputs": [
        {
          "internalType": "uint256",
          "name": "_amount",
          "type": "uint256"
        },
        {
          "internalType": "uint256",
          "name": "_roundPrice",
          "type": "uint256"
        }
      ],
      "name": "sellTokenInETHPrice",
      "outputs": [
        {
          "internalType": "uint256",
          "name": "",
          "type": "uint256"
        }
      ],
      "stateMutability": "view",
      "type": "function"
    },
    {
      "inputs": [
        {
          "internalType": "uint256",
          "name": "_amount",
          "type": "uint256"
        },
        {
          "internalType": "uint256",
          "name": "_roundPrice",
          "type": "uint256"
        }
      ],
      "name": "sellTokenInUDSTPrice",
      "outputs": [
        {
          "internalType": "uint256",
          "name": "",
          "type": "uint256"
        }
      ],
      "stateMutability": "view",
      "type": "function"
    },
    {
      "inputs": [
        {
          "internalType": "address",
          "name": "",
          "type": "address"
        }
      ],
      "name": "soldTokens",
      "outputs": [
        {
          "internalType": "uint256",
          "name": "",
          "type": "uint256"
        }
      ],
      "stateMutability": "view",
      "type": "function"
    },
    {
      "inputs": [],
      "name": "stakeholdersTokens",
      "outputs": [
        {
          "internalType": "uint256",
          "name": "",
          "type": "uint256"
        }
      ],
      "stateMutability": "view",
      "type": "function"
    },
    {
      "inputs": [],
      "name": "stakeholdersTokensWallet",
      "outputs": [
        {
          "internalType": "address",
          "name": "",
          "type": "address"
        }
      ],
      "stateMutability": "view",
      "type": "function"
    },
    {
      "inputs": [],
      "name": "startTheSale",
      "outputs": [],
      "stateMutability": "nonpayable",
      "type": "function"
    },
    {
      "inputs": [],
      "name": "symbol",
      "outputs": [
        {
          "internalType": "string",
          "name": "",
          "type": "string"
        }
      ],
      "stateMutability": "view",
      "type": "function"
    },
    {
      "inputs": [],
      "name": "totalSupply",
      "outputs": [
        {
          "internalType": "uint256",
          "name": "",
          "type": "uint256"
        }
      ],
      "stateMutability": "pure",
      "type": "function"
    },
    {
      "inputs": [
        {
          "internalType": "address",
          "name": "to",
          "type": "address"
        },
        {
          "internalType": "uint256",
          "name": "amount",
          "type": "uint256"
        }
      ],
      "name": "transfer",
      "outputs": [
        {
          "internalType": "bool",
          "name": "",
          "type": "bool"
        }
      ],
      "stateMutability": "nonpayable",
      "type": "function"
    },
    {
      "inputs": [
        {
          "internalType": "address",
          "name": "from",
          "type": "address"
        },
        {
          "internalType": "address",
          "name": "to",
          "type": "address"
        },
        {
          "internalType": "uint256",
          "name": "amount",
          "type": "uint256"
        }
      ],
      "name": "transferFrom",
      "outputs": [
        {
          "internalType": "bool",
          "name": "",
          "type": "bool"
        }
      ],
      "stateMutability": "nonpayable",
      "type": "function"
    },
    {
      "inputs": [
        {
          "internalType": "address",
          "name": "newOwner",
          "type": "address"
        }
      ],
      "name": "transferOwnership",
      "outputs": [],
      "stateMutability": "nonpayable",
      "type": "function"
    },
    {
      "inputs": [],
      "name": "withdraw",
      "outputs": [],
      "stateMutability": "nonpayable",
      "type": "function"
    },
    {
      "inputs": [
        {
          "internalType": "uint256",
          "name": "_amount",
          "type": "uint256"
        }
      ],
      "name": "withdrawUSDT",
      "outputs": [],
      "stateMutability": "nonpayable",
      "type": "function"
    }
  ],
  "bytecode": "0x60806040526a52b7d2dcc80cd2e40000006008556aa56fa5b99019a5c80000006009556aa56fa5b99019a5c8000000600a5564e8d4a51000600c55611388600d55612710600e55614e20600f55619c40601055620138806011553480156200006657600080fd5b506040518060400160405280600881526020017f41494d546f6b656e0000000000000000000000000000000000000000000000008152506040518060400160405280600381526020017f41494d00000000000000000000000000000000000000000000000000000000008152508160039080519060200190620000eb92919062000569565b5080600490805190602001906200010492919062000569565b505050620001276200011b6200032360201b60201c565b6200032b60201b60201c565b731ed5c3cc9a3379b757d9056de8f75bdf9b1ca17a601360006101000a81548173ffffffffffffffffffffffffffffffffffffffff021916908373ffffffffffffffffffffffffffffffffffffffff160217905550731ed5c3cc9a3379b757d9056de8f75bdf9b1ca17a601260006101000a81548173ffffffffffffffffffffffffffffffffffffffff021916908373ffffffffffffffffffffffffffffffffffffffff160217905550731ed5c3cc9a3379b757d9056de8f75bdf9b1ca17a601460006101000a81548173ffffffffffffffffffffffffffffffffffffffff021916908373ffffffffffffffffffffffffffffffffffffffff1602179055506200025c601360009054906101000a900473ffffffffffffffffffffffffffffffffffffffff16600954620003f160201b60201c565b62000292601260009054906101000a900473ffffffffffffffffffffffffffffffffffffffff16600854620003f160201b60201c565b620002c8601460009054906101000a900473ffffffffffffffffffffffffffffffffffffffff16600a54620003f160201b60201c565b73dac17f958d2ee523a2206206994597c13d831ec7601660006101000a81548173ffffffffffffffffffffffffffffffffffffffff021916908373ffffffffffffffffffffffffffffffffffffffff160217905550620007c5565b600033905090565b6000600560009054906101000a900473ffffffffffffffffffffffffffffffffffffffff16905081600560006101000a81548173ffffffffffffffffffffffffffffffffffffffff021916908373ffffffffffffffffffffffffffffffffffffffff1602179055508173ffffffffffffffffffffffffffffffffffffffff168173ffffffffffffffffffffffffffffffffffffffff167f8be0079c531659141344cd1fd0a4f28419497f9722a3daafe3b4186f6b6457e060405160405180910390a35050565b600073ffffffffffffffffffffffffffffffffffffffff168273ffffffffffffffffffffffffffffffffffffffff16141562000464576040517f08c379a00000000000000000000000000000000000000000000000000000000081526004016200045b906200067a565b60405180910390fd5b62000478600083836200055f60201b60201c565b80600260008282546200048c9190620006d5565b92505081905550806000808473ffffffffffffffffffffffffffffffffffffffff1673ffffffffffffffffffffffffffffffffffffffff168152602001908152602001600020600082825401925050819055508173ffffffffffffffffffffffffffffffffffffffff16600073ffffffffffffffffffffffffffffffffffffffff167fddf252ad1be2c89b69c2b068fc378daa952ba7f163c4a11628f55a4df523b3ef836040516200053f919062000743565b60405180910390a36200055b600083836200056460201b60201c565b5050565b505050565b505050565b82805462000577906200078f565b90600052602060002090601f0160209004810192826200059b5760008555620005e7565b82601f10620005b657805160ff1916838001178555620005e7565b82800160010185558215620005e7579182015b82811115620005e6578251825591602001919060010190620005c9565b5b509050620005f69190620005fa565b5090565b5b8082111562000615576000816000905550600101620005fb565b5090565b600082825260208201905092915050565b7f45524332303a206d696e7420746f20746865207a65726f206164647265737300600082015250565b600062000662601f8362000619565b91506200066f826200062a565b602082019050919050565b60006020820190508181036000830152620006958162000653565b9050919050565b6000819050919050565b7f4e487b7100000000000000000000000000000000000000000000000000000000600052601160045260246000fd5b6000620006e2826200069c565b9150620006ef836200069c565b9250827fffffffffffffffffffffffffffffffffffffffffffffffffffffffffffffffff03821115620007275762000726620006a6565b5b828201905092915050565b6200073d816200069c565b82525050565b60006020820190506200075a600083018462000732565b92915050565b7f4e487b7100000000000000000000000000000000000000000000000000000000600052602260045260246000fd5b60006002820490506001821680620007a857607f821691505b60208210811415620007bf57620007be62000760565b5b50919050565b613dd780620007d56000396000f3fe60806040526004361061022f5760003560e01c806377186fba1161012e578063a457c2d7116100ab578063da0239a61161006f578063da0239a614610829578063dd62ed3e14610854578063e167dbca14610891578063f2fde38b146108bc578063f497f6ca146108e55761022f565b8063a457c2d71461071c578063a9059cbb14610759578063b1272af014610796578063ba0dc0cd146107c1578063c59ee1dc146107fe5761022f565b80638de2637b116100f25780638de2637b14610659578063949f26421461067057806395d89b411461069b57806396578879146106c657806398dd36bf146106f15761022f565b806377186fba146105915780637a8c2ffe146105ad5780638182567a146105d857806389d454af146106035780638da5cb5b1461062e5761022f565b806323b872dd116101bc5780634184bcce116101805780634184bcce146104be5780634b8ce602146104fb5780636aab41df1461052657806370a082311461053d578063715018a61461057a5761022f565b806323b872dd146103d9578063313ce5671461041657806339509351146104415780633ccfd60b1461047e5780633ea521ef146104955761022f565b806314032c2b1161020357806314032c2b146102f2578063146ca5311461031d57806318160ddd1461034857806319617e34146103735780632342583b146103b05761022f565b8062b39c6a14610234578063017309431461025f57806306fdde031461028a578063095ea7b3146102b5575b600080fd5b34801561024057600080fd5b50610249610910565b604051610256919061305c565b60405180910390f35b34801561026b57600080fd5b50610274610916565b604051610281919061305c565b60405180910390f35b34801561029657600080fd5b5061029f61091c565b6040516102ac9190613110565b60405180910390f35b3480156102c157600080fd5b506102dc60048036038101906102d791906131c1565b6109ae565b6040516102e9919061321c565b60405180910390f35b3480156102fe57600080fd5b506103076109d1565b6040516103149190613246565b60405180910390f35b34801561032957600080fd5b506103326109f7565b60405161033f919061305c565b60405180910390f35b34801561035457600080fd5b5061035d6109fd565b60405161036a919061305c565b60405180910390f35b34801561037f57600080fd5b5061039a60048036038101906103959190613261565b610a11565b6040516103a7919061305c565b60405180910390f35b3480156103bc57600080fd5b506103d760048036038101906103d2919061328e565b610a29565b005b3480156103e557600080fd5b5061040060048036038101906103fb91906132bb565b611717565b60405161040d919061321c565b60405180910390f35b34801561042257600080fd5b5061042b611746565b604051610438919061332a565b60405180910390f35b34801561044d57600080fd5b50610468600480360381019061046391906131c1565b61174f565b604051610475919061321c565b60405180910390f35b34801561048a57600080fd5b50610493611786565b005b3480156104a157600080fd5b506104bc60048036038101906104b7919061328e565b611834565b005b3480156104ca57600080fd5b506104e560048036038101906104e09190613345565b6119d7565b6040516104f2919061305c565b60405180910390f35b34801561050757600080fd5b506105106119f0565b60405161051d919061305c565b60405180910390f35b34801561053257600080fd5b5061053b6119f6565b005b34801561054957600080fd5b50610564600480360381019061055f9190613261565b611b3f565b604051610571919061305c565b60405180910390f35b34801561058657600080fd5b5061058f611b87565b005b6105ab60048036038101906105a6919061328e565b611b9b565b005b3480156105b957600080fd5b506105c2612398565b6040516105cf9190613246565b60405180910390f35b3480156105e457600080fd5b506105ed6123be565b6040516105fa9190613246565b60405180910390f35b34801561060f57600080fd5b506106186123e4565b604051610625919061305c565b60405180910390f35b34801561063a57600080fd5b506106436123ea565b6040516106509190613246565b60405180910390f35b34801561066557600080fd5b5061066e612414565b005b34801561067c57600080fd5b506106856124c7565b604051610692919061305c565b60405180910390f35b3480156106a757600080fd5b506106b06124d6565b6040516106bd9190613110565b60405180910390f35b3480156106d257600080fd5b506106db612568565b6040516106e8919061305c565b60405180910390f35b3480156106fd57600080fd5b5061070661256e565b604051610713919061305c565b60405180910390f35b34801561072857600080fd5b50610743600480360381019061073e91906131c1565b612650565b604051610750919061321c565b60405180910390f35b34801561076557600080fd5b50610780600480360381019061077b91906131c1565b6126c7565b60405161078d919061321c565b60405180910390f35b3480156107a257600080fd5b506107ab6126ea565b6040516107b8919061305c565b60405180910390f35b3480156107cd57600080fd5b506107e860048036038101906107e39190613345565b6126f0565b6040516107f5919061305c565b60405180910390f35b34801561080a57600080fd5b50610813612717565b604051610820919061305c565b60405180910390f35b34801561083557600080fd5b5061083e61271d565b60405161084b919061305c565b60405180910390f35b34801561086057600080fd5b5061087b60048036038101906108769190613385565b612723565b604051610888919061305c565b60405180910390f35b34801561089d57600080fd5b506108a66127aa565b6040516108b3919061305c565b60405180910390f35b3480156108c857600080fd5b506108e360048036038101906108de9190613261565b6127b0565b005b3480156108f157600080fd5b506108fa612834565b604051610907919061305c565b60405180910390f35b600f5481565b60095481565b60606003805461092b906133f4565b80601f0160208091040260200160405190810160405280929190818152602001828054610957906133f4565b80156109a45780601f10610979576101008083540402835291602001916109a4565b820191906000526020600020905b81548152906001019060200180831161098757829003601f168201915b5050505050905090565b6000806109b961283a565b90506109c6818585612842565b600191505092915050565b601460009054906101000a900473ffffffffffffffffffffffffffffffffffffffff1681565b60065481565b60006b033b2e3c9fd0803ce8000000905090565b60156020528060005260406000206000915090505481565b60006006541415610a66576040517f3f1b3b5300000000000000000000000000000000000000000000000000000000815260040160405180910390fd5b600081600b54610a769190613455565b1015610aae576040517f9210988b00000000000000000000000000000000000000000000000000000000815260040160405180910390fd5b60016006541415610d1e576000610ac782600d546119d7565b90506301c9c380811080610b86575080601660009054906101000a900473ffffffffffffffffffffffffffffffffffffffff1673ffffffffffffffffffffffffffffffffffffffff166370a08231336040518263ffffffff1660e01b8152600401610b329190613246565b602060405180830381600087803b158015610b4c57600080fd5b505af1158015610b60573d6000803e3d6000fd5b505050506040513d601f19601f82011682018060405250810190610b84919061349e565b105b15610bbd576040517fb9b1c21600000000000000000000000000000000000000000000000000000000815260040160405180910390fd5b601660009054906101000a900473ffffffffffffffffffffffffffffffffffffffff1673ffffffffffffffffffffffffffffffffffffffff166323b872dd3330846040518463ffffffff1660e01b8152600401610c1c939291906134cb565b600060405180830381600087803b158015610c3657600080fd5b505af1158015610c4a573d6000803e3d6000fd5b5050505081600b6000828254610c609190613455565b9250508190555081601560003373ffffffffffffffffffffffffffffffffffffffff1673ffffffffffffffffffffffffffffffffffffffff1681526020019081526020016000206000828254610cb69190613502565b925050819055508060076000828254610ccf9190613502565b925050819055507f702daf19347ac5d6af369c5a377056b2e08aaaf05065c8b444bacd28abfe61966006543384600085604051610d1095949392919061359d565b60405180910390a150611714565b60026006541415610f8e576000610d3782600e546119d7565b90506301c9c380811080610df6575080601660009054906101000a900473ffffffffffffffffffffffffffffffffffffffff1673ffffffffffffffffffffffffffffffffffffffff166370a08231336040518263ffffffff1660e01b8152600401610da29190613246565b602060405180830381600087803b158015610dbc57600080fd5b505af1158015610dd0573d6000803e3d6000fd5b505050506040513d601f19601f82011682018060405250810190610df4919061349e565b105b15610e2d576040517fb9b1c21600000000000000000000000000000000000000000000000000000000815260040160405180910390fd5b601660009054906101000a900473ffffffffffffffffffffffffffffffffffffffff1673ffffffffffffffffffffffffffffffffffffffff166323b872dd3330846040518463ffffffff1660e01b8152600401610e8c939291906134cb565b600060405180830381600087803b158015610ea657600080fd5b505af1158015610eba573d6000803e3d6000fd5b5050505081600b6000828254610ed09190613455565b9250508190555081601560003373ffffffffffffffffffffffffffffffffffffffff1673ffffffffffffffffffffffffffffffffffffffff1681526020019081526020016000206000828254610f269190613502565b925050819055508060076000828254610f3f9190613502565b925050819055507f702daf19347ac5d6af369c5a377056b2e08aaaf05065c8b444bacd28abfe61966006543384600085604051610f8095949392919061359d565b60405180910390a150611713565b600360065414156111fe576000610fa782600f546119d7565b90506301c9c380811080611066575080601660009054906101000a900473ffffffffffffffffffffffffffffffffffffffff1673ffffffffffffffffffffffffffffffffffffffff166370a08231336040518263ffffffff1660e01b81526004016110129190613246565b602060405180830381600087803b15801561102c57600080fd5b505af1158015611040573d6000803e3d6000fd5b505050506040513d601f19601f82011682018060405250810190611064919061349e565b105b1561109d576040517fb9b1c21600000000000000000000000000000000000000000000000000000000815260040160405180910390fd5b601660009054906101000a900473ffffffffffffffffffffffffffffffffffffffff1673ffffffffffffffffffffffffffffffffffffffff166323b872dd3330846040518463ffffffff1660e01b81526004016110fc939291906134cb565b600060405180830381600087803b15801561111657600080fd5b505af115801561112a573d6000803e3d6000fd5b5050505081600b60008282546111409190613455565b9250508190555081601560003373ffffffffffffffffffffffffffffffffffffffff1673ffffffffffffffffffffffffffffffffffffffff16815260200190815260200160002060008282546111969190613502565b9250508190555080600760008282546111af9190613502565b925050819055507f702daf19347ac5d6af369c5a377056b2e08aaaf05065c8b444bacd28abfe619660065433846000856040516111f095949392919061359d565b60405180910390a150611712565b6004600654141561146e576000611217826010546119d7565b90506301c9c3808110806112d6575080601660009054906101000a900473ffffffffffffffffffffffffffffffffffffffff1673ffffffffffffffffffffffffffffffffffffffff166370a08231336040518263ffffffff1660e01b81526004016112829190613246565b602060405180830381600087803b15801561129c57600080fd5b505af11580156112b0573d6000803e3d6000fd5b505050506040513d601f19601f820116820180604052508101906112d4919061349e565b105b1561130d576040517fb9b1c21600000000000000000000000000000000000000000000000000000000815260040160405180910390fd5b601660009054906101000a900473ffffffffffffffffffffffffffffffffffffffff1673ffffffffffffffffffffffffffffffffffffffff166323b872dd3330846040518463ffffffff1660e01b815260040161136c939291906134cb565b600060405180830381600087803b15801561138657600080fd5b505af115801561139a573d6000803e3d6000fd5b5050505081600b60008282546113b09190613455565b9250508190555081601560003373ffffffffffffffffffffffffffffffffffffffff1673ffffffffffffffffffffffffffffffffffffffff16815260200190815260200160002060008282546114069190613502565b92505081905550806007600082825461141f9190613502565b925050819055507f702daf19347ac5d6af369c5a377056b2e08aaaf05065c8b444bacd28abfe6196600654338460008560405161146095949392919061359d565b60405180910390a150611711565b600560065414156116de576000611487826011546119d7565b90506301c9c380811080611546575080601660009054906101000a900473ffffffffffffffffffffffffffffffffffffffff1673ffffffffffffffffffffffffffffffffffffffff166370a08231336040518263ffffffff1660e01b81526004016114f29190613246565b602060405180830381600087803b15801561150c57600080fd5b505af1158015611520573d6000803e3d6000fd5b505050506040513d601f19601f82011682018060405250810190611544919061349e565b105b1561157d576040517fb9b1c21600000000000000000000000000000000000000000000000000000000815260040160405180910390fd5b601660009054906101000a900473ffffffffffffffffffffffffffffffffffffffff1673ffffffffffffffffffffffffffffffffffffffff166323b872dd3330846040518463ffffffff1660e01b81526004016115dc939291906134cb565b600060405180830381600087803b1580156115f657600080fd5b505af115801561160a573d6000803e3d6000fd5b5050505081600b60008282546116209190613455565b9250508190555081601560003373ffffffffffffffffffffffffffffffffffffffff1673ffffffffffffffffffffffffffffffffffffffff16815260200190815260200160002060008282546116769190613502565b92505081905550806007600082825461168f9190613502565b925050819055507f702daf19347ac5d6af369c5a377056b2e08aaaf05065c8b444bacd28abfe619660065433846000856040516116d095949392919061359d565b60405180910390a150611710565b6040517fe5c86cd700000000000000000000000000000000000000000000000000000000815260040160405180910390fd5b5b5b5b5b50565b60008061172261283a565b905061172f858285612a0d565b61173a858585612a99565b60019150509392505050565b60006012905090565b60008061175a61283a565b905061177b81858561176c8589612723565b6117769190613502565b612842565b600191505092915050565b61178e612d11565b60003373ffffffffffffffffffffffffffffffffffffffff16476040516117b490613621565b60006040518083038185875af1925050503d80600081146117f1576040519150601f19603f3d011682016040523d82523d6000602084013e6117f6565b606091505b5050905080611831576040517fa8fc93ca00000000000000000000000000000000000000000000000000000000815260040160405180910390fd5b50565b61183c612d11565b620f42408161184b9190613636565b601660009054906101000a900473ffffffffffffffffffffffffffffffffffffffff1673ffffffffffffffffffffffffffffffffffffffff166370a08231306040518263ffffffff1660e01b81526004016118a69190613246565b602060405180830381600087803b1580156118c057600080fd5b505af11580156118d4573d6000803e3d6000fd5b505050506040513d601f19601f820116820180604052508101906118f8919061349e565b1015611930576040517f4be200da00000000000000000000000000000000000000000000000000000000815260040160405180910390fd5b601660009054906101000a900473ffffffffffffffffffffffffffffffffffffffff1673ffffffffffffffffffffffffffffffffffffffff1663a9059cbb6119766123ea565b620f4240846119859190613636565b6040518363ffffffff1660e01b81526004016119a2929190613690565b600060405180830381600087803b1580156119bc57600080fd5b505af11580156119d0573d6000803e3d6000fd5b5050505050565b6000806119e48484612d8f565b90508091505092915050565b60085481565b6000601560003373ffffffffffffffffffffffffffffffffffffffff1673ffffffffffffffffffffffffffffffffffffffff1681526020019081526020016000205411611a6f576040517f3ffb581100000000000000000000000000000000000000000000000000000000815260040160405180910390fd5b600680541015611aab576040517fd396df0900000000000000000000000000000000000000000000000000000000815260040160405180910390fd5b6000601560003373ffffffffffffffffffffffffffffffffffffffff1673ffffffffffffffffffffffffffffffffffffffff168152602001908152602001600020549050601560003373ffffffffffffffffffffffffffffffffffffffff1673ffffffffffffffffffffffffffffffffffffffff16815260200190815260200160002060009055611b3c3382612dd5565b50565b60008060008373ffffffffffffffffffffffffffffffffffffffff1673ffffffffffffffffffffffffffffffffffffffff168152602001908152602001600020549050919050565b611b8f612d11565b611b996000612f2c565b565b60006006541415611bd8576040517f3f1b3b5300000000000000000000000000000000000000000000000000000000815260040160405180910390fd5b600081600b54611be89190613455565b1015611c20576040517f9210988b00000000000000000000000000000000000000000000000000000000815260040160405180910390fd5b60016006541415611d93576000611c3982600d546119d7565b90506301c9c380811015611c79576040517f225e8c9100000000000000000000000000000000000000000000000000000000815260040160405180910390fd5b6000611c8783600d546126f0565b905080341015611cc3576040517f8bbdc31c00000000000000000000000000000000000000000000000000000000815260040160405180910390fd5b82600b6000828254611cd59190613455565b9250508190555082601560003373ffffffffffffffffffffffffffffffffffffffff1673ffffffffffffffffffffffffffffffffffffffff1681526020019081526020016000206000828254611d2b9190613502565b925050819055508160076000828254611d449190613502565b925050819055507f702daf19347ac5d6af369c5a377056b2e08aaaf05065c8b444bacd28abfe619660065433853486604051611d849594939291906136b9565b60405180910390a15050612395565b60026006541415611f06576000611dac82600e546119d7565b90506301c9c380811015611dec576040517f225e8c9100000000000000000000000000000000000000000000000000000000815260040160405180910390fd5b6000611dfa83600e546126f0565b905080341015611e36576040517f8bbdc31c00000000000000000000000000000000000000000000000000000000815260040160405180910390fd5b82600b6000828254611e489190613455565b9250508190555082601560003373ffffffffffffffffffffffffffffffffffffffff1673ffffffffffffffffffffffffffffffffffffffff1681526020019081526020016000206000828254611e9e9190613502565b925050819055508160076000828254611eb79190613502565b925050819055507f702daf19347ac5d6af369c5a377056b2e08aaaf05065c8b444bacd28abfe619660065433853486604051611ef79594939291906136b9565b60405180910390a15050612394565b60036006541415612079576000611f1f82600f546119d7565b90506301c9c380811015611f5f576040517f225e8c9100000000000000000000000000000000000000000000000000000000815260040160405180910390fd5b6000611f6d83600f546126f0565b905080341015611fa9576040517f8bbdc31c00000000000000000000000000000000000000000000000000000000815260040160405180910390fd5b82600b6000828254611fbb9190613455565b9250508190555082601560003373ffffffffffffffffffffffffffffffffffffffff1673ffffffffffffffffffffffffffffffffffffffff16815260200190815260200160002060008282546120119190613502565b92505081905550816007600082825461202a9190613502565b925050819055507f702daf19347ac5d6af369c5a377056b2e08aaaf05065c8b444bacd28abfe61966006543385348660405161206a9594939291906136b9565b60405180910390a15050612393565b600460065414156121ec576000612092826010546119d7565b90506301c9c3808110156120d2576040517f225e8c9100000000000000000000000000000000000000000000000000000000815260040160405180910390fd5b60006120e0836010546126f0565b90508034101561211c576040517f8bbdc31c00000000000000000000000000000000000000000000000000000000815260040160405180910390fd5b82600b600082825461212e9190613455565b9250508190555082601560003373ffffffffffffffffffffffffffffffffffffffff1673ffffffffffffffffffffffffffffffffffffffff16815260200190815260200160002060008282546121849190613502565b92505081905550816007600082825461219d9190613502565b925050819055507f702daf19347ac5d6af369c5a377056b2e08aaaf05065c8b444bacd28abfe6196600654338534866040516121dd9594939291906136b9565b60405180910390a15050612392565b6005600654141561235f576000612205826011546119d7565b90506301c9c380811015612245576040517f225e8c9100000000000000000000000000000000000000000000000000000000815260040160405180910390fd5b6000612253836011546126f0565b90508034101561228f576040517f8bbdc31c00000000000000000000000000000000000000000000000000000000815260040160405180910390fd5b82600b60008282546122a19190613455565b9250508190555082601560003373ffffffffffffffffffffffffffffffffffffffff1673ffffffffffffffffffffffffffffffffffffffff16815260200190815260200160002060008282546122f79190613502565b9250508190555081600760008282546123109190613502565b925050819055507f702daf19347ac5d6af369c5a377056b2e08aaaf05065c8b444bacd28abfe6196600654338534866040516123509594939291906136b9565b60405180910390a15050612391565b6040517fe5c86cd700000000000000000000000000000000000000000000000000000000815260040160405180910390fd5b5b5b5b5b50565b601360009054906101000a900473ffffffffffffffffffffffffffffffffffffffff1681565b601260009054906101000a900473ffffffffffffffffffffffffffffffffffffffff1681565b600e5481565b6000600560009054906101000a900473ffffffffffffffffffffffffffffffffffffffff16905090565b61241c612d11565b61242f6124276123ea565b600b54612dd5565b6000600b8190555060006007819055506005600654111561247c576040517fd32678e600000000000000000000000000000000000000000000000000000000815260040160405180910390fd5b60016006600082825461248f9190613502565b925050819055506006805410156124c5576a52b7d2dcc80cd2e4000000600b60008282546124bd9190613502565b925050819055505b565b6a52b7d2dcc80cd2e400000081565b6060600480546124e5906133f4565b80601f0160208091040260200160405190810160405280929190818152602001828054612511906133f4565b801561255e5780601f106125335761010080835404028352916020019161255e565b820191906000526020600020905b81548152906001019060200180831161254157829003601f168201915b5050505050905090565b600d5481565b60008073ee9f2375b4bdf6387aa8265dd4fb8f16512a1d46905060008173ffffffffffffffffffffffffffffffffffffffff1663feaf968c6040518163ffffffff1660e01b815260040160a06040518083038186803b1580156125d057600080fd5b505afa1580156125e4573d6000803e3d6000fd5b505050506040513d601f19601f820116820180604052508101906126089190613784565b50505091505060008113612648576040517f6ef30c4500000000000000000000000000000000000000000000000000000000815260040160405180910390fd5b809250505090565b60008061265b61283a565b905060006126698286612723565b9050838110156126ae576040517f08c379a00000000000000000000000000000000000000000000000000000000081526004016126a590613871565b60405180910390fd5b6126bb8286868403612842565b60019250505092915050565b6000806126d261283a565b90506126df818585612a99565b600191505092915050565b60105481565b6000806126fd8484612d8f565b9050600061270a82612ff2565b9050809250505092915050565b60075481565b600b5481565b6000600160008473ffffffffffffffffffffffffffffffffffffffff1673ffffffffffffffffffffffffffffffffffffffff16815260200190815260200160002060008373ffffffffffffffffffffffffffffffffffffffff1673ffffffffffffffffffffffffffffffffffffffff16815260200190815260200160002054905092915050565b600a5481565b6127b8612d11565b600073ffffffffffffffffffffffffffffffffffffffff168173ffffffffffffffffffffffffffffffffffffffff161415612828576040517f08c379a000000000000000000000000000000000000000000000000000000000815260040161281f90613903565b60405180910390fd5b61283181612f2c565b50565b60115481565b600033905090565b600073ffffffffffffffffffffffffffffffffffffffff168373ffffffffffffffffffffffffffffffffffffffff1614156128b2576040517f08c379a00000000000000000000000000000000000000000000000000000000081526004016128a990613995565b60405180910390fd5b600073ffffffffffffffffffffffffffffffffffffffff168273ffffffffffffffffffffffffffffffffffffffff161415612922576040517f08c379a000000000000000000000000000000000000000000000000000000000815260040161291990613a27565b60405180910390fd5b80600160008573ffffffffffffffffffffffffffffffffffffffff1673ffffffffffffffffffffffffffffffffffffffff16815260200190815260200160002060008473ffffffffffffffffffffffffffffffffffffffff1673ffffffffffffffffffffffffffffffffffffffff168152602001908152602001600020819055508173ffffffffffffffffffffffffffffffffffffffff168373ffffffffffffffffffffffffffffffffffffffff167f8c5be1e5ebec7d5bd14f71427d1e84f3dd0314c0f7b2291e5b200ac8c7c3b92583604051612a00919061305c565b60405180910390a3505050565b6000612a198484612723565b90507fffffffffffffffffffffffffffffffffffffffffffffffffffffffffffffffff8114612a935781811015612a85576040517f08c379a0000000000000000000000000000000000000000000000000000000008152600401612a7c90613a93565b60405180910390fd5b612a928484848403612842565b5b50505050565b600073ffffffffffffffffffffffffffffffffffffffff168373ffffffffffffffffffffffffffffffffffffffff161415612b09576040517f08c379a0000000000000000000000000000000000000000000000000000000008152600401612b0090613b25565b60405180910390fd5b600073ffffffffffffffffffffffffffffffffffffffff168273ffffffffffffffffffffffffffffffffffffffff161415612b79576040517f08c379a0000000000000000000000000000000000000000000000000000000008152600401612b7090613bb7565b60405180910390fd5b612b84838383613039565b60008060008573ffffffffffffffffffffffffffffffffffffffff1673ffffffffffffffffffffffffffffffffffffffff16815260200190815260200160002054905081811015612c0a576040517f08c379a0000000000000000000000000000000000000000000000000000000008152600401612c0190613c49565b60405180910390fd5b8181036000808673ffffffffffffffffffffffffffffffffffffffff1673ffffffffffffffffffffffffffffffffffffffff16815260200190815260200160002081905550816000808573ffffffffffffffffffffffffffffffffffffffff1673ffffffffffffffffffffffffffffffffffffffff168152602001908152602001600020600082825401925050819055508273ffffffffffffffffffffffffffffffffffffffff168473ffffffffffffffffffffffffffffffffffffffff167fddf252ad1be2c89b69c2b068fc378daa952ba7f163c4a11628f55a4df523b3ef84604051612cf8919061305c565b60405180910390a3612d0b84848461303e565b50505050565b612d1961283a565b73ffffffffffffffffffffffffffffffffffffffff16612d376123ea565b73ffffffffffffffffffffffffffffffffffffffff1614612d8d576040517f08c379a0000000000000000000000000000000000000000000000000000000008152600401612d8490613cb5565b60405180910390fd5b565b600080600c5483612da09190613636565b905060006c0c9f2c9cd04674edea400000008583612dbe9190613636565b612dc89190613d04565b9050809250505092915050565b600073ffffffffffffffffffffffffffffffffffffffff168273ffffffffffffffffffffffffffffffffffffffff161415612e45576040517f08c379a0000000000000000000000000000000000000000000000000000000008152600401612e3c90613d81565b60405180910390fd5b612e5160008383613039565b8060026000828254612e639190613502565b92505081905550806000808473ffffffffffffffffffffffffffffffffffffffff1673ffffffffffffffffffffffffffffffffffffffff168152602001908152602001600020600082825401925050819055508173ffffffffffffffffffffffffffffffffffffffff16600073ffffffffffffffffffffffffffffffffffffffff167fddf252ad1be2c89b69c2b068fc378daa952ba7f163c4a11628f55a4df523b3ef83604051612f14919061305c565b60405180910390a3612f286000838361303e565b5050565b6000600560009054906101000a900473ffffffffffffffffffffffffffffffffffffffff16905081600560006101000a81548173ffffffffffffffffffffffffffffffffffffffff021916908373ffffffffffffffffffffffffffffffffffffffff1602179055508173ffffffffffffffffffffffffffffffffffffffff168173ffffffffffffffffffffffffffffffffffffffff167f8be0079c531659141344cd1fd0a4f28419497f9722a3daafe3b4186f6b6457e060405160405180910390a35050565b600080670de0b6b3a7640000600c548461300c9190613636565b6130169190613d04565b905060008161302361256e565b61302d9190613636565b90508092505050919050565b505050565b505050565b6000819050919050565b61305681613043565b82525050565b6000602082019050613071600083018461304d565b92915050565b600081519050919050565b600082825260208201905092915050565b60005b838110156130b1578082015181840152602081019050613096565b838111156130c0576000848401525b50505050565b6000601f19601f8301169050919050565b60006130e282613077565b6130ec8185613082565b93506130fc818560208601613093565b613105816130c6565b840191505092915050565b6000602082019050818103600083015261312a81846130d7565b905092915050565b600080fd5b600073ffffffffffffffffffffffffffffffffffffffff82169050919050565b600061316282613137565b9050919050565b61317281613157565b811461317d57600080fd5b50565b60008135905061318f81613169565b92915050565b61319e81613043565b81146131a957600080fd5b50565b6000813590506131bb81613195565b92915050565b600080604083850312156131d8576131d7613132565b5b60006131e685828601613180565b92505060206131f7858286016131ac565b9150509250929050565b60008115159050919050565b61321681613201565b82525050565b6000602082019050613231600083018461320d565b92915050565b61324081613157565b82525050565b600060208201905061325b6000830184613237565b92915050565b60006020828403121561327757613276613132565b5b600061328584828501613180565b91505092915050565b6000602082840312156132a4576132a3613132565b5b60006132b2848285016131ac565b91505092915050565b6000806000606084860312156132d4576132d3613132565b5b60006132e286828701613180565b93505060206132f386828701613180565b9250506040613304868287016131ac565b9150509250925092565b600060ff82169050919050565b6133248161330e565b82525050565b600060208201905061333f600083018461331b565b92915050565b6000806040838503121561335c5761335b613132565b5b600061336a858286016131ac565b925050602061337b858286016131ac565b9150509250929050565b6000806040838503121561339c5761339b613132565b5b60006133aa85828601613180565b92505060206133bb85828601613180565b9150509250929050565b7f4e487b7100000000000000000000000000000000000000000000000000000000600052602260045260246000fd5b6000600282049050600182168061340c57607f821691505b602082108114156134205761341f6133c5565b5b50919050565b7f4e487b7100000000000000000000000000000000000000000000000000000000600052601160045260246000fd5b600061346082613043565b915061346b83613043565b92508282101561347e5761347d613426565b5b828203905092915050565b60008151905061349881613195565b92915050565b6000602082840312156134b4576134b3613132565b5b60006134c284828501613489565b91505092915050565b60006060820190506134e06000830186613237565b6134ed6020830185613237565b6134fa604083018461304d565b949350505050565b600061350d82613043565b915061351883613043565b9250827fffffffffffffffffffffffffffffffffffffffffffffffffffffffffffffffff0382111561354d5761354c613426565b5b828201905092915050565b6000819050919050565b6000819050919050565b600061358761358261357d84613558565b613562565b613043565b9050919050565b6135978161356c565b82525050565b600060a0820190506135b2600083018861304d565b6135bf6020830187613237565b6135cc604083018661304d565b6135d9606083018561358e565b6135e6608083018461304d565b9695505050505050565b600081905092915050565b50565b600061360b6000836135f0565b9150613616826135fb565b600082019050919050565b600061362c826135fe565b9150819050919050565b600061364182613043565b915061364c83613043565b9250817fffffffffffffffffffffffffffffffffffffffffffffffffffffffffffffffff048311821515161561368557613684613426565b5b828202905092915050565b60006040820190506136a56000830185613237565b6136b2602083018461304d565b9392505050565b600060a0820190506136ce600083018861304d565b6136db6020830187613237565b6136e8604083018661304d565b6136f5606083018561304d565b613702608083018461304d565b9695505050505050565b600069ffffffffffffffffffff82169050919050565b61372b8161370c565b811461373657600080fd5b50565b60008151905061374881613722565b92915050565b6000819050919050565b6137618161374e565b811461376c57600080fd5b50565b60008151905061377e81613758565b92915050565b600080600080600060a086880312156137a05761379f613132565b5b60006137ae88828901613739565b95505060206137bf8882890161376f565b94505060406137d088828901613489565b93505060606137e188828901613489565b92505060806137f288828901613739565b9150509295509295909350565b7f45524332303a2064656372656173656420616c6c6f77616e63652062656c6f7760008201527f207a65726f000000000000000000000000000000000000000000000000000000602082015250565b600061385b602583613082565b9150613866826137ff565b604082019050919050565b6000602082019050818103600083015261388a8161384e565b9050919050565b7f4f776e61626c653a206e6577206f776e657220697320746865207a65726f206160008201527f6464726573730000000000000000000000000000000000000000000000000000602082015250565b60006138ed602683613082565b91506138f882613891565b604082019050919050565b6000602082019050818103600083015261391c816138e0565b9050919050565b7f45524332303a20617070726f76652066726f6d20746865207a65726f2061646460008201527f7265737300000000000000000000000000000000000000000000000000000000602082015250565b600061397f602483613082565b915061398a82613923565b604082019050919050565b600060208201905081810360008301526139ae81613972565b9050919050565b7f45524332303a20617070726f766520746f20746865207a65726f20616464726560008201527f7373000000000000000000000000000000000000000000000000000000000000602082015250565b6000613a11602283613082565b9150613a1c826139b5565b604082019050919050565b60006020820190508181036000830152613a4081613a04565b9050919050565b7f45524332303a20696e73756666696369656e7420616c6c6f77616e6365000000600082015250565b6000613a7d601d83613082565b9150613a8882613a47565b602082019050919050565b60006020820190508181036000830152613aac81613a70565b9050919050565b7f45524332303a207472616e736665722066726f6d20746865207a65726f20616460008201527f6472657373000000000000000000000000000000000000000000000000000000602082015250565b6000613b0f602583613082565b9150613b1a82613ab3565b604082019050919050565b60006020820190508181036000830152613b3e81613b02565b9050919050565b7f45524332303a207472616e7366657220746f20746865207a65726f206164647260008201527f6573730000000000000000000000000000000000000000000000000000000000602082015250565b6000613ba1602383613082565b9150613bac82613b45565b604082019050919050565b60006020820190508181036000830152613bd081613b94565b9050919050565b7f45524332303a207472616e7366657220616d6f756e742065786365656473206260008201527f616c616e63650000000000000000000000000000000000000000000000000000602082015250565b6000613c33602683613082565b9150613c3e82613bd7565b604082019050919050565b60006020820190508181036000830152613c6281613c26565b9050919050565b7f4f776e61626c653a2063616c6c6572206973206e6f7420746865206f776e6572600082015250565b6000613c9f602083613082565b9150613caa82613c69565b602082019050919050565b60006020820190508181036000830152613cce81613c92565b9050919050565b7f4e487b7100000000000000000000000000000000000000000000000000000000600052601260045260246000fd5b6000613d0f82613043565b9150613d1a83613043565b925082613d2a57613d29613cd5565b5b828204905092915050565b7f45524332303a206d696e7420746f20746865207a65726f206164647265737300600082015250565b6000613d6b601f83613082565b9150613d7682613d35565b602082019050919050565b60006020820190508181036000830152613d9a81613d5e565b905091905056fea264697066735822122081c4301671f1e0ac23ff188c63bed16f1989e21d653f8a93d2d45f36f43118fe64736f6c63430008090033",
  "linkReferences": {},
  "deployedLinkReferences": {}
}