{
  "_format": "hh-sol-artifact-1",
  "contractName": "AIMToken",
  "sourceName": "contracts/AIMToken.sol",
  "abi": [
    {
      "inputs": [
        {
          "internalType": "address",
          "name": "_token",
          "type": "address"
        }
      ],
      "stateMutability": "nonpayable",
      "type": "constructor"
    },
    {
      "inputs": [],
      "name": "contractDontHaveUSDT",
      "type": "error"
    },
    {
      "inputs": [],
      "name": "mintingIsNotAllowed",
      "type": "error"
    },
    {
      "inputs": [],
      "name": "pleaseSendTokenPrice",
      "type": "error"
    },
    {
      "inputs": [],
      "name": "roundSupplyLimitExceed",
      "type": "error"
    },
    {
      "inputs": [],
      "name": "transferFaild",
      "type": "error"
    },
    {
      "inputs": [],
      "name": "waitForStartingSaleRoud",
      "type": "error"
    },
    {
      "inputs": [],
      "name": "youDontHaveEnoughBalance",
      "type": "error"
    },
    {
      "inputs": [],
      "name": "youHavePurchasedToken",
      "type": "error"
    },
    {
      "anonymous": false,
      "inputs": [
        {
          "indexed": true,
          "internalType": "address",
          "name": "owner",
          "type": "address"
        },
        {
          "indexed": true,
          "internalType": "address",
          "name": "spender",
          "type": "address"
        },
        {
          "indexed": false,
          "internalType": "uint256",
          "name": "value",
          "type": "uint256"
        }
      ],
      "name": "Approval",
      "type": "event"
    },
    {
      "anonymous": false,
      "inputs": [
        {
          "indexed": true,
          "internalType": "address",
          "name": "previousOwner",
          "type": "address"
        },
        {
          "indexed": true,
          "internalType": "address",
          "name": "newOwner",
          "type": "address"
        }
      ],
      "name": "OwnershipTransferred",
      "type": "event"
    },
    {
      "anonymous": false,
      "inputs": [
        {
          "indexed": false,
          "internalType": "uint256",
          "name": "_round",
          "type": "uint256"
        },
        {
          "indexed": false,
          "internalType": "address",
          "name": "_user",
          "type": "address"
        },
        {
          "indexed": false,
          "internalType": "uint256",
          "name": "_soldToken",
          "type": "uint256"
        },
        {
          "indexed": false,
          "internalType": "uint256",
          "name": "_BuywithEth",
          "type": "uint256"
        },
        {
          "indexed": false,
          "internalType": "uint256",
          "name": "_BuywithUSDT",
          "type": "uint256"
        }
      ],
      "name": "RoundData",
      "type": "event"
    },
    {
      "anonymous": false,
      "inputs": [
        {
          "indexed": true,
          "internalType": "address",
          "name": "from",
          "type": "address"
        },
        {
          "indexed": true,
          "internalType": "address",
          "name": "to",
          "type": "address"
        },
        {
          "indexed": false,
          "internalType": "uint256",
          "name": "value",
          "type": "uint256"
        }
      ],
      "name": "Transfer",
      "type": "event"
    },
    {
      "inputs": [
        {
          "internalType": "address",
          "name": "owner",
          "type": "address"
        },
        {
          "internalType": "address",
          "name": "spender",
          "type": "address"
        }
      ],
      "name": "allowance",
      "outputs": [
        {
          "internalType": "uint256",
          "name": "",
          "type": "uint256"
        }
      ],
      "stateMutability": "view",
      "type": "function"
    },
    {
      "inputs": [
        {
          "internalType": "address",
          "name": "spender",
          "type": "address"
        },
        {
          "internalType": "uint256",
          "name": "amount",
          "type": "uint256"
        }
      ],
      "name": "approve",
      "outputs": [
        {
          "internalType": "bool",
          "name": "",
          "type": "bool"
        }
      ],
      "stateMutability": "nonpayable",
      "type": "function"
    },
    {
      "inputs": [
        {
          "internalType": "address",
          "name": "account",
          "type": "address"
        }
      ],
      "name": "balanceOf",
      "outputs": [
        {
          "internalType": "uint256",
          "name": "",
          "type": "uint256"
        }
      ],
      "stateMutability": "view",
      "type": "function"
    },
    {
      "inputs": [
        {
          "internalType": "uint256",
          "name": "",
          "type": "uint256"
        }
      ],
      "name": "buyerAddress",
      "outputs": [
        {
          "internalType": "address",
          "name": "",
          "type": "address"
        }
      ],
      "stateMutability": "view",
      "type": "function"
    },
    {
      "inputs": [],
      "name": "claimAIMToken",
      "outputs": [],
      "stateMutability": "nonpayable",
      "type": "function"
    },
    {
      "inputs": [],
      "name": "decimals",
      "outputs": [
        {
          "internalType": "uint8",
          "name": "",
          "type": "uint8"
        }
      ],
      "stateMutability": "view",
      "type": "function"
    },
    {
      "inputs": [
        {
          "internalType": "address",
          "name": "spender",
          "type": "address"
        },
        {
          "internalType": "uint256",
          "name": "subtractedValue",
          "type": "uint256"
        }
      ],
      "name": "decreaseAllowance",
      "outputs": [
        {
          "internalType": "bool",
          "name": "",
          "type": "bool"
        }
      ],
      "stateMutability": "nonpayable",
      "type": "function"
    },
    {
      "inputs": [],
      "name": "ethRaisedInCurrentRound",
      "outputs": [
        {
          "internalType": "uint256",
          "name": "",
          "type": "uint256"
        }
      ],
      "stateMutability": "view",
      "type": "function"
    },
    {
      "inputs": [],
      "name": "exchangeTokens",
      "outputs": [
        {
          "internalType": "uint256",
          "name": "",
          "type": "uint256"
        }
      ],
      "stateMutability": "view",
      "type": "function"
    },
    {
      "inputs": [],
      "name": "exchangeTokensWallet",
      "outputs": [
        {
          "internalType": "address",
          "name": "",
          "type": "address"
        }
      ],
      "stateMutability": "view",
      "type": "function"
    },
    {
      "inputs": [],
      "name": "getLatestUSDTPrice",
      "outputs": [
        {
          "internalType": "uint256",
          "name": "",
          "type": "uint256"
        }
      ],
      "stateMutability": "view",
      "type": "function"
    },
    {
      "inputs": [
        {
          "internalType": "address",
          "name": "spender",
          "type": "address"
        },
        {
          "internalType": "uint256",
          "name": "addedValue",
          "type": "uint256"
        }
      ],
      "name": "increaseAllowance",
      "outputs": [
        {
          "internalType": "bool",
          "name": "",
          "type": "bool"
        }
      ],
      "stateMutability": "nonpayable",
      "type": "function"
    },
    {
      "inputs": [
        {
          "internalType": "address",
          "name": "",
          "type": "address"
        }
      ],
      "name": "isBuyer",
      "outputs": [
        {
          "internalType": "bool",
          "name": "",
          "type": "bool"
        }
      ],
      "stateMutability": "view",
      "type": "function"
    },
    {
      "inputs": [],
      "name": "liquidityTokens",
      "outputs": [
        {
          "internalType": "uint256",
          "name": "",
          "type": "uint256"
        }
      ],
      "stateMutability": "view",
      "type": "function"
    },
    {
      "inputs": [],
      "name": "liquidityTokensWallet",
      "outputs": [
        {
          "internalType": "address",
          "name": "",
          "type": "address"
        }
      ],
      "stateMutability": "view",
      "type": "function"
    },
    {
      "inputs": [
        {
          "internalType": "uint256",
          "name": "_amount",
          "type": "uint256"
        }
      ],
      "name": "mintByEth",
      "outputs": [],
      "stateMutability": "payable",
      "type": "function"
    },
    {
      "inputs": [
        {
          "internalType": "uint256",
          "name": "_amount",
          "type": "uint256"
        }
      ],
      "name": "mintByUSDT",
      "outputs": [],
      "stateMutability": "nonpayable",
      "type": "function"
    },
    {
      "inputs": [],
      "name": "name",
      "outputs": [
        {
          "internalType": "string",
          "name": "",
          "type": "string"
        }
      ],
      "stateMutability": "view",
      "type": "function"
    },
    {
      "inputs": [],
      "name": "noOfUsersInRound",
      "outputs": [
        {
          "internalType": "uint256",
          "name": "",
          "type": "uint256"
        }
      ],
      "stateMutability": "view",
      "type": "function"
    },
    {
      "inputs": [],
      "name": "owner",
      "outputs": [
        {
          "internalType": "address",
          "name": "",
          "type": "address"
        }
      ],
      "stateMutability": "view",
      "type": "function"
    },
    {
      "inputs": [],
      "name": "remainingSupply",
      "outputs": [
        {
          "internalType": "uint256",
          "name": "",
          "type": "uint256"
        }
      ],
      "stateMutability": "view",
      "type": "function"
    },
    {
      "inputs": [],
      "name": "renounceOwnership",
      "outputs": [],
      "stateMutability": "nonpayable",
      "type": "function"
    },
    {
      "inputs": [],
      "name": "round",
      "outputs": [
        {
          "internalType": "uint256",
          "name": "",
          "type": "uint256"
        }
      ],
      "stateMutability": "view",
      "type": "function"
    },
    {
      "inputs": [],
      "name": "round1Price",
      "outputs": [
        {
          "internalType": "uint256",
          "name": "",
          "type": "uint256"
        }
      ],
      "stateMutability": "view",
      "type": "function"
    },
    {
      "inputs": [],
      "name": "round2Price",
      "outputs": [
        {
          "internalType": "uint256",
          "name": "",
          "type": "uint256"
        }
      ],
      "stateMutability": "view",
      "type": "function"
    },
    {
      "inputs": [],
      "name": "round3Price",
      "outputs": [
        {
          "internalType": "uint256",
          "name": "",
          "type": "uint256"
        }
      ],
      "stateMutability": "view",
      "type": "function"
    },
    {
      "inputs": [],
      "name": "round4Price",
      "outputs": [
        {
          "internalType": "uint256",
          "name": "",
          "type": "uint256"
        }
      ],
      "stateMutability": "view",
      "type": "function"
    },
    {
      "inputs": [],
      "name": "round5Price",
      "outputs": [
        {
          "internalType": "uint256",
          "name": "",
          "type": "uint256"
        }
      ],
      "stateMutability": "view",
      "type": "function"
    },
    {
      "inputs": [],
      "name": "roundLimit",
      "outputs": [
        {
          "internalType": "uint256",
          "name": "",
          "type": "uint256"
        }
      ],
      "stateMutability": "view",
      "type": "function"
    },
    {
      "inputs": [
        {
          "internalType": "uint256",
          "name": "",
          "type": "uint256"
        }
      ],
      "name": "roundsData",
      "outputs": [
        {
          "internalType": "uint256",
          "name": "usersInRound",
          "type": "uint256"
        },
        {
          "internalType": "uint256",
          "name": "tokensSold",
          "type": "uint256"
        },
        {
          "internalType": "uint256",
          "name": "ethRaised",
          "type": "uint256"
        },
        {
          "internalType": "uint256",
          "name": "usdtRaised",
          "type": "uint256"
        }
      ],
      "stateMutability": "view",
      "type": "function"
    },
    {
      "inputs": [
        {
          "internalType": "uint256",
          "name": "_amount",
          "type": "uint256"
        },
        {
          "internalType": "uint256",
          "name": "_roundPrice",
          "type": "uint256"
        }
      ],
      "name": "sellTokenInETHPrice",
      "outputs": [
        {
          "internalType": "uint256",
          "name": "",
          "type": "uint256"
        }
      ],
      "stateMutability": "view",
      "type": "function"
    },
    {
      "inputs": [
        {
          "internalType": "uint256",
          "name": "_amount",
          "type": "uint256"
        },
        {
          "internalType": "uint256",
          "name": "_roundPrice",
          "type": "uint256"
        }
      ],
      "name": "sellTokenInUDSTPrice",
      "outputs": [
        {
          "internalType": "uint256",
          "name": "",
          "type": "uint256"
        }
      ],
      "stateMutability": "view",
      "type": "function"
    },
    {
      "inputs": [
        {
          "internalType": "address",
          "name": "",
          "type": "address"
        }
      ],
      "name": "soldTokens",
      "outputs": [
        {
          "internalType": "uint256",
          "name": "",
          "type": "uint256"
        }
      ],
      "stateMutability": "view",
      "type": "function"
    },
    {
      "inputs": [],
      "name": "stakeholdersTokens",
      "outputs": [
        {
          "internalType": "uint256",
          "name": "",
          "type": "uint256"
        }
      ],
      "stateMutability": "view",
      "type": "function"
    },
    {
      "inputs": [],
      "name": "stakeholdersTokensWallet",
      "outputs": [
        {
          "internalType": "address",
          "name": "",
          "type": "address"
        }
      ],
      "stateMutability": "view",
      "type": "function"
    },
    {
      "inputs": [],
      "name": "startTheSale",
      "outputs": [],
      "stateMutability": "nonpayable",
      "type": "function"
    },
    {
      "inputs": [],
      "name": "symbol",
      "outputs": [
        {
          "internalType": "string",
          "name": "",
          "type": "string"
        }
      ],
      "stateMutability": "view",
      "type": "function"
    },
    {
      "inputs": [],
      "name": "tokensSoldInCurrentRound",
      "outputs": [
        {
          "internalType": "uint256",
          "name": "",
          "type": "uint256"
        }
      ],
      "stateMutability": "view",
      "type": "function"
    },
    {
      "inputs": [],
      "name": "totalSupply",
      "outputs": [
        {
          "internalType": "uint256",
          "name": "",
          "type": "uint256"
        }
      ],
      "stateMutability": "pure",
      "type": "function"
    },
    {
      "inputs": [
        {
          "internalType": "address",
          "name": "to",
          "type": "address"
        },
        {
          "internalType": "uint256",
          "name": "amount",
          "type": "uint256"
        }
      ],
      "name": "transfer",
      "outputs": [
        {
          "internalType": "bool",
          "name": "",
          "type": "bool"
        }
      ],
      "stateMutability": "nonpayable",
      "type": "function"
    },
    {
      "inputs": [
        {
          "internalType": "address",
          "name": "from",
          "type": "address"
        },
        {
          "internalType": "address",
          "name": "to",
          "type": "address"
        },
        {
          "internalType": "uint256",
          "name": "amount",
          "type": "uint256"
        }
      ],
      "name": "transferFrom",
      "outputs": [
        {
          "internalType": "bool",
          "name": "",
          "type": "bool"
        }
      ],
      "stateMutability": "nonpayable",
      "type": "function"
    },
    {
      "inputs": [
        {
          "internalType": "address",
          "name": "newOwner",
          "type": "address"
        }
      ],
      "name": "transferOwnership",
      "outputs": [],
      "stateMutability": "nonpayable",
      "type": "function"
    },
    {
      "inputs": [],
      "name": "usdtRaisedInCurrentRound",
      "outputs": [
        {
          "internalType": "uint256",
          "name": "",
          "type": "uint256"
        }
      ],
      "stateMutability": "view",
      "type": "function"
    },
    {
      "inputs": [
        {
          "internalType": "address",
          "name": "",
          "type": "address"
        }
      ],
      "name": "usersR1",
      "outputs": [
        {
          "internalType": "bool",
          "name": "",
          "type": "bool"
        }
      ],
      "stateMutability": "view",
      "type": "function"
    },
    {
      "inputs": [
        {
          "internalType": "address",
          "name": "",
          "type": "address"
        }
      ],
      "name": "usersR2",
      "outputs": [
        {
          "internalType": "bool",
          "name": "",
          "type": "bool"
        }
      ],
      "stateMutability": "view",
      "type": "function"
    },
    {
      "inputs": [
        {
          "internalType": "address",
          "name": "",
          "type": "address"
        }
      ],
      "name": "usersR3",
      "outputs": [
        {
          "internalType": "bool",
          "name": "",
          "type": "bool"
        }
      ],
      "stateMutability": "view",
      "type": "function"
    },
    {
      "inputs": [
        {
          "internalType": "address",
          "name": "",
          "type": "address"
        }
      ],
      "name": "usersR4",
      "outputs": [
        {
          "internalType": "bool",
          "name": "",
          "type": "bool"
        }
      ],
      "stateMutability": "view",
      "type": "function"
    },
    {
      "inputs": [
        {
          "internalType": "address",
          "name": "",
          "type": "address"
        }
      ],
      "name": "usersR5",
      "outputs": [
        {
          "internalType": "bool",
          "name": "",
          "type": "bool"
        }
      ],
      "stateMutability": "view",
      "type": "function"
    },
    {
      "inputs": [],
      "name": "withdraw",
      "outputs": [],
      "stateMutability": "nonpayable",
      "type": "function"
    },
    {
      "inputs": [],
      "name": "withdrawUSDT",
      "outputs": [],
      "stateMutability": "nonpayable",
      "type": "function"
    }
  ],
  "bytecode": "0x60806040526a52b7d2dcc80cd2e40000006007556aa56fa5b99019a5c80000006008556aa56fa5b99019a5c800000060095564e8d4a51000600c55611388600d55612710600e55614e20600f55619c40601055620138806011553480156200006657600080fd5b50604051620059ea380380620059ea83398181016040528101906200008c91906200059a565b6040518060400160405280600881526020017f41494d546f6b656e0000000000000000000000000000000000000000000000008152506040518060400160405280600381526020017f41494d0000000000000000000000000000000000000000000000000000000000815250816003908162000109919062000846565b5080600490816200011b919062000846565b5050506200013e62000132620002eb60201b60201c565b620002f360201b60201c565b30601360006101000a81548173ffffffffffffffffffffffffffffffffffffffff021916908373ffffffffffffffffffffffffffffffffffffffff16021790555030601260006101000a81548173ffffffffffffffffffffffffffffffffffffffff021916908373ffffffffffffffffffffffffffffffffffffffff16021790555030601460006101000a81548173ffffffffffffffffffffffffffffffffffffffff021916908373ffffffffffffffffffffffffffffffffffffffff16021790555062000237601360009054906101000a900473ffffffffffffffffffffffffffffffffffffffff16600854620003b960201b60201c565b6200026d601260009054906101000a900473ffffffffffffffffffffffffffffffffffffffff16600754620003b960201b60201c565b620002a3601460009054906101000a900473ffffffffffffffffffffffffffffffffffffffff16600954620003b960201b60201c565b80602160006101000a81548173ffffffffffffffffffffffffffffffffffffffff021916908373ffffffffffffffffffffffffffffffffffffffff1602179055505062000a48565b600033905090565b6000600560009054906101000a900473ffffffffffffffffffffffffffffffffffffffff16905081600560006101000a81548173ffffffffffffffffffffffffffffffffffffffff021916908373ffffffffffffffffffffffffffffffffffffffff1602179055508173ffffffffffffffffffffffffffffffffffffffff168173ffffffffffffffffffffffffffffffffffffffff167f8be0079c531659141344cd1fd0a4f28419497f9722a3daafe3b4186f6b6457e060405160405180910390a35050565b600073ffffffffffffffffffffffffffffffffffffffff168273ffffffffffffffffffffffffffffffffffffffff16036200042b576040517f08c379a000000000000000000000000000000000000000000000000000000000815260040162000422906200098e565b60405180910390fd5b6200043f600083836200052660201b60201c565b8060026000828254620004539190620009df565b92505081905550806000808473ffffffffffffffffffffffffffffffffffffffff1673ffffffffffffffffffffffffffffffffffffffff168152602001908152602001600020600082825401925050819055508173ffffffffffffffffffffffffffffffffffffffff16600073ffffffffffffffffffffffffffffffffffffffff167fddf252ad1be2c89b69c2b068fc378daa952ba7f163c4a11628f55a4df523b3ef8360405162000506919062000a2b565b60405180910390a362000522600083836200052b60201b60201c565b5050565b505050565b505050565b600080fd5b600073ffffffffffffffffffffffffffffffffffffffff82169050919050565b6000620005628262000535565b9050919050565b620005748162000555565b81146200058057600080fd5b50565b600081519050620005948162000569565b92915050565b600060208284031215620005b357620005b262000530565b5b6000620005c38482850162000583565b91505092915050565b600081519050919050565b7f4e487b7100000000000000000000000000000000000000000000000000000000600052604160045260246000fd5b7f4e487b7100000000000000000000000000000000000000000000000000000000600052602260045260246000fd5b600060028204905060018216806200064e57607f821691505b60208210810362000664576200066362000606565b5b50919050565b60008190508160005260206000209050919050565b60006020601f8301049050919050565b600082821b905092915050565b600060088302620006ce7fffffffffffffffffffffffffffffffffffffffffffffffffffffffffffffffff826200068f565b620006da86836200068f565b95508019841693508086168417925050509392505050565b6000819050919050565b6000819050919050565b600062000727620007216200071b84620006f2565b620006fc565b620006f2565b9050919050565b6000819050919050565b620007438362000706565b6200075b62000752826200072e565b8484546200069c565b825550505050565b600090565b6200077262000763565b6200077f81848462000738565b505050565b5b81811015620007a7576200079b60008262000768565b60018101905062000785565b5050565b601f821115620007f657620007c0816200066a565b620007cb846200067f565b81016020851015620007db578190505b620007f3620007ea856200067f565b83018262000784565b50505b505050565b600082821c905092915050565b60006200081b60001984600802620007fb565b1980831691505092915050565b600062000836838362000808565b9150826002028217905092915050565b6200085182620005cc565b67ffffffffffffffff8111156200086d576200086c620005d7565b5b62000879825462000635565b62000886828285620007ab565b600060209050601f831160018114620008be5760008415620008a9578287015190505b620008b5858262000828565b86555062000925565b601f198416620008ce866200066a565b60005b82811015620008f857848901518255600182019150602085019450602081019050620008d1565b8683101562000918578489015162000914601f89168262000808565b8355505b6001600288020188555050505b505050505050565b600082825260208201905092915050565b7f45524332303a206d696e7420746f20746865207a65726f206164647265737300600082015250565b600062000976601f836200092d565b915062000983826200093e565b602082019050919050565b60006020820190508181036000830152620009a98162000967565b9050919050565b7f4e487b7100000000000000000000000000000000000000000000000000000000600052601160045260246000fd5b6000620009ec82620006f2565b9150620009f983620006f2565b925082820190508082111562000a145762000a13620009b0565b5b92915050565b62000a2581620006f2565b82525050565b600060208201905062000a42600083018462000a1a565b92915050565b614f928062000a586000396000f3fe6080604052600436106102c85760003560e01c80638182567a11610175578063ba0dc0cd116100dc578063da0239a611610095578063e167dbca1161006f578063e167dbca14610b59578063e86fa66514610b84578063f2fde38b14610baf578063f497f6ca14610bd8576102c8565b8063da0239a614610ab4578063dd62ed3e14610adf578063e092844c14610b1c576102c8565b8063ba0dc0cd14610967578063bed9b952146109a4578063bf595e6e146109e1578063c6f57c1e14610a1e578063c97d867914610a49578063d7f24c5d14610a89576102c8565b806395d89b411161012e57806395d89b4114610841578063965788791461086c57806398dd36bf14610897578063a457c2d7146108c2578063a9059cbb146108ff578063b1272af01461093c576102c8565b80638182567a1461074157806389d454af1461076c5780638da5cb5b146107975780638de2637b146107c2578063931da286146107d9578063949f264214610816576102c8565b8063313ce567116102345780634f6abf1b116101ed57806370a08231116101c757806370a08231146106a6578063715018a6146106e357806377186fba146106fa5780637a8c2ffe14610716576102c8565b80634f6abf1b146106275780636a43bcad146106645780636aab41df1461068f576102c8565b8063313ce56714610529578063362e496b14610554578063395093511461056b5780633ccfd60b146105a85780634184bcce146105bf5780634b8ce602146105fc576102c8565b806318160ddd1161028657806318160ddd146103e157806319617e341461040c5780631a4655a5146104495780632342583b1461048657806323b872dd146104af5780632a55feec146104ec576102c8565b8062b39c6a146102cd57806301730943146102f857806306fdde0314610323578063095ea7b31461034e57806314032c2b1461038b578063146ca531146103b6575b600080fd5b3480156102d957600080fd5b506102e2610c03565b6040516102ef919061408a565b60405180910390f35b34801561030457600080fd5b5061030d610c09565b60405161031a919061408a565b60405180910390f35b34801561032f57600080fd5b50610338610c0f565b6040516103459190614135565b60405180910390f35b34801561035a57600080fd5b50610375600480360381019061037091906141e6565b610ca1565b6040516103829190614241565b60405180910390f35b34801561039757600080fd5b506103a0610cc4565b6040516103ad919061426b565b60405180910390f35b3480156103c257600080fd5b506103cb610cea565b6040516103d8919061408a565b60405180910390f35b3480156103ed57600080fd5b506103f6610cf0565b604051610403919061408a565b60405180910390f35b34801561041857600080fd5b50610433600480360381019061042e9190614286565b610d04565b604051610440919061408a565b60405180910390f35b34801561045557600080fd5b50610470600480360381019061046b9190614286565b610d1c565b60405161047d9190614241565b60405180910390f35b34801561049257600080fd5b506104ad60048036038101906104a891906142b3565b610d3c565b005b3480156104bb57600080fd5b506104d660048036038101906104d191906142e0565b612130565b6040516104e39190614241565b60405180910390f35b3480156104f857600080fd5b50610513600480360381019061050e9190614286565b61215f565b6040516105209190614241565b60405180910390f35b34801561053557600080fd5b5061053e61217f565b60405161054b919061434f565b60405180910390f35b34801561056057600080fd5b50610569612188565b005b34801561057757600080fd5b50610592600480360381019061058d91906141e6565b61239d565b60405161059f9190614241565b60405180910390f35b3480156105b457600080fd5b506105bd6123d4565b005b3480156105cb57600080fd5b506105e660048036038101906105e1919061436a565b612482565b6040516105f3919061408a565b60405180910390f35b34801561060857600080fd5b506106116124d3565b60405161061e919061408a565b60405180910390f35b34801561063357600080fd5b5061064e60048036038101906106499190614286565b6124d9565b60405161065b9190614241565b60405180910390f35b34801561067057600080fd5b506106796124f9565b604051610686919061408a565b60405180910390f35b34801561069b57600080fd5b506106a46124ff565b005b3480156106b257600080fd5b506106cd60048036038101906106c89190614286565b6126a8565b6040516106da919061408a565b60405180910390f35b3480156106ef57600080fd5b506106f86126f0565b005b610714600480360381019061070f91906142b3565b612704565b005b34801561072257600080fd5b5061072b613296565b604051610738919061426b565b60405180910390f35b34801561074d57600080fd5b506107566132bc565b604051610763919061426b565b60405180910390f35b34801561077857600080fd5b506107816132e2565b60405161078e919061408a565b60405180910390f35b3480156107a357600080fd5b506107ac6132e8565b6040516107b9919061426b565b60405180910390f35b3480156107ce57600080fd5b506107d7613312565b005b3480156107e557600080fd5b5061080060048036038101906107fb9190614286565b61343c565b60405161080d9190614241565b60405180910390f35b34801561082257600080fd5b5061082b61345c565b604051610838919061408a565b60405180910390f35b34801561084d57600080fd5b5061085661346b565b6040516108639190614135565b60405180910390f35b34801561087857600080fd5b506108816134fd565b60405161088e919061408a565b60405180910390f35b3480156108a357600080fd5b506108ac613503565b6040516108b9919061408a565b60405180910390f35b3480156108ce57600080fd5b506108e960048036038101906108e491906141e6565b6135df565b6040516108f69190614241565b60405180910390f35b34801561090b57600080fd5b50610926600480360381019061092191906141e6565b613656565b6040516109339190614241565b60405180910390f35b34801561094857600080fd5b50610951613679565b60405161095e919061408a565b60405180910390f35b34801561097357600080fd5b5061098e6004803603810190610989919061436a565b61367f565b60405161099b919061408a565b60405180910390f35b3480156109b057600080fd5b506109cb60048036038101906109c691906142b3565b61370e565b6040516109d8919061426b565b60405180910390f35b3480156109ed57600080fd5b50610a086004803603810190610a039190614286565b61374d565b604051610a159190614241565b60405180910390f35b348015610a2a57600080fd5b50610a3361376d565b604051610a40919061408a565b60405180910390f35b348015610a5557600080fd5b50610a706004803603810190610a6b91906142b3565b613773565b604051610a8094939291906143aa565b60405180910390f35b348015610a9557600080fd5b50610a9e6137b3565b604051610aab919061408a565b60405180910390f35b348015610ac057600080fd5b50610ac96137b9565b604051610ad6919061408a565b60405180910390f35b348015610aeb57600080fd5b50610b066004803603810190610b0191906143ef565b6137bf565b604051610b13919061408a565b60405180910390f35b348015610b2857600080fd5b50610b436004803603810190610b3e9190614286565b613846565b604051610b509190614241565b60405180910390f35b348015610b6557600080fd5b50610b6e613865565b604051610b7b919061408a565b60405180910390f35b348015610b9057600080fd5b50610b9961386b565b604051610ba6919061408a565b60405180910390f35b348015610bbb57600080fd5b50610bd66004803603810190610bd19190614286565b613871565b005b348015610be457600080fd5b50610bed6138f4565b604051610bfa919061408a565b60405180910390f35b600f5481565b60085481565b606060038054610c1e9061445e565b80601f0160208091040260200160405190810160405280929190818152602001828054610c4a9061445e565b8015610c975780601f10610c6c57610100808354040283529160200191610c97565b820191906000526020600020905b815481529060010190602001808311610c7a57829003601f168201915b5050505050905090565b600080610cac6138fa565b9050610cb9818585613902565b600191505092915050565b601460009054906101000a900473ffffffffffffffffffffffffffffffffffffffff1681565b60065481565b60006b033b2e3c9fd0803ce8000000905090565b60156020528060005260406000206000915090505481565b601c6020528060005260406000206000915054906101000a900460ff1681565b600060065403610d78576040517f3f1b3b5300000000000000000000000000000000000000000000000000000000815260040160405180910390fd5b600081600b54610d8891906144be565b11610dbf576040517f9210988b00000000000000000000000000000000000000000000000000000000815260040160405180910390fd5b600160065403611197576000610dd782600d54612482565b90506301c9c380602160009054906101000a900473ffffffffffffffffffffffffffffffffffffffff1673ffffffffffffffffffffffffffffffffffffffff166370a08231336040518263ffffffff1660e01b8152600401610e39919061426b565b6020604051808303816000875af1158015610e58573d6000803e3d6000fd5b505050506040513d601f19601f82011682018060405250810190610e7c9190614507565b1080610f24575080602160009054906101000a900473ffffffffffffffffffffffffffffffffffffffff1673ffffffffffffffffffffffffffffffffffffffff166370a08231336040518263ffffffff1660e01b8152600401610edf919061426b565b6020604051808303816000875af1158015610efe573d6000803e3d6000fd5b505050506040513d601f19601f82011682018060405250810190610f229190614507565b105b15610f5b576040517fcf553dfa00000000000000000000000000000000000000000000000000000000815260040160405180910390fd5b602160009054906101000a900473ffffffffffffffffffffffffffffffffffffffff1673ffffffffffffffffffffffffffffffffffffffff166323b872dd3330846040518463ffffffff1660e01b8152600401610fba93929190614534565b600060405180830381600087803b158015610fd457600080fd5b505af1158015610fe8573d6000803e3d6000fd5b5050505081600b6000828254610ffe91906144be565b9250508190555081601560003373ffffffffffffffffffffffffffffffffffffffff1673ffffffffffffffffffffffffffffffffffffffff1681526020019081526020016000206000828254611054919061456b565b92505081905550601c60003373ffffffffffffffffffffffffffffffffffffffff1673ffffffffffffffffffffffffffffffffffffffff16815260200190815260200160002060009054906101000a900460ff1661111d576001601c60003373ffffffffffffffffffffffffffffffffffffffff1673ffffffffffffffffffffffffffffffffffffffff16815260200190815260200160002060006101000a81548160ff021916908315150217905550601860008154809291906111179061459f565b91905055505b816019600082825461112f919061456b565b9250508190555080601b6000828254611148919061456b565b925050819055507f702daf19347ac5d6af369c5a377056b2e08aaaf05065c8b444bacd28abfe6196600654338460008560405161118995949392919061462c565b60405180910390a15061212d565b60026006540361156f5760006111af82600e54612482565b90506301c9c380602160009054906101000a900473ffffffffffffffffffffffffffffffffffffffff1673ffffffffffffffffffffffffffffffffffffffff166370a08231336040518263ffffffff1660e01b8152600401611211919061426b565b6020604051808303816000875af1158015611230573d6000803e3d6000fd5b505050506040513d601f19601f820116820180604052508101906112549190614507565b10806112fc575080602160009054906101000a900473ffffffffffffffffffffffffffffffffffffffff1673ffffffffffffffffffffffffffffffffffffffff166370a08231336040518263ffffffff1660e01b81526004016112b7919061426b565b6020604051808303816000875af11580156112d6573d6000803e3d6000fd5b505050506040513d601f19601f820116820180604052508101906112fa9190614507565b105b15611333576040517fcf553dfa00000000000000000000000000000000000000000000000000000000815260040160405180910390fd5b602160009054906101000a900473ffffffffffffffffffffffffffffffffffffffff1673ffffffffffffffffffffffffffffffffffffffff166323b872dd3330846040518463ffffffff1660e01b815260040161139293929190614534565b600060405180830381600087803b1580156113ac57600080fd5b505af11580156113c0573d6000803e3d6000fd5b5050505081600b60008282546113d691906144be565b9250508190555081601560003373ffffffffffffffffffffffffffffffffffffffff1673ffffffffffffffffffffffffffffffffffffffff168152602001908152602001600020600082825461142c919061456b565b92505081905550601d60003373ffffffffffffffffffffffffffffffffffffffff1673ffffffffffffffffffffffffffffffffffffffff16815260200190815260200160002060009054906101000a900460ff166114f5576001601d60003373ffffffffffffffffffffffffffffffffffffffff1673ffffffffffffffffffffffffffffffffffffffff16815260200190815260200160002060006101000a81548160ff021916908315150217905550601860008154809291906114ef9061459f565b91905055505b8160196000828254611507919061456b565b9250508190555080601b6000828254611520919061456b565b925050819055507f702daf19347ac5d6af369c5a377056b2e08aaaf05065c8b444bacd28abfe6196600654338460008560405161156195949392919061462c565b60405180910390a15061212c565b60036006540361194757600061158782600f54612482565b90506301c9c380602160009054906101000a900473ffffffffffffffffffffffffffffffffffffffff1673ffffffffffffffffffffffffffffffffffffffff166370a08231336040518263ffffffff1660e01b81526004016115e9919061426b565b6020604051808303816000875af1158015611608573d6000803e3d6000fd5b505050506040513d601f19601f8201168201806040525081019061162c9190614507565b10806116d4575080602160009054906101000a900473ffffffffffffffffffffffffffffffffffffffff1673ffffffffffffffffffffffffffffffffffffffff166370a08231336040518263ffffffff1660e01b815260040161168f919061426b565b6020604051808303816000875af11580156116ae573d6000803e3d6000fd5b505050506040513d601f19601f820116820180604052508101906116d29190614507565b105b1561170b576040517fcf553dfa00000000000000000000000000000000000000000000000000000000815260040160405180910390fd5b602160009054906101000a900473ffffffffffffffffffffffffffffffffffffffff1673ffffffffffffffffffffffffffffffffffffffff166323b872dd3330846040518463ffffffff1660e01b815260040161176a93929190614534565b600060405180830381600087803b15801561178457600080fd5b505af1158015611798573d6000803e3d6000fd5b5050505081600b60008282546117ae91906144be565b9250508190555081601560003373ffffffffffffffffffffffffffffffffffffffff1673ffffffffffffffffffffffffffffffffffffffff1681526020019081526020016000206000828254611804919061456b565b92505081905550601e60003373ffffffffffffffffffffffffffffffffffffffff1673ffffffffffffffffffffffffffffffffffffffff16815260200190815260200160002060009054906101000a900460ff166118cd576001601e60003373ffffffffffffffffffffffffffffffffffffffff1673ffffffffffffffffffffffffffffffffffffffff16815260200190815260200160002060006101000a81548160ff021916908315150217905550601860008154809291906118c79061459f565b91905055505b81601960008282546118df919061456b565b9250508190555080601b60008282546118f8919061456b565b925050819055507f702daf19347ac5d6af369c5a377056b2e08aaaf05065c8b444bacd28abfe6196600654338460008560405161193995949392919061462c565b60405180910390a15061212b565b600460065403611d1f57600061195f82601054612482565b90506301c9c380602160009054906101000a900473ffffffffffffffffffffffffffffffffffffffff1673ffffffffffffffffffffffffffffffffffffffff166370a08231336040518263ffffffff1660e01b81526004016119c1919061426b565b6020604051808303816000875af11580156119e0573d6000803e3d6000fd5b505050506040513d601f19601f82011682018060405250810190611a049190614507565b1080611aac575080602160009054906101000a900473ffffffffffffffffffffffffffffffffffffffff1673ffffffffffffffffffffffffffffffffffffffff166370a08231336040518263ffffffff1660e01b8152600401611a67919061426b565b6020604051808303816000875af1158015611a86573d6000803e3d6000fd5b505050506040513d601f19601f82011682018060405250810190611aaa9190614507565b105b15611ae3576040517fcf553dfa00000000000000000000000000000000000000000000000000000000815260040160405180910390fd5b602160009054906101000a900473ffffffffffffffffffffffffffffffffffffffff1673ffffffffffffffffffffffffffffffffffffffff166323b872dd3330846040518463ffffffff1660e01b8152600401611b4293929190614534565b600060405180830381600087803b158015611b5c57600080fd5b505af1158015611b70573d6000803e3d6000fd5b5050505081600b6000828254611b8691906144be565b9250508190555081601560003373ffffffffffffffffffffffffffffffffffffffff1673ffffffffffffffffffffffffffffffffffffffff1681526020019081526020016000206000828254611bdc919061456b565b92505081905550601f60003373ffffffffffffffffffffffffffffffffffffffff1673ffffffffffffffffffffffffffffffffffffffff16815260200190815260200160002060009054906101000a900460ff16611ca5576001601f60003373ffffffffffffffffffffffffffffffffffffffff1673ffffffffffffffffffffffffffffffffffffffff16815260200190815260200160002060006101000a81548160ff02191690831515021790555060186000815480929190611c9f9061459f565b91905055505b8160196000828254611cb7919061456b565b9250508190555080601b6000828254611cd0919061456b565b925050819055507f702daf19347ac5d6af369c5a377056b2e08aaaf05065c8b444bacd28abfe61966006543384600085604051611d1195949392919061462c565b60405180910390a15061212a565b6005600654036120f7576000611d3782601154612482565b90506301c9c380602160009054906101000a900473ffffffffffffffffffffffffffffffffffffffff1673ffffffffffffffffffffffffffffffffffffffff166370a08231336040518263ffffffff1660e01b8152600401611d99919061426b565b6020604051808303816000875af1158015611db8573d6000803e3d6000fd5b505050506040513d601f19601f82011682018060405250810190611ddc9190614507565b1080611e84575080602160009054906101000a900473ffffffffffffffffffffffffffffffffffffffff1673ffffffffffffffffffffffffffffffffffffffff166370a08231336040518263ffffffff1660e01b8152600401611e3f919061426b565b6020604051808303816000875af1158015611e5e573d6000803e3d6000fd5b505050506040513d601f19601f82011682018060405250810190611e829190614507565b105b15611ebb576040517fcf553dfa00000000000000000000000000000000000000000000000000000000815260040160405180910390fd5b602160009054906101000a900473ffffffffffffffffffffffffffffffffffffffff1673ffffffffffffffffffffffffffffffffffffffff166323b872dd3330846040518463ffffffff1660e01b8152600401611f1a93929190614534565b600060405180830381600087803b158015611f3457600080fd5b505af1158015611f48573d6000803e3d6000fd5b5050505081600b6000828254611f5e91906144be565b9250508190555081601560003373ffffffffffffffffffffffffffffffffffffffff1673ffffffffffffffffffffffffffffffffffffffff1681526020019081526020016000206000828254611fb4919061456b565b92505081905550602060003373ffffffffffffffffffffffffffffffffffffffff1673ffffffffffffffffffffffffffffffffffffffff16815260200190815260200160002060009054906101000a900460ff1661207d576001602060003373ffffffffffffffffffffffffffffffffffffffff1673ffffffffffffffffffffffffffffffffffffffff16815260200190815260200160002060006101000a81548160ff021916908315150217905550601860008154809291906120779061459f565b91905055505b816019600082825461208f919061456b565b9250508190555080601b60008282546120a8919061456b565b925050819055507f702daf19347ac5d6af369c5a377056b2e08aaaf05065c8b444bacd28abfe619660065433846000856040516120e995949392919061462c565b60405180910390a150612129565b6040517fe5c86cd700000000000000000000000000000000000000000000000000000000815260040160405180910390fd5b5b5b5b5b50565b60008061213b6138fa565b9050612148858285613acb565b612153858585613b57565b60019150509392505050565b60166020528060005260406000206000915054906101000a900460ff1681565b60006012905090565b612190613dcd565b6000602160009054906101000a900473ffffffffffffffffffffffffffffffffffffffff1673ffffffffffffffffffffffffffffffffffffffff166370a08231336040518263ffffffff1660e01b81526004016121ed919061426b565b6020604051808303816000875af115801561220c573d6000803e3d6000fd5b505050506040513d601f19601f820116820180604052508101906122309190614507565b1015612268576040517f4be200da00000000000000000000000000000000000000000000000000000000815260040160405180910390fd5b602160009054906101000a900473ffffffffffffffffffffffffffffffffffffffff1673ffffffffffffffffffffffffffffffffffffffff1663a9059cbb6122ae6132e8565b602160009054906101000a900473ffffffffffffffffffffffffffffffffffffffff1673ffffffffffffffffffffffffffffffffffffffff166370a08231306040518263ffffffff1660e01b8152600401612309919061426b565b6020604051808303816000875af1158015612328573d6000803e3d6000fd5b505050506040513d601f19601f8201168201806040525081019061234c9190614507565b6040518363ffffffff1660e01b815260040161236992919061467f565b600060405180830381600087803b15801561238357600080fd5b505af1158015612397573d6000803e3d6000fd5b50505050565b6000806123a86138fa565b90506123c98185856123ba85896137bf565b6123c4919061456b565b613902565b600191505092915050565b6123dc613dcd565b60003373ffffffffffffffffffffffffffffffffffffffff1647604051612402906146d9565b60006040518083038185875af1925050503d806000811461243f576040519150601f19603f3d011682016040523d82523d6000602084013e612444565b606091505b505090508061247f576040517fa8fc93ca00000000000000000000000000000000000000000000000000000000815260040160405180910390fd5b50565b600080600c548361249391906146ee565b9050600064e8d4a51000670de0b6b3a764000086846124b291906146ee565b6124bc919061475f565b6124c6919061475f565b9050809250505092915050565b60075481565b601f6020528060005260406000206000915054906101000a900460ff1681565b601b5481565b6000601560003373ffffffffffffffffffffffffffffffffffffffff1673ffffffffffffffffffffffffffffffffffffffff1681526020019081526020016000205411612578576040517f98fc9e8c00000000000000000000000000000000000000000000000000000000815260040160405180910390fd5b60068054146125bc576040517f08c379a00000000000000000000000000000000000000000000000000000000081526004016125b3906147dc565b60405180910390fd5b6000601560003373ffffffffffffffffffffffffffffffffffffffff1673ffffffffffffffffffffffffffffffffffffffff1681526020019081526020016000205490506000601660003373ffffffffffffffffffffffffffffffffffffffff1673ffffffffffffffffffffffffffffffffffffffff16815260200190815260200160002060006101000a81548160ff0219169083151502179055506126623382613e4b565b601560003373ffffffffffffffffffffffffffffffffffffffff1673ffffffffffffffffffffffffffffffffffffffff1681526020019081526020016000206000905550565b60008060008373ffffffffffffffffffffffffffffffffffffffff1673ffffffffffffffffffffffffffffffffffffffff168152602001908152602001600020549050919050565b6126f8613dcd565b6127026000613fa1565b565b600060065403612740576040517f3f1b3b5300000000000000000000000000000000000000000000000000000000815260040160405180910390fd5b600081600b5461275091906144be565b11612787576040517f9210988b00000000000000000000000000000000000000000000000000000000815260040160405180910390fd5b6301c9c380602160009054906101000a900473ffffffffffffffffffffffffffffffffffffffff1673ffffffffffffffffffffffffffffffffffffffff166370a08231336040518263ffffffff1660e01b81526004016127e7919061426b565b6020604051808303816000875af1158015612806573d6000803e3d6000fd5b505050506040513d601f19601f8201168201806040525081019061282a9190614507565b1015612862576040517fcf553dfa00000000000000000000000000000000000000000000000000000000815260040160405180910390fd5b600160065403612a6157600061287a82600d5461367f565b9050803410156128b6576040517f8bbdc31c00000000000000000000000000000000000000000000000000000000815260040160405180910390fd5b81600b60008282546128c891906144be565b9250508190555081601560003373ffffffffffffffffffffffffffffffffffffffff1673ffffffffffffffffffffffffffffffffffffffff168152602001908152602001600020600082825461291e919061456b565b92505081905550601c60003373ffffffffffffffffffffffffffffffffffffffff1673ffffffffffffffffffffffffffffffffffffffff16815260200190815260200160002060009054906101000a900460ff166129e7576001601c60003373ffffffffffffffffffffffffffffffffffffffff1673ffffffffffffffffffffffffffffffffffffffff16815260200190815260200160002060006101000a81548160ff021916908315150217905550601860008154809291906129e19061459f565b91905055505b81601960008282546129f9919061456b565b9250508190555034601a6000828254612a12919061456b565b925050819055507f702daf19347ac5d6af369c5a377056b2e08aaaf05065c8b444bacd28abfe61966006543384346000604051612a539594939291906147fc565b60405180910390a150613293565b600260065403612c60576000612a7982600e5461367f565b905080341015612ab5576040517f8bbdc31c00000000000000000000000000000000000000000000000000000000815260040160405180910390fd5b81600b6000828254612ac791906144be565b9250508190555081601560003373ffffffffffffffffffffffffffffffffffffffff1673ffffffffffffffffffffffffffffffffffffffff1681526020019081526020016000206000828254612b1d919061456b565b92505081905550601d60003373ffffffffffffffffffffffffffffffffffffffff1673ffffffffffffffffffffffffffffffffffffffff16815260200190815260200160002060009054906101000a900460ff16612be6576001601d60003373ffffffffffffffffffffffffffffffffffffffff1673ffffffffffffffffffffffffffffffffffffffff16815260200190815260200160002060006101000a81548160ff02191690831515021790555060186000815480929190612be09061459f565b91905055505b8160196000828254612bf8919061456b565b9250508190555034601a6000828254612c11919061456b565b925050819055507f702daf19347ac5d6af369c5a377056b2e08aaaf05065c8b444bacd28abfe61966006543384346000604051612c529594939291906147fc565b60405180910390a150613292565b600360065403612e5f576000612c7882600f5461367f565b905080341015612cb4576040517f8bbdc31c00000000000000000000000000000000000000000000000000000000815260040160405180910390fd5b81600b6000828254612cc691906144be565b9250508190555081601560003373ffffffffffffffffffffffffffffffffffffffff1673ffffffffffffffffffffffffffffffffffffffff1681526020019081526020016000206000828254612d1c919061456b565b92505081905550601e60003373ffffffffffffffffffffffffffffffffffffffff1673ffffffffffffffffffffffffffffffffffffffff16815260200190815260200160002060009054906101000a900460ff16612de5576001601e60003373ffffffffffffffffffffffffffffffffffffffff1673ffffffffffffffffffffffffffffffffffffffff16815260200190815260200160002060006101000a81548160ff02191690831515021790555060186000815480929190612ddf9061459f565b91905055505b8160196000828254612df7919061456b565b9250508190555034601a6000828254612e10919061456b565b925050819055507f702daf19347ac5d6af369c5a377056b2e08aaaf05065c8b444bacd28abfe61966006543384346000604051612e519594939291906147fc565b60405180910390a150613291565b60046006540361305e576000612e778260105461367f565b905080341015612eb3576040517f8bbdc31c00000000000000000000000000000000000000000000000000000000815260040160405180910390fd5b81600b6000828254612ec591906144be565b9250508190555081601560003373ffffffffffffffffffffffffffffffffffffffff1673ffffffffffffffffffffffffffffffffffffffff1681526020019081526020016000206000828254612f1b919061456b565b92505081905550601f60003373ffffffffffffffffffffffffffffffffffffffff1673ffffffffffffffffffffffffffffffffffffffff16815260200190815260200160002060009054906101000a900460ff16612fe4576001601f60003373ffffffffffffffffffffffffffffffffffffffff1673ffffffffffffffffffffffffffffffffffffffff16815260200190815260200160002060006101000a81548160ff02191690831515021790555060186000815480929190612fde9061459f565b91905055505b8160196000828254612ff6919061456b565b9250508190555034601a600082825461300f919061456b565b925050819055507f702daf19347ac5d6af369c5a377056b2e08aaaf05065c8b444bacd28abfe619660065433843460006040516130509594939291906147fc565b60405180910390a150613290565b60056006540361325d5760006130768260115461367f565b9050803410156130b2576040517f8bbdc31c00000000000000000000000000000000000000000000000000000000815260040160405180910390fd5b81600b60008282546130c491906144be565b9250508190555081601560003373ffffffffffffffffffffffffffffffffffffffff1673ffffffffffffffffffffffffffffffffffffffff168152602001908152602001600020600082825461311a919061456b565b92505081905550602060003373ffffffffffffffffffffffffffffffffffffffff1673ffffffffffffffffffffffffffffffffffffffff16815260200190815260200160002060009054906101000a900460ff166131e3576001602060003373ffffffffffffffffffffffffffffffffffffffff1673ffffffffffffffffffffffffffffffffffffffff16815260200190815260200160002060006101000a81548160ff021916908315150217905550601860008154809291906131dd9061459f565b91905055505b81601960008282546131f5919061456b565b9250508190555034601a600082825461320e919061456b565b925050819055507f702daf19347ac5d6af369c5a377056b2e08aaaf05065c8b444bacd28abfe6196600654338434600060405161324f9594939291906147fc565b60405180910390a15061328f565b6040517fe5c86cd700000000000000000000000000000000000000000000000000000000815260040160405180910390fd5b5b5b5b5b50565b601360009054906101000a900473ffffffffffffffffffffffffffffffffffffffff1681565b601260009054906101000a900473ffffffffffffffffffffffffffffffffffffffff1681565b600e5481565b6000600560009054906101000a900473ffffffffffffffffffffffffffffffffffffffff16905090565b61331a613dcd565b600680541061335e576040517f08c379a00000000000000000000000000000000000000000000000000000000081526004016133559061489b565b60405180910390fd5b600160066000828254613371919061456b565b925050819055506a52b7d2dcc80cd2e4000000600b6000828254613395919061456b565b925050819055506017604051806080016040528060185481526020016019548152602001601a548152602001601b548152509080600181540180825580915050600190039060005260206000209060040201600090919091909150600082015181600001556020820151816001015560408201518160020155606082015181600301555050600060188190555060006019819055506000601a819055506000601b81905550565b601d6020528060005260406000206000915054906101000a900460ff1681565b6a52b7d2dcc80cd2e400000081565b60606004805461347a9061445e565b80601f01602080910402602001604051908101604052809291908181526020018280546134a69061445e565b80156134f35780601f106134c8576101008083540402835291602001916134f3565b820191906000526020600020905b8154815290600101906020018083116134d657829003601f168201915b5050505050905090565b600d5481565b60008073ee9f2375b4bdf6387aa8265dd4fb8f16512a1d46905060008173ffffffffffffffffffffffffffffffffffffffff1663feaf968c6040518163ffffffff1660e01b815260040160a060405180830381865afa15801561356a573d6000803e3d6000fd5b505050506040513d601f19601f8201168201806040525081019061358e9190614933565b505050915050600081136135d7576040517f08c379a00000000000000000000000000000000000000000000000000000000081526004016135ce906149fa565b60405180910390fd5b809250505090565b6000806135ea6138fa565b905060006135f882866137bf565b90508381101561363d576040517f08c379a000000000000000000000000000000000000000000000000000000000815260040161363490614a8c565b60405180910390fd5b61364a8286868403613902565b60019250505092915050565b6000806136616138fa565b905061366e818585613b57565b600191505092915050565b60105481565b600080600c548361369091906146ee565b9050600064e8d4a51000670de0b6b3a764000086846136af91906146ee565b6136b9919061475f565b6136c3919061475f565b90506000600c54826136d591906146ee565b90506000670de0b6b3a7640000826136eb613503565b6136f591906146ee565b6136ff919061475f565b90508094505050505092915050565b600a818154811061371e57600080fd5b906000526020600020016000915054906101000a900473ffffffffffffffffffffffffffffffffffffffff1681565b601e6020528060005260406000206000915054906101000a900460ff1681565b601a5481565b6017818154811061378357600080fd5b90600052602060002090600402016000915090508060000154908060010154908060020154908060030154905084565b60185481565b600b5481565b6000600160008473ffffffffffffffffffffffffffffffffffffffff1673ffffffffffffffffffffffffffffffffffffffff16815260200190815260200160002060008373ffffffffffffffffffffffffffffffffffffffff1673ffffffffffffffffffffffffffffffffffffffff16815260200190815260200160002054905092915050565b602080528060005260406000206000915054906101000a900460ff1681565b60095481565b60195481565b613879613dcd565b600073ffffffffffffffffffffffffffffffffffffffff168173ffffffffffffffffffffffffffffffffffffffff16036138e8576040517f08c379a00000000000000000000000000000000000000000000000000000000081526004016138df90614b1e565b60405180910390fd5b6138f181613fa1565b50565b60115481565b600033905090565b600073ffffffffffffffffffffffffffffffffffffffff168373ffffffffffffffffffffffffffffffffffffffff1603613971576040517f08c379a000000000000000000000000000000000000000000000000000000000815260040161396890614bb0565b60405180910390fd5b600073ffffffffffffffffffffffffffffffffffffffff168273ffffffffffffffffffffffffffffffffffffffff16036139e0576040517f08c379a00000000000000000000000000000000000000000000000000000000081526004016139d790614c42565b60405180910390fd5b80600160008573ffffffffffffffffffffffffffffffffffffffff1673ffffffffffffffffffffffffffffffffffffffff16815260200190815260200160002060008473ffffffffffffffffffffffffffffffffffffffff1673ffffffffffffffffffffffffffffffffffffffff168152602001908152602001600020819055508173ffffffffffffffffffffffffffffffffffffffff168373ffffffffffffffffffffffffffffffffffffffff167f8c5be1e5ebec7d5bd14f71427d1e84f3dd0314c0f7b2291e5b200ac8c7c3b92583604051613abe919061408a565b60405180910390a3505050565b6000613ad784846137bf565b90507fffffffffffffffffffffffffffffffffffffffffffffffffffffffffffffffff8114613b515781811015613b43576040517f08c379a0000000000000000000000000000000000000000000000000000000008152600401613b3a90614cae565b60405180910390fd5b613b508484848403613902565b5b50505050565b600073ffffffffffffffffffffffffffffffffffffffff168373ffffffffffffffffffffffffffffffffffffffff1603613bc6576040517f08c379a0000000000000000000000000000000000000000000000000000000008152600401613bbd90614d40565b60405180910390fd5b600073ffffffffffffffffffffffffffffffffffffffff168273ffffffffffffffffffffffffffffffffffffffff1603613c35576040517f08c379a0000000000000000000000000000000000000000000000000000000008152600401613c2c90614dd2565b60405180910390fd5b613c40838383614067565b60008060008573ffffffffffffffffffffffffffffffffffffffff1673ffffffffffffffffffffffffffffffffffffffff16815260200190815260200160002054905081811015613cc6576040517f08c379a0000000000000000000000000000000000000000000000000000000008152600401613cbd90614e64565b60405180910390fd5b8181036000808673ffffffffffffffffffffffffffffffffffffffff1673ffffffffffffffffffffffffffffffffffffffff16815260200190815260200160002081905550816000808573ffffffffffffffffffffffffffffffffffffffff1673ffffffffffffffffffffffffffffffffffffffff168152602001908152602001600020600082825401925050819055508273ffffffffffffffffffffffffffffffffffffffff168473ffffffffffffffffffffffffffffffffffffffff167fddf252ad1be2c89b69c2b068fc378daa952ba7f163c4a11628f55a4df523b3ef84604051613db4919061408a565b60405180910390a3613dc784848461406c565b50505050565b613dd56138fa565b73ffffffffffffffffffffffffffffffffffffffff16613df36132e8565b73ffffffffffffffffffffffffffffffffffffffff1614613e49576040517f08c379a0000000000000000000000000000000000000000000000000000000008152600401613e4090614ed0565b60405180910390fd5b565b600073ffffffffffffffffffffffffffffffffffffffff168273ffffffffffffffffffffffffffffffffffffffff1603613eba576040517f08c379a0000000000000000000000000000000000000000000000000000000008152600401613eb190614f3c565b60405180910390fd5b613ec660008383614067565b8060026000828254613ed8919061456b565b92505081905550806000808473ffffffffffffffffffffffffffffffffffffffff1673ffffffffffffffffffffffffffffffffffffffff168152602001908152602001600020600082825401925050819055508173ffffffffffffffffffffffffffffffffffffffff16600073ffffffffffffffffffffffffffffffffffffffff167fddf252ad1be2c89b69c2b068fc378daa952ba7f163c4a11628f55a4df523b3ef83604051613f89919061408a565b60405180910390a3613f9d6000838361406c565b5050565b6000600560009054906101000a900473ffffffffffffffffffffffffffffffffffffffff16905081600560006101000a81548173ffffffffffffffffffffffffffffffffffffffff021916908373ffffffffffffffffffffffffffffffffffffffff1602179055508173ffffffffffffffffffffffffffffffffffffffff168173ffffffffffffffffffffffffffffffffffffffff167f8be0079c531659141344cd1fd0a4f28419497f9722a3daafe3b4186f6b6457e060405160405180910390a35050565b505050565b505050565b6000819050919050565b61408481614071565b82525050565b600060208201905061409f600083018461407b565b92915050565b600081519050919050565b600082825260208201905092915050565b60005b838110156140df5780820151818401526020810190506140c4565b60008484015250505050565b6000601f19601f8301169050919050565b6000614107826140a5565b61411181856140b0565b93506141218185602086016140c1565b61412a816140eb565b840191505092915050565b6000602082019050818103600083015261414f81846140fc565b905092915050565b600080fd5b600073ffffffffffffffffffffffffffffffffffffffff82169050919050565b60006141878261415c565b9050919050565b6141978161417c565b81146141a257600080fd5b50565b6000813590506141b48161418e565b92915050565b6141c381614071565b81146141ce57600080fd5b50565b6000813590506141e0816141ba565b92915050565b600080604083850312156141fd576141fc614157565b5b600061420b858286016141a5565b925050602061421c858286016141d1565b9150509250929050565b60008115159050919050565b61423b81614226565b82525050565b60006020820190506142566000830184614232565b92915050565b6142658161417c565b82525050565b6000602082019050614280600083018461425c565b92915050565b60006020828403121561429c5761429b614157565b5b60006142aa848285016141a5565b91505092915050565b6000602082840312156142c9576142c8614157565b5b60006142d7848285016141d1565b91505092915050565b6000806000606084860312156142f9576142f8614157565b5b6000614307868287016141a5565b9350506020614318868287016141a5565b9250506040614329868287016141d1565b9150509250925092565b600060ff82169050919050565b61434981614333565b82525050565b60006020820190506143646000830184614340565b92915050565b6000806040838503121561438157614380614157565b5b600061438f858286016141d1565b92505060206143a0858286016141d1565b9150509250929050565b60006080820190506143bf600083018761407b565b6143cc602083018661407b565b6143d9604083018561407b565b6143e6606083018461407b565b95945050505050565b6000806040838503121561440657614405614157565b5b6000614414858286016141a5565b9250506020614425858286016141a5565b9150509250929050565b7f4e487b7100000000000000000000000000000000000000000000000000000000600052602260045260246000fd5b6000600282049050600182168061447657607f821691505b6020821081036144895761448861442f565b5b50919050565b7f4e487b7100000000000000000000000000000000000000000000000000000000600052601160045260246000fd5b60006144c982614071565b91506144d483614071565b92508282039050818111156144ec576144eb61448f565b5b92915050565b600081519050614501816141ba565b92915050565b60006020828403121561451d5761451c614157565b5b600061452b848285016144f2565b91505092915050565b6000606082019050614549600083018661425c565b614556602083018561425c565b614563604083018461407b565b949350505050565b600061457682614071565b915061458183614071565b92508282019050808211156145995761459861448f565b5b92915050565b60006145aa82614071565b91507fffffffffffffffffffffffffffffffffffffffffffffffffffffffffffffffff82036145dc576145db61448f565b5b600182019050919050565b6000819050919050565b6000819050919050565b600061461661461161460c846145e7565b6145f1565b614071565b9050919050565b614626816145fb565b82525050565b600060a082019050614641600083018861407b565b61464e602083018761425c565b61465b604083018661407b565b614668606083018561461d565b614675608083018461407b565b9695505050505050565b6000604082019050614694600083018561425c565b6146a1602083018461407b565b9392505050565b600081905092915050565b50565b60006146c36000836146a8565b91506146ce826146b3565b600082019050919050565b60006146e4826146b6565b9150819050919050565b60006146f982614071565b915061470483614071565b925082820261471281614071565b915082820484148315176147295761472861448f565b5b5092915050565b7f4e487b7100000000000000000000000000000000000000000000000000000000600052601260045260246000fd5b600061476a82614071565b915061477583614071565b92508261478557614784614730565b5b828204905092915050565b7f706c65617365207761697420666f722070726553616c6520656e640000000000600082015250565b60006147c6601b836140b0565b91506147d182614790565b602082019050919050565b600060208201905081810360008301526147f5816147b9565b9050919050565b600060a082019050614811600083018861407b565b61481e602083018761425c565b61482b604083018661407b565b614838606083018561407b565b614845608083018461461d565b9695505050505050565b7f416c6c20726f756e6473206172652066696e6973686564000000000000000000600082015250565b60006148856017836140b0565b91506148908261484f565b602082019050919050565b600060208201905081810360008301526148b481614878565b9050919050565b600069ffffffffffffffffffff82169050919050565b6148da816148bb565b81146148e557600080fd5b50565b6000815190506148f7816148d1565b92915050565b6000819050919050565b614910816148fd565b811461491b57600080fd5b50565b60008151905061492d81614907565b92915050565b600080600080600060a0868803121561494f5761494e614157565b5b600061495d888289016148e8565b955050602061496e8882890161491e565b945050604061497f888289016144f2565b9350506060614990888289016144f2565b92505060806149a1888289016148e8565b9150509295509295909350565b7f496e76616c696420555344542070726963650000000000000000000000000000600082015250565b60006149e46012836140b0565b91506149ef826149ae565b602082019050919050565b60006020820190508181036000830152614a13816149d7565b9050919050565b7f45524332303a2064656372656173656420616c6c6f77616e63652062656c6f7760008201527f207a65726f000000000000000000000000000000000000000000000000000000602082015250565b6000614a766025836140b0565b9150614a8182614a1a565b604082019050919050565b60006020820190508181036000830152614aa581614a69565b9050919050565b7f4f776e61626c653a206e6577206f776e657220697320746865207a65726f206160008201527f6464726573730000000000000000000000000000000000000000000000000000602082015250565b6000614b086026836140b0565b9150614b1382614aac565b604082019050919050565b60006020820190508181036000830152614b3781614afb565b9050919050565b7f45524332303a20617070726f76652066726f6d20746865207a65726f2061646460008201527f7265737300000000000000000000000000000000000000000000000000000000602082015250565b6000614b9a6024836140b0565b9150614ba582614b3e565b604082019050919050565b60006020820190508181036000830152614bc981614b8d565b9050919050565b7f45524332303a20617070726f766520746f20746865207a65726f20616464726560008201527f7373000000000000000000000000000000000000000000000000000000000000602082015250565b6000614c2c6022836140b0565b9150614c3782614bd0565b604082019050919050565b60006020820190508181036000830152614c5b81614c1f565b9050919050565b7f45524332303a20696e73756666696369656e7420616c6c6f77616e6365000000600082015250565b6000614c98601d836140b0565b9150614ca382614c62565b602082019050919050565b60006020820190508181036000830152614cc781614c8b565b9050919050565b7f45524332303a207472616e736665722066726f6d20746865207a65726f20616460008201527f6472657373000000000000000000000000000000000000000000000000000000602082015250565b6000614d2a6025836140b0565b9150614d3582614cce565b604082019050919050565b60006020820190508181036000830152614d5981614d1d565b9050919050565b7f45524332303a207472616e7366657220746f20746865207a65726f206164647260008201527f6573730000000000000000000000000000000000000000000000000000000000602082015250565b6000614dbc6023836140b0565b9150614dc782614d60565b604082019050919050565b60006020820190508181036000830152614deb81614daf565b9050919050565b7f45524332303a207472616e7366657220616d6f756e742065786365656473206260008201527f616c616e63650000000000000000000000000000000000000000000000000000602082015250565b6000614e4e6026836140b0565b9150614e5982614df2565b604082019050919050565b60006020820190508181036000830152614e7d81614e41565b9050919050565b7f4f776e61626c653a2063616c6c6572206973206e6f7420746865206f776e6572600082015250565b6000614eba6020836140b0565b9150614ec582614e84565b602082019050919050565b60006020820190508181036000830152614ee981614ead565b9050919050565b7f45524332303a206d696e7420746f20746865207a65726f206164647265737300600082015250565b6000614f26601f836140b0565b9150614f3182614ef0565b602082019050919050565b60006020820190508181036000830152614f5581614f19565b905091905056fea26469706673582212201766c897437fe7c114f9e69abd6496c0a00f1bb52adeb876898d9b0adfed0ac464736f6c63430008130033",
  "linkReferences": {},
  "deployedLinkReferences": {}
}