{
  "_format": "hh-sol-artifact-1",
  "contractName": "AIMToken",
  "sourceName": "contracts/AIMToken.sol",
  "abi": [
    {
      "inputs": [
        {
          "internalType": "address",
          "name": "_token",
          "type": "address"
        }
      ],
      "stateMutability": "nonpayable",
      "type": "constructor"
    },
    {
      "inputs": [],
      "name": "contractDontHaveUSDT",
      "type": "error"
    },
    {
      "inputs": [],
      "name": "mintingIsNotAllowed",
      "type": "error"
    },
    {
      "inputs": [],
      "name": "pleaseSendTokenPrice",
      "type": "error"
    },
    {
      "inputs": [],
      "name": "roundSupplyLimitExceed",
      "type": "error"
    },
    {
      "inputs": [],
      "name": "transferFaild",
      "type": "error"
    },
    {
      "inputs": [],
      "name": "waitForStartingSaleRoud",
      "type": "error"
    },
    {
      "inputs": [],
      "name": "youDontHaveEnoughBalance",
      "type": "error"
    },
    {
      "inputs": [],
      "name": "youHavePurchasedToken",
      "type": "error"
    },
    {
      "anonymous": false,
      "inputs": [
        {
          "indexed": true,
          "internalType": "address",
          "name": "owner",
          "type": "address"
        },
        {
          "indexed": true,
          "internalType": "address",
          "name": "spender",
          "type": "address"
        },
        {
          "indexed": false,
          "internalType": "uint256",
          "name": "value",
          "type": "uint256"
        }
      ],
      "name": "Approval",
      "type": "event"
    },
    {
      "anonymous": false,
      "inputs": [
        {
          "indexed": true,
          "internalType": "address",
          "name": "previousOwner",
          "type": "address"
        },
        {
          "indexed": true,
          "internalType": "address",
          "name": "newOwner",
          "type": "address"
        }
      ],
      "name": "OwnershipTransferred",
      "type": "event"
    },
    {
      "anonymous": false,
      "inputs": [
        {
          "indexed": false,
          "internalType": "uint256",
          "name": "_round",
          "type": "uint256"
        },
        {
          "indexed": false,
          "internalType": "address",
          "name": "_user",
          "type": "address"
        },
        {
          "indexed": false,
          "internalType": "uint256",
          "name": "_soldToken",
          "type": "uint256"
        },
        {
          "indexed": false,
          "internalType": "uint256",
          "name": "_BuywithEth",
          "type": "uint256"
        },
        {
          "indexed": false,
          "internalType": "uint256",
          "name": "_BuywithUSDT",
          "type": "uint256"
        }
      ],
      "name": "RoundData",
      "type": "event"
    },
    {
      "anonymous": false,
      "inputs": [
        {
          "indexed": true,
          "internalType": "address",
          "name": "from",
          "type": "address"
        },
        {
          "indexed": true,
          "internalType": "address",
          "name": "to",
          "type": "address"
        },
        {
          "indexed": false,
          "internalType": "uint256",
          "name": "value",
          "type": "uint256"
        }
      ],
      "name": "Transfer",
      "type": "event"
    },
    {
      "inputs": [
        {
          "internalType": "address",
          "name": "owner",
          "type": "address"
        },
        {
          "internalType": "address",
          "name": "spender",
          "type": "address"
        }
      ],
      "name": "allowance",
      "outputs": [
        {
          "internalType": "uint256",
          "name": "",
          "type": "uint256"
        }
      ],
      "stateMutability": "view",
      "type": "function"
    },
    {
      "inputs": [
        {
          "internalType": "address",
          "name": "spender",
          "type": "address"
        },
        {
          "internalType": "uint256",
          "name": "amount",
          "type": "uint256"
        }
      ],
      "name": "approve",
      "outputs": [
        {
          "internalType": "bool",
          "name": "",
          "type": "bool"
        }
      ],
      "stateMutability": "nonpayable",
      "type": "function"
    },
    {
      "inputs": [
        {
          "internalType": "address",
          "name": "account",
          "type": "address"
        }
      ],
      "name": "balanceOf",
      "outputs": [
        {
          "internalType": "uint256",
          "name": "",
          "type": "uint256"
        }
      ],
      "stateMutability": "view",
      "type": "function"
    },
    {
      "inputs": [],
      "name": "claimAIMToken",
      "outputs": [],
      "stateMutability": "nonpayable",
      "type": "function"
    },
    {
      "inputs": [],
      "name": "decimals",
      "outputs": [
        {
          "internalType": "uint8",
          "name": "",
          "type": "uint8"
        }
      ],
      "stateMutability": "view",
      "type": "function"
    },
    {
      "inputs": [
        {
          "internalType": "address",
          "name": "spender",
          "type": "address"
        },
        {
          "internalType": "uint256",
          "name": "subtractedValue",
          "type": "uint256"
        }
      ],
      "name": "decreaseAllowance",
      "outputs": [
        {
          "internalType": "bool",
          "name": "",
          "type": "bool"
        }
      ],
      "stateMutability": "nonpayable",
      "type": "function"
    },
    {
      "inputs": [],
      "name": "exchangeTokens",
      "outputs": [
        {
          "internalType": "uint256",
          "name": "",
          "type": "uint256"
        }
      ],
      "stateMutability": "view",
      "type": "function"
    },
    {
      "inputs": [],
      "name": "exchangeTokensWallet",
      "outputs": [
        {
          "internalType": "address",
          "name": "",
          "type": "address"
        }
      ],
      "stateMutability": "view",
      "type": "function"
    },
    {
      "inputs": [],
      "name": "getLatestUSDTPrice",
      "outputs": [
        {
          "internalType": "uint256",
          "name": "",
          "type": "uint256"
        }
      ],
      "stateMutability": "view",
      "type": "function"
    },
    {
      "inputs": [
        {
          "internalType": "address",
          "name": "spender",
          "type": "address"
        },
        {
          "internalType": "uint256",
          "name": "addedValue",
          "type": "uint256"
        }
      ],
      "name": "increaseAllowance",
      "outputs": [
        {
          "internalType": "bool",
          "name": "",
          "type": "bool"
        }
      ],
      "stateMutability": "nonpayable",
      "type": "function"
    },
    {
      "inputs": [],
      "name": "liquidityTokens",
      "outputs": [
        {
          "internalType": "uint256",
          "name": "",
          "type": "uint256"
        }
      ],
      "stateMutability": "view",
      "type": "function"
    },
    {
      "inputs": [],
      "name": "liquidityTokensWallet",
      "outputs": [
        {
          "internalType": "address",
          "name": "",
          "type": "address"
        }
      ],
      "stateMutability": "view",
      "type": "function"
    },
    {
      "inputs": [
        {
          "internalType": "uint256",
          "name": "_amount",
          "type": "uint256"
        }
      ],
      "name": "mintByEth",
      "outputs": [],
      "stateMutability": "payable",
      "type": "function"
    },
    {
      "inputs": [
        {
          "internalType": "uint256",
          "name": "_amount",
          "type": "uint256"
        }
      ],
      "name": "mintByUSDT",
      "outputs": [],
      "stateMutability": "nonpayable",
      "type": "function"
    },
    {
      "inputs": [],
      "name": "name",
      "outputs": [
        {
          "internalType": "string",
          "name": "",
          "type": "string"
        }
      ],
      "stateMutability": "view",
      "type": "function"
    },
    {
      "inputs": [],
      "name": "owner",
      "outputs": [
        {
          "internalType": "address",
          "name": "",
          "type": "address"
        }
      ],
      "stateMutability": "view",
      "type": "function"
    },
    {
      "inputs": [],
      "name": "remainingSupply",
      "outputs": [
        {
          "internalType": "uint256",
          "name": "",
          "type": "uint256"
        }
      ],
      "stateMutability": "view",
      "type": "function"
    },
    {
      "inputs": [],
      "name": "renounceOwnership",
      "outputs": [],
      "stateMutability": "nonpayable",
      "type": "function"
    },
    {
      "inputs": [],
      "name": "round",
      "outputs": [
        {
          "internalType": "uint256",
          "name": "",
          "type": "uint256"
        }
      ],
      "stateMutability": "view",
      "type": "function"
    },
    {
      "inputs": [],
      "name": "round1Price",
      "outputs": [
        {
          "internalType": "uint256",
          "name": "",
          "type": "uint256"
        }
      ],
      "stateMutability": "view",
      "type": "function"
    },
    {
      "inputs": [],
      "name": "round2Price",
      "outputs": [
        {
          "internalType": "uint256",
          "name": "",
          "type": "uint256"
        }
      ],
      "stateMutability": "view",
      "type": "function"
    },
    {
      "inputs": [],
      "name": "round3Price",
      "outputs": [
        {
          "internalType": "uint256",
          "name": "",
          "type": "uint256"
        }
      ],
      "stateMutability": "view",
      "type": "function"
    },
    {
      "inputs": [],
      "name": "round4Price",
      "outputs": [
        {
          "internalType": "uint256",
          "name": "",
          "type": "uint256"
        }
      ],
      "stateMutability": "view",
      "type": "function"
    },
    {
      "inputs": [],
      "name": "round5Price",
      "outputs": [
        {
          "internalType": "uint256",
          "name": "",
          "type": "uint256"
        }
      ],
      "stateMutability": "view",
      "type": "function"
    },
    {
      "inputs": [],
      "name": "roundLimit",
      "outputs": [
        {
          "internalType": "uint256",
          "name": "",
          "type": "uint256"
        }
      ],
      "stateMutability": "view",
      "type": "function"
    },
    {
      "inputs": [
        {
          "internalType": "uint256",
          "name": "_amount",
          "type": "uint256"
        },
        {
          "internalType": "uint256",
          "name": "_roundPrice",
          "type": "uint256"
        }
      ],
      "name": "sellTokenInETHPrice",
      "outputs": [
        {
          "internalType": "uint256",
          "name": "",
          "type": "uint256"
        }
      ],
      "stateMutability": "view",
      "type": "function"
    },
    {
      "inputs": [
        {
          "internalType": "uint256",
          "name": "_amount",
          "type": "uint256"
        },
        {
          "internalType": "uint256",
          "name": "_roundPrice",
          "type": "uint256"
        }
      ],
      "name": "sellTokenInUDSTPrice",
      "outputs": [
        {
          "internalType": "uint256",
          "name": "",
          "type": "uint256"
        }
      ],
      "stateMutability": "view",
      "type": "function"
    },
    {
      "inputs": [
        {
          "internalType": "address",
          "name": "",
          "type": "address"
        }
      ],
      "name": "soldTokens",
      "outputs": [
        {
          "internalType": "uint256",
          "name": "",
          "type": "uint256"
        }
      ],
      "stateMutability": "view",
      "type": "function"
    },
    {
      "inputs": [],
      "name": "stakeholdersTokens",
      "outputs": [
        {
          "internalType": "uint256",
          "name": "",
          "type": "uint256"
        }
      ],
      "stateMutability": "view",
      "type": "function"
    },
    {
      "inputs": [],
      "name": "stakeholdersTokensWallet",
      "outputs": [
        {
          "internalType": "address",
          "name": "",
          "type": "address"
        }
      ],
      "stateMutability": "view",
      "type": "function"
    },
    {
      "inputs": [],
      "name": "startTheSale",
      "outputs": [],
      "stateMutability": "nonpayable",
      "type": "function"
    },
    {
      "inputs": [],
      "name": "symbol",
      "outputs": [
        {
          "internalType": "string",
          "name": "",
          "type": "string"
        }
      ],
      "stateMutability": "view",
      "type": "function"
    },
    {
      "inputs": [],
      "name": "totalSupply",
      "outputs": [
        {
          "internalType": "uint256",
          "name": "",
          "type": "uint256"
        }
      ],
      "stateMutability": "pure",
      "type": "function"
    },
    {
      "inputs": [
        {
          "internalType": "address",
          "name": "to",
          "type": "address"
        },
        {
          "internalType": "uint256",
          "name": "amount",
          "type": "uint256"
        }
      ],
      "name": "transfer",
      "outputs": [
        {
          "internalType": "bool",
          "name": "",
          "type": "bool"
        }
      ],
      "stateMutability": "nonpayable",
      "type": "function"
    },
    {
      "inputs": [
        {
          "internalType": "address",
          "name": "from",
          "type": "address"
        },
        {
          "internalType": "address",
          "name": "to",
          "type": "address"
        },
        {
          "internalType": "uint256",
          "name": "amount",
          "type": "uint256"
        }
      ],
      "name": "transferFrom",
      "outputs": [
        {
          "internalType": "bool",
          "name": "",
          "type": "bool"
        }
      ],
      "stateMutability": "nonpayable",
      "type": "function"
    },
    {
      "inputs": [
        {
          "internalType": "address",
          "name": "newOwner",
          "type": "address"
        }
      ],
      "name": "transferOwnership",
      "outputs": [],
      "stateMutability": "nonpayable",
      "type": "function"
    },
    {
      "inputs": [],
      "name": "withdraw",
      "outputs": [],
      "stateMutability": "nonpayable",
      "type": "function"
    },
    {
      "inputs": [],
      "name": "withdrawUSDT",
      "outputs": [],
      "stateMutability": "nonpayable",
      "type": "function"
    }
  ],
  "bytecode": "0x60806040526a52b7d2dcc80cd2e40000006007556aa56fa5b99019a5c80000006008556aa56fa5b99019a5c800000060095564e8d4a51000600b55611388600c55612710600d55614e20600e55619c40600f55620138806010553480156200006657600080fd5b5060405162004a4e38038062004a4e83398181016040528101906200008c91906200059a565b6040518060400160405280600881526020017f41494d546f6b656e0000000000000000000000000000000000000000000000008152506040518060400160405280600381526020017f41494d0000000000000000000000000000000000000000000000000000000000815250816003908162000109919062000846565b5080600490816200011b919062000846565b5050506200013e62000132620002eb60201b60201c565b620002f360201b60201c565b30601260006101000a81548173ffffffffffffffffffffffffffffffffffffffff021916908373ffffffffffffffffffffffffffffffffffffffff16021790555030601160006101000a81548173ffffffffffffffffffffffffffffffffffffffff021916908373ffffffffffffffffffffffffffffffffffffffff16021790555030601360006101000a81548173ffffffffffffffffffffffffffffffffffffffff021916908373ffffffffffffffffffffffffffffffffffffffff16021790555062000237601260009054906101000a900473ffffffffffffffffffffffffffffffffffffffff16600854620003b960201b60201c565b6200026d601160009054906101000a900473ffffffffffffffffffffffffffffffffffffffff16600754620003b960201b60201c565b620002a3601360009054906101000a900473ffffffffffffffffffffffffffffffffffffffff16600954620003b960201b60201c565b80601560006101000a81548173ffffffffffffffffffffffffffffffffffffffff021916908373ffffffffffffffffffffffffffffffffffffffff1602179055505062000a48565b600033905090565b6000600560009054906101000a900473ffffffffffffffffffffffffffffffffffffffff16905081600560006101000a81548173ffffffffffffffffffffffffffffffffffffffff021916908373ffffffffffffffffffffffffffffffffffffffff1602179055508173ffffffffffffffffffffffffffffffffffffffff168173ffffffffffffffffffffffffffffffffffffffff167f8be0079c531659141344cd1fd0a4f28419497f9722a3daafe3b4186f6b6457e060405160405180910390a35050565b600073ffffffffffffffffffffffffffffffffffffffff168273ffffffffffffffffffffffffffffffffffffffff16036200042b576040517f08c379a000000000000000000000000000000000000000000000000000000000815260040162000422906200098e565b60405180910390fd5b6200043f600083836200052660201b60201c565b8060026000828254620004539190620009df565b92505081905550806000808473ffffffffffffffffffffffffffffffffffffffff1673ffffffffffffffffffffffffffffffffffffffff168152602001908152602001600020600082825401925050819055508173ffffffffffffffffffffffffffffffffffffffff16600073ffffffffffffffffffffffffffffffffffffffff167fddf252ad1be2c89b69c2b068fc378daa952ba7f163c4a11628f55a4df523b3ef8360405162000506919062000a2b565b60405180910390a362000522600083836200052b60201b60201c565b5050565b505050565b505050565b600080fd5b600073ffffffffffffffffffffffffffffffffffffffff82169050919050565b6000620005628262000535565b9050919050565b620005748162000555565b81146200058057600080fd5b50565b600081519050620005948162000569565b92915050565b600060208284031215620005b357620005b262000530565b5b6000620005c38482850162000583565b91505092915050565b600081519050919050565b7f4e487b7100000000000000000000000000000000000000000000000000000000600052604160045260246000fd5b7f4e487b7100000000000000000000000000000000000000000000000000000000600052602260045260246000fd5b600060028204905060018216806200064e57607f821691505b60208210810362000664576200066362000606565b5b50919050565b60008190508160005260206000209050919050565b60006020601f8301049050919050565b600082821b905092915050565b600060088302620006ce7fffffffffffffffffffffffffffffffffffffffffffffffffffffffffffffffff826200068f565b620006da86836200068f565b95508019841693508086168417925050509392505050565b6000819050919050565b6000819050919050565b600062000727620007216200071b84620006f2565b620006fc565b620006f2565b9050919050565b6000819050919050565b620007438362000706565b6200075b62000752826200072e565b8484546200069c565b825550505050565b600090565b6200077262000763565b6200077f81848462000738565b505050565b5b81811015620007a7576200079b60008262000768565b60018101905062000785565b5050565b601f821115620007f657620007c0816200066a565b620007cb846200067f565b81016020851015620007db578190505b620007f3620007ea856200067f565b83018262000784565b50505b505050565b600082821c905092915050565b60006200081b60001984600802620007fb565b1980831691505092915050565b600062000836838362000808565b9150826002028217905092915050565b6200085182620005cc565b67ffffffffffffffff8111156200086d576200086c620005d7565b5b62000879825462000635565b62000886828285620007ab565b600060209050601f831160018114620008be5760008415620008a9578287015190505b620008b5858262000828565b86555062000925565b601f198416620008ce866200066a565b60005b82811015620008f857848901518255600182019150602085019450602081019050620008d1565b8683101562000918578489015162000914601f89168262000808565b8355505b6001600288020188555050505b505050505050565b600082825260208201905092915050565b7f45524332303a206d696e7420746f20746865207a65726f206164647265737300600082015250565b600062000976601f836200092d565b915062000983826200093e565b602082019050919050565b60006020820190508181036000830152620009a98162000967565b9050919050565b7f4e487b7100000000000000000000000000000000000000000000000000000000600052601160045260246000fd5b6000620009ec82620006f2565b9150620009f983620006f2565b925082820190508082111562000a145762000a13620009b0565b5b92915050565b62000a2581620006f2565b82525050565b600060208201905062000a42600083018462000a1a565b92915050565b613ff68062000a586000396000f3fe6080604052600436106102245760003560e01c806377186fba1161012357806398dd36bf116100ab578063da0239a61161006f578063da0239a6146107e1578063dd62ed3e1461080c578063e167dbca14610849578063f2fde38b14610874578063f497f6ca1461089d57610224565b806398dd36bf146106d4578063a457c2d7146106ff578063a9059cbb1461073c578063b1272af014610779578063ba0dc0cd146107a457610224565b80638da5cb5b116100f25780638da5cb5b146106115780638de2637b1461063c578063949f26421461065357806395d89b411461067e57806396578879146106a957610224565b806377186fba146105745780637a8c2ffe146105905780638182567a146105bb57806389d454af146105e657610224565b806323b872dd116101b15780634184bcce116101755780634184bcce146104a15780634b8ce602146104de5780636aab41df1461050957806370a0823114610520578063715018a61461055d57610224565b806323b872dd146103ce578063313ce5671461040b578063362e496b14610436578063395093511461044d5780633ccfd60b1461048a57610224565b806314032c2b116101f857806314032c2b146102e7578063146ca5311461031257806318160ddd1461033d57806319617e34146103685780632342583b146103a557610224565b8062b39c6a14610229578063017309431461025457806306fdde031461027f578063095ea7b3146102aa575b600080fd5b34801561023557600080fd5b5061023e6108c8565b60405161024b919061317b565b60405180910390f35b34801561026057600080fd5b506102696108ce565b604051610276919061317b565b60405180910390f35b34801561028b57600080fd5b506102946108d4565b6040516102a19190613226565b60405180910390f35b3480156102b657600080fd5b506102d160048036038101906102cc91906132d7565b610966565b6040516102de9190613332565b60405180910390f35b3480156102f357600080fd5b506102fc610989565b604051610309919061335c565b60405180910390f35b34801561031e57600080fd5b506103276109af565b604051610334919061317b565b60405180910390f35b34801561034957600080fd5b506103526109b5565b60405161035f919061317b565b60405180910390f35b34801561037457600080fd5b5061038f600480360381019061038a9190613377565b6109c9565b60405161039c919061317b565b60405180910390f35b3480156103b157600080fd5b506103cc60048036038101906103c791906133a4565b6109e1565b005b3480156103da57600080fd5b506103f560048036038101906103f091906133d1565b611911565b6040516104029190613332565b60405180910390f35b34801561041757600080fd5b50610420611940565b60405161042d9190613440565b60405180910390f35b34801561044257600080fd5b5061044b611949565b005b34801561045957600080fd5b50610474600480360381019061046f91906132d7565b611b5e565b6040516104819190613332565b60405180910390f35b34801561049657600080fd5b5061049f611b95565b005b3480156104ad57600080fd5b506104c860048036038101906104c3919061345b565b611c43565b6040516104d5919061317b565b60405180910390f35b3480156104ea57600080fd5b506104f3611c94565b604051610500919061317b565b60405180910390f35b34801561051557600080fd5b5061051e611c9a565b005b34801561052c57600080fd5b5061054760048036038101906105429190613377565b611deb565b604051610554919061317b565b60405180910390f35b34801561056957600080fd5b50610572611e33565b005b61058e600480360381019061058991906133a4565b611e47565b005b34801561059c57600080fd5b506105a5612515565b6040516105b2919061335c565b60405180910390f35b3480156105c757600080fd5b506105d061253b565b6040516105dd919061335c565b60405180910390f35b3480156105f257600080fd5b506105fb612561565b604051610608919061317b565b60405180910390f35b34801561061d57600080fd5b50610626612567565b604051610633919061335c565b60405180910390f35b34801561064857600080fd5b50610651612591565b005b34801561065f57600080fd5b5061066861261d565b604051610675919061317b565b60405180910390f35b34801561068a57600080fd5b5061069361262c565b6040516106a09190613226565b60405180910390f35b3480156106b557600080fd5b506106be6126be565b6040516106cb919061317b565b60405180910390f35b3480156106e057600080fd5b506106e96126c4565b6040516106f6919061317b565b60405180910390f35b34801561070b57600080fd5b50610726600480360381019061072191906132d7565b6127a0565b6040516107339190613332565b60405180910390f35b34801561074857600080fd5b50610763600480360381019061075e91906132d7565b612817565b6040516107709190613332565b60405180910390f35b34801561078557600080fd5b5061078e61283a565b60405161079b919061317b565b60405180910390f35b3480156107b057600080fd5b506107cb60048036038101906107c6919061345b565b612840565b6040516107d8919061317b565b60405180910390f35b3480156107ed57600080fd5b506107f66128cf565b604051610803919061317b565b60405180910390f35b34801561081857600080fd5b50610833600480360381019061082e919061349b565b6128d5565b604051610840919061317b565b60405180910390f35b34801561085557600080fd5b5061085e61295c565b60405161086b919061317b565b60405180910390f35b34801561088057600080fd5b5061089b60048036038101906108969190613377565b612962565b005b3480156108a957600080fd5b506108b26129e5565b6040516108bf919061317b565b60405180910390f35b600e5481565b60085481565b6060600380546108e39061350a565b80601f016020809104026020016040519081016040528092919081815260200182805461090f9061350a565b801561095c5780601f106109315761010080835404028352916020019161095c565b820191906000526020600020905b81548152906001019060200180831161093f57829003601f168201915b5050505050905090565b6000806109716129eb565b905061097e8185856129f3565b600191505092915050565b601360009054906101000a900473ffffffffffffffffffffffffffffffffffffffff1681565b60065481565b60006b033b2e3c9fd0803ce8000000905090565b60146020528060005260406000206000915090505481565b600060065403610a1d576040517f3f1b3b5300000000000000000000000000000000000000000000000000000000815260040160405180910390fd5b600081600a54610a2d919061356a565b11610a64576040517f9210988b00000000000000000000000000000000000000000000000000000000815260040160405180910390fd5b600160065403610d48576000610a7c82600c54611c43565b90506301c9c380601560009054906101000a900473ffffffffffffffffffffffffffffffffffffffff1673ffffffffffffffffffffffffffffffffffffffff166370a08231336040518263ffffffff1660e01b8152600401610ade919061335c565b6020604051808303816000875af1158015610afd573d6000803e3d6000fd5b505050506040513d601f19601f82011682018060405250810190610b2191906135b3565b1080610bc9575080601560009054906101000a900473ffffffffffffffffffffffffffffffffffffffff1673ffffffffffffffffffffffffffffffffffffffff166370a08231336040518263ffffffff1660e01b8152600401610b84919061335c565b6020604051808303816000875af1158015610ba3573d6000803e3d6000fd5b505050506040513d601f19601f82011682018060405250810190610bc791906135b3565b105b15610c00576040517fcf553dfa00000000000000000000000000000000000000000000000000000000815260040160405180910390fd5b601560009054906101000a900473ffffffffffffffffffffffffffffffffffffffff1673ffffffffffffffffffffffffffffffffffffffff166323b872dd3330846040518463ffffffff1660e01b8152600401610c5f939291906135e0565b600060405180830381600087803b158015610c7957600080fd5b505af1158015610c8d573d6000803e3d6000fd5b5050505081600a6000828254610ca3919061356a565b9250508190555081601460003373ffffffffffffffffffffffffffffffffffffffff1673ffffffffffffffffffffffffffffffffffffffff1681526020019081526020016000206000828254610cf99190613617565b925050819055507f702daf19347ac5d6af369c5a377056b2e08aaaf05065c8b444bacd28abfe61966006543384600085604051610d3a959493929190613690565b60405180910390a15061190e565b60026006540361102c576000610d6082600d54611c43565b90506301c9c380601560009054906101000a900473ffffffffffffffffffffffffffffffffffffffff1673ffffffffffffffffffffffffffffffffffffffff166370a08231336040518263ffffffff1660e01b8152600401610dc2919061335c565b6020604051808303816000875af1158015610de1573d6000803e3d6000fd5b505050506040513d601f19601f82011682018060405250810190610e0591906135b3565b1080610ead575080601560009054906101000a900473ffffffffffffffffffffffffffffffffffffffff1673ffffffffffffffffffffffffffffffffffffffff166370a08231336040518263ffffffff1660e01b8152600401610e68919061335c565b6020604051808303816000875af1158015610e87573d6000803e3d6000fd5b505050506040513d601f19601f82011682018060405250810190610eab91906135b3565b105b15610ee4576040517fcf553dfa00000000000000000000000000000000000000000000000000000000815260040160405180910390fd5b601560009054906101000a900473ffffffffffffffffffffffffffffffffffffffff1673ffffffffffffffffffffffffffffffffffffffff166323b872dd3330846040518463ffffffff1660e01b8152600401610f43939291906135e0565b600060405180830381600087803b158015610f5d57600080fd5b505af1158015610f71573d6000803e3d6000fd5b5050505081600a6000828254610f87919061356a565b9250508190555081601460003373ffffffffffffffffffffffffffffffffffffffff1673ffffffffffffffffffffffffffffffffffffffff1681526020019081526020016000206000828254610fdd9190613617565b925050819055507f702daf19347ac5d6af369c5a377056b2e08aaaf05065c8b444bacd28abfe6196600654338460008560405161101e959493929190613690565b60405180910390a15061190d565b60036006540361131057600061104482600e54611c43565b90506301c9c380601560009054906101000a900473ffffffffffffffffffffffffffffffffffffffff1673ffffffffffffffffffffffffffffffffffffffff166370a08231336040518263ffffffff1660e01b81526004016110a6919061335c565b6020604051808303816000875af11580156110c5573d6000803e3d6000fd5b505050506040513d601f19601f820116820180604052508101906110e991906135b3565b1080611191575080601560009054906101000a900473ffffffffffffffffffffffffffffffffffffffff1673ffffffffffffffffffffffffffffffffffffffff166370a08231336040518263ffffffff1660e01b815260040161114c919061335c565b6020604051808303816000875af115801561116b573d6000803e3d6000fd5b505050506040513d601f19601f8201168201806040525081019061118f91906135b3565b105b156111c8576040517fcf553dfa00000000000000000000000000000000000000000000000000000000815260040160405180910390fd5b601560009054906101000a900473ffffffffffffffffffffffffffffffffffffffff1673ffffffffffffffffffffffffffffffffffffffff166323b872dd3330846040518463ffffffff1660e01b8152600401611227939291906135e0565b600060405180830381600087803b15801561124157600080fd5b505af1158015611255573d6000803e3d6000fd5b5050505081600a600082825461126b919061356a565b9250508190555081601460003373ffffffffffffffffffffffffffffffffffffffff1673ffffffffffffffffffffffffffffffffffffffff16815260200190815260200160002060008282546112c19190613617565b925050819055507f702daf19347ac5d6af369c5a377056b2e08aaaf05065c8b444bacd28abfe61966006543384600085604051611302959493929190613690565b60405180910390a15061190c565b6004600654036115f457600061132882600f54611c43565b90506301c9c380601560009054906101000a900473ffffffffffffffffffffffffffffffffffffffff1673ffffffffffffffffffffffffffffffffffffffff166370a08231336040518263ffffffff1660e01b815260040161138a919061335c565b6020604051808303816000875af11580156113a9573d6000803e3d6000fd5b505050506040513d601f19601f820116820180604052508101906113cd91906135b3565b1080611475575080601560009054906101000a900473ffffffffffffffffffffffffffffffffffffffff1673ffffffffffffffffffffffffffffffffffffffff166370a08231336040518263ffffffff1660e01b8152600401611430919061335c565b6020604051808303816000875af115801561144f573d6000803e3d6000fd5b505050506040513d601f19601f8201168201806040525081019061147391906135b3565b105b156114ac576040517fcf553dfa00000000000000000000000000000000000000000000000000000000815260040160405180910390fd5b601560009054906101000a900473ffffffffffffffffffffffffffffffffffffffff1673ffffffffffffffffffffffffffffffffffffffff166323b872dd3330846040518463ffffffff1660e01b815260040161150b939291906135e0565b600060405180830381600087803b15801561152557600080fd5b505af1158015611539573d6000803e3d6000fd5b5050505081600a600082825461154f919061356a565b9250508190555081601460003373ffffffffffffffffffffffffffffffffffffffff1673ffffffffffffffffffffffffffffffffffffffff16815260200190815260200160002060008282546115a59190613617565b925050819055507f702daf19347ac5d6af369c5a377056b2e08aaaf05065c8b444bacd28abfe619660065433846000856040516115e6959493929190613690565b60405180910390a15061190b565b6005600654036118d857600061160c82601054611c43565b90506301c9c380601560009054906101000a900473ffffffffffffffffffffffffffffffffffffffff1673ffffffffffffffffffffffffffffffffffffffff166370a08231336040518263ffffffff1660e01b815260040161166e919061335c565b6020604051808303816000875af115801561168d573d6000803e3d6000fd5b505050506040513d601f19601f820116820180604052508101906116b191906135b3565b1080611759575080601560009054906101000a900473ffffffffffffffffffffffffffffffffffffffff1673ffffffffffffffffffffffffffffffffffffffff166370a08231336040518263ffffffff1660e01b8152600401611714919061335c565b6020604051808303816000875af1158015611733573d6000803e3d6000fd5b505050506040513d601f19601f8201168201806040525081019061175791906135b3565b105b15611790576040517fcf553dfa00000000000000000000000000000000000000000000000000000000815260040160405180910390fd5b601560009054906101000a900473ffffffffffffffffffffffffffffffffffffffff1673ffffffffffffffffffffffffffffffffffffffff166323b872dd3330846040518463ffffffff1660e01b81526004016117ef939291906135e0565b600060405180830381600087803b15801561180957600080fd5b505af115801561181d573d6000803e3d6000fd5b5050505081600a6000828254611833919061356a565b9250508190555081601460003373ffffffffffffffffffffffffffffffffffffffff1673ffffffffffffffffffffffffffffffffffffffff16815260200190815260200160002060008282546118899190613617565b925050819055507f702daf19347ac5d6af369c5a377056b2e08aaaf05065c8b444bacd28abfe619660065433846000856040516118ca959493929190613690565b60405180910390a15061190a565b6040517fe5c86cd700000000000000000000000000000000000000000000000000000000815260040160405180910390fd5b5b5b5b5b50565b60008061191c6129eb565b9050611929858285612bbc565b611934858585612c48565b60019150509392505050565b60006012905090565b611951612ebe565b6000601560009054906101000a900473ffffffffffffffffffffffffffffffffffffffff1673ffffffffffffffffffffffffffffffffffffffff166370a08231336040518263ffffffff1660e01b81526004016119ae919061335c565b6020604051808303816000875af11580156119cd573d6000803e3d6000fd5b505050506040513d601f19601f820116820180604052508101906119f191906135b3565b1015611a29576040517f4be200da00000000000000000000000000000000000000000000000000000000815260040160405180910390fd5b601560009054906101000a900473ffffffffffffffffffffffffffffffffffffffff1673ffffffffffffffffffffffffffffffffffffffff1663a9059cbb611a6f612567565b601560009054906101000a900473ffffffffffffffffffffffffffffffffffffffff1673ffffffffffffffffffffffffffffffffffffffff166370a08231306040518263ffffffff1660e01b8152600401611aca919061335c565b6020604051808303816000875af1158015611ae9573d6000803e3d6000fd5b505050506040513d601f19601f82011682018060405250810190611b0d91906135b3565b6040518363ffffffff1660e01b8152600401611b2a9291906136e3565b600060405180830381600087803b158015611b4457600080fd5b505af1158015611b58573d6000803e3d6000fd5b50505050565b600080611b696129eb565b9050611b8a818585611b7b85896128d5565b611b859190613617565b6129f3565b600191505092915050565b611b9d612ebe565b60003373ffffffffffffffffffffffffffffffffffffffff1647604051611bc39061373d565b60006040518083038185875af1925050503d8060008114611c00576040519150601f19603f3d011682016040523d82523d6000602084013e611c05565b606091505b5050905080611c40576040517fa8fc93ca00000000000000000000000000000000000000000000000000000000815260040160405180910390fd5b50565b600080600b5483611c549190613752565b9050600064e8d4a51000670de0b6b3a76400008684611c739190613752565b611c7d91906137c3565b611c8791906137c3565b9050809250505092915050565b60075481565b6000601460003373ffffffffffffffffffffffffffffffffffffffff1673ffffffffffffffffffffffffffffffffffffffff1681526020019081526020016000205411611d13576040517f98fc9e8c00000000000000000000000000000000000000000000000000000000815260040160405180910390fd5b6006805414611d57576040517f08c379a0000000000000000000000000000000000000000000000000000000008152600401611d4e90613840565b60405180910390fd5b6000601460003373ffffffffffffffffffffffffffffffffffffffff1673ffffffffffffffffffffffffffffffffffffffff168152602001908152602001600020549050601460003373ffffffffffffffffffffffffffffffffffffffff1673ffffffffffffffffffffffffffffffffffffffff16815260200190815260200160002060009055611de83382612f3c565b50565b60008060008373ffffffffffffffffffffffffffffffffffffffff1673ffffffffffffffffffffffffffffffffffffffff168152602001908152602001600020549050919050565b611e3b612ebe565b611e456000613092565b565b600060065403611e83576040517f3f1b3b5300000000000000000000000000000000000000000000000000000000815260040160405180910390fd5b600081600a54611e93919061356a565b11611eca576040517f9210988b00000000000000000000000000000000000000000000000000000000815260040160405180910390fd5b6301c9c380601560009054906101000a900473ffffffffffffffffffffffffffffffffffffffff1673ffffffffffffffffffffffffffffffffffffffff166370a08231336040518263ffffffff1660e01b8152600401611f2a919061335c565b6020604051808303816000875af1158015611f49573d6000803e3d6000fd5b505050506040513d601f19601f82011682018060405250810190611f6d91906135b3565b1015611fa5576040517fcf553dfa00000000000000000000000000000000000000000000000000000000815260040160405180910390fd5b6001600654036120b0576000611fbd82600c54612840565b905080341015611ff9576040517f8bbdc31c00000000000000000000000000000000000000000000000000000000815260040160405180910390fd5b81600a600082825461200b919061356a565b9250508190555081601460003373ffffffffffffffffffffffffffffffffffffffff1673ffffffffffffffffffffffffffffffffffffffff16815260200190815260200160002060008282546120619190613617565b925050819055507f702daf19347ac5d6af369c5a377056b2e08aaaf05065c8b444bacd28abfe619660065433843460006040516120a2959493929190613860565b60405180910390a150612512565b6002600654036121bb5760006120c882600d54612840565b905080341015612104576040517f8bbdc31c00000000000000000000000000000000000000000000000000000000815260040160405180910390fd5b81600a6000828254612116919061356a565b9250508190555081601460003373ffffffffffffffffffffffffffffffffffffffff1673ffffffffffffffffffffffffffffffffffffffff168152602001908152602001600020600082825461216c9190613617565b925050819055507f702daf19347ac5d6af369c5a377056b2e08aaaf05065c8b444bacd28abfe619660065433843460006040516121ad959493929190613860565b60405180910390a150612511565b6003600654036122c65760006121d382600e54612840565b90508034101561220f576040517f8bbdc31c00000000000000000000000000000000000000000000000000000000815260040160405180910390fd5b81600a6000828254612221919061356a565b9250508190555081601460003373ffffffffffffffffffffffffffffffffffffffff1673ffffffffffffffffffffffffffffffffffffffff16815260200190815260200160002060008282546122779190613617565b925050819055507f702daf19347ac5d6af369c5a377056b2e08aaaf05065c8b444bacd28abfe619660065433843460006040516122b8959493929190613860565b60405180910390a150612510565b6004600654036123d15760006122de82600f54612840565b90508034101561231a576040517f8bbdc31c00000000000000000000000000000000000000000000000000000000815260040160405180910390fd5b81600a600082825461232c919061356a565b9250508190555081601460003373ffffffffffffffffffffffffffffffffffffffff1673ffffffffffffffffffffffffffffffffffffffff16815260200190815260200160002060008282546123829190613617565b925050819055507f702daf19347ac5d6af369c5a377056b2e08aaaf05065c8b444bacd28abfe619660065433843460006040516123c3959493929190613860565b60405180910390a15061250f565b6005600654036124dc5760006123e982601054612840565b905080341015612425576040517f8bbdc31c00000000000000000000000000000000000000000000000000000000815260040160405180910390fd5b81600a6000828254612437919061356a565b9250508190555081601460003373ffffffffffffffffffffffffffffffffffffffff1673ffffffffffffffffffffffffffffffffffffffff168152602001908152602001600020600082825461248d9190613617565b925050819055507f702daf19347ac5d6af369c5a377056b2e08aaaf05065c8b444bacd28abfe619660065433843460006040516124ce959493929190613860565b60405180910390a15061250e565b6040517fe5c86cd700000000000000000000000000000000000000000000000000000000815260040160405180910390fd5b5b5b5b5b50565b601260009054906101000a900473ffffffffffffffffffffffffffffffffffffffff1681565b601160009054906101000a900473ffffffffffffffffffffffffffffffffffffffff1681565b600d5481565b6000600560009054906101000a900473ffffffffffffffffffffffffffffffffffffffff16905090565b612599612ebe565b60068054106125dd576040517f08c379a00000000000000000000000000000000000000000000000000000000081526004016125d4906138ff565b60405180910390fd5b6001600660008282546125f09190613617565b925050819055506a52b7d2dcc80cd2e4000000600a60008282546126149190613617565b92505081905550565b6a52b7d2dcc80cd2e400000081565b60606004805461263b9061350a565b80601f01602080910402602001604051908101604052809291908181526020018280546126679061350a565b80156126b45780601f10612689576101008083540402835291602001916126b4565b820191906000526020600020905b81548152906001019060200180831161269757829003601f168201915b5050505050905090565b600c5481565b60008073ee9f2375b4bdf6387aa8265dd4fb8f16512a1d46905060008173ffffffffffffffffffffffffffffffffffffffff1663feaf968c6040518163ffffffff1660e01b815260040160a060405180830381865afa15801561272b573d6000803e3d6000fd5b505050506040513d601f19601f8201168201806040525081019061274f9190613997565b50505091505060008113612798576040517f08c379a000000000000000000000000000000000000000000000000000000000815260040161278f90613a5e565b60405180910390fd5b809250505090565b6000806127ab6129eb565b905060006127b982866128d5565b9050838110156127fe576040517f08c379a00000000000000000000000000000000000000000000000000000000081526004016127f590613af0565b60405180910390fd5b61280b82868684036129f3565b60019250505092915050565b6000806128226129eb565b905061282f818585612c48565b600191505092915050565b600f5481565b600080600b54836128519190613752565b9050600064e8d4a51000670de0b6b3a764000086846128709190613752565b61287a91906137c3565b61288491906137c3565b90506000600b54826128969190613752565b90506000670de0b6b3a7640000826128ac6126c4565b6128b69190613752565b6128c091906137c3565b90508094505050505092915050565b600a5481565b6000600160008473ffffffffffffffffffffffffffffffffffffffff1673ffffffffffffffffffffffffffffffffffffffff16815260200190815260200160002060008373ffffffffffffffffffffffffffffffffffffffff1673ffffffffffffffffffffffffffffffffffffffff16815260200190815260200160002054905092915050565b60095481565b61296a612ebe565b600073ffffffffffffffffffffffffffffffffffffffff168173ffffffffffffffffffffffffffffffffffffffff16036129d9576040517f08c379a00000000000000000000000000000000000000000000000000000000081526004016129d090613b82565b60405180910390fd5b6129e281613092565b50565b60105481565b600033905090565b600073ffffffffffffffffffffffffffffffffffffffff168373ffffffffffffffffffffffffffffffffffffffff1603612a62576040517f08c379a0000000000000000000000000000000000000000000000000000000008152600401612a5990613c14565b60405180910390fd5b600073ffffffffffffffffffffffffffffffffffffffff168273ffffffffffffffffffffffffffffffffffffffff1603612ad1576040517f08c379a0000000000000000000000000000000000000000000000000000000008152600401612ac890613ca6565b60405180910390fd5b80600160008573ffffffffffffffffffffffffffffffffffffffff1673ffffffffffffffffffffffffffffffffffffffff16815260200190815260200160002060008473ffffffffffffffffffffffffffffffffffffffff1673ffffffffffffffffffffffffffffffffffffffff168152602001908152602001600020819055508173ffffffffffffffffffffffffffffffffffffffff168373ffffffffffffffffffffffffffffffffffffffff167f8c5be1e5ebec7d5bd14f71427d1e84f3dd0314c0f7b2291e5b200ac8c7c3b92583604051612baf919061317b565b60405180910390a3505050565b6000612bc884846128d5565b90507fffffffffffffffffffffffffffffffffffffffffffffffffffffffffffffffff8114612c425781811015612c34576040517f08c379a0000000000000000000000000000000000000000000000000000000008152600401612c2b90613d12565b60405180910390fd5b612c4184848484036129f3565b5b50505050565b600073ffffffffffffffffffffffffffffffffffffffff168373ffffffffffffffffffffffffffffffffffffffff1603612cb7576040517f08c379a0000000000000000000000000000000000000000000000000000000008152600401612cae90613da4565b60405180910390fd5b600073ffffffffffffffffffffffffffffffffffffffff168273ffffffffffffffffffffffffffffffffffffffff1603612d26576040517f08c379a0000000000000000000000000000000000000000000000000000000008152600401612d1d90613e36565b60405180910390fd5b612d31838383613158565b60008060008573ffffffffffffffffffffffffffffffffffffffff1673ffffffffffffffffffffffffffffffffffffffff16815260200190815260200160002054905081811015612db7576040517f08c379a0000000000000000000000000000000000000000000000000000000008152600401612dae90613ec8565b60405180910390fd5b8181036000808673ffffffffffffffffffffffffffffffffffffffff1673ffffffffffffffffffffffffffffffffffffffff16815260200190815260200160002081905550816000808573ffffffffffffffffffffffffffffffffffffffff1673ffffffffffffffffffffffffffffffffffffffff168152602001908152602001600020600082825401925050819055508273ffffffffffffffffffffffffffffffffffffffff168473ffffffffffffffffffffffffffffffffffffffff167fddf252ad1be2c89b69c2b068fc378daa952ba7f163c4a11628f55a4df523b3ef84604051612ea5919061317b565b60405180910390a3612eb884848461315d565b50505050565b612ec66129eb565b73ffffffffffffffffffffffffffffffffffffffff16612ee4612567565b73ffffffffffffffffffffffffffffffffffffffff1614612f3a576040517f08c379a0000000000000000000000000000000000000000000000000000000008152600401612f3190613f34565b60405180910390fd5b565b600073ffffffffffffffffffffffffffffffffffffffff168273ffffffffffffffffffffffffffffffffffffffff1603612fab576040517f08c379a0000000000000000000000000000000000000000000000000000000008152600401612fa290613fa0565b60405180910390fd5b612fb760008383613158565b8060026000828254612fc99190613617565b92505081905550806000808473ffffffffffffffffffffffffffffffffffffffff1673ffffffffffffffffffffffffffffffffffffffff168152602001908152602001600020600082825401925050819055508173ffffffffffffffffffffffffffffffffffffffff16600073ffffffffffffffffffffffffffffffffffffffff167fddf252ad1be2c89b69c2b068fc378daa952ba7f163c4a11628f55a4df523b3ef8360405161307a919061317b565b60405180910390a361308e6000838361315d565b5050565b6000600560009054906101000a900473ffffffffffffffffffffffffffffffffffffffff16905081600560006101000a81548173ffffffffffffffffffffffffffffffffffffffff021916908373ffffffffffffffffffffffffffffffffffffffff1602179055508173ffffffffffffffffffffffffffffffffffffffff168173ffffffffffffffffffffffffffffffffffffffff167f8be0079c531659141344cd1fd0a4f28419497f9722a3daafe3b4186f6b6457e060405160405180910390a35050565b505050565b505050565b6000819050919050565b61317581613162565b82525050565b6000602082019050613190600083018461316c565b92915050565b600081519050919050565b600082825260208201905092915050565b60005b838110156131d05780820151818401526020810190506131b5565b60008484015250505050565b6000601f19601f8301169050919050565b60006131f882613196565b61320281856131a1565b93506132128185602086016131b2565b61321b816131dc565b840191505092915050565b6000602082019050818103600083015261324081846131ed565b905092915050565b600080fd5b600073ffffffffffffffffffffffffffffffffffffffff82169050919050565b60006132788261324d565b9050919050565b6132888161326d565b811461329357600080fd5b50565b6000813590506132a58161327f565b92915050565b6132b481613162565b81146132bf57600080fd5b50565b6000813590506132d1816132ab565b92915050565b600080604083850312156132ee576132ed613248565b5b60006132fc85828601613296565b925050602061330d858286016132c2565b9150509250929050565b60008115159050919050565b61332c81613317565b82525050565b60006020820190506133476000830184613323565b92915050565b6133568161326d565b82525050565b6000602082019050613371600083018461334d565b92915050565b60006020828403121561338d5761338c613248565b5b600061339b84828501613296565b91505092915050565b6000602082840312156133ba576133b9613248565b5b60006133c8848285016132c2565b91505092915050565b6000806000606084860312156133ea576133e9613248565b5b60006133f886828701613296565b935050602061340986828701613296565b925050604061341a868287016132c2565b9150509250925092565b600060ff82169050919050565b61343a81613424565b82525050565b60006020820190506134556000830184613431565b92915050565b6000806040838503121561347257613471613248565b5b6000613480858286016132c2565b9250506020613491858286016132c2565b9150509250929050565b600080604083850312156134b2576134b1613248565b5b60006134c085828601613296565b92505060206134d185828601613296565b9150509250929050565b7f4e487b7100000000000000000000000000000000000000000000000000000000600052602260045260246000fd5b6000600282049050600182168061352257607f821691505b602082108103613535576135346134db565b5b50919050565b7f4e487b7100000000000000000000000000000000000000000000000000000000600052601160045260246000fd5b600061357582613162565b915061358083613162565b92508282039050818111156135985761359761353b565b5b92915050565b6000815190506135ad816132ab565b92915050565b6000602082840312156135c9576135c8613248565b5b60006135d78482850161359e565b91505092915050565b60006060820190506135f5600083018661334d565b613602602083018561334d565b61360f604083018461316c565b949350505050565b600061362282613162565b915061362d83613162565b92508282019050808211156136455761364461353b565b5b92915050565b6000819050919050565b6000819050919050565b600061367a6136756136708461364b565b613655565b613162565b9050919050565b61368a8161365f565b82525050565b600060a0820190506136a5600083018861316c565b6136b2602083018761334d565b6136bf604083018661316c565b6136cc6060830185613681565b6136d9608083018461316c565b9695505050505050565b60006040820190506136f8600083018561334d565b613705602083018461316c565b9392505050565b600081905092915050565b50565b600061372760008361370c565b915061373282613717565b600082019050919050565b60006137488261371a565b9150819050919050565b600061375d82613162565b915061376883613162565b925082820261377681613162565b9150828204841483151761378d5761378c61353b565b5b5092915050565b7f4e487b7100000000000000000000000000000000000000000000000000000000600052601260045260246000fd5b60006137ce82613162565b91506137d983613162565b9250826137e9576137e8613794565b5b828204905092915050565b7f706c65617365207761697420666f722070726553616c6520656e640000000000600082015250565b600061382a601b836131a1565b9150613835826137f4565b602082019050919050565b600060208201905081810360008301526138598161381d565b9050919050565b600060a082019050613875600083018861316c565b613882602083018761334d565b61388f604083018661316c565b61389c606083018561316c565b6138a96080830184613681565b9695505050505050565b7f416c6c20726f756e6473206172652066696e6973686564000000000000000000600082015250565b60006138e96017836131a1565b91506138f4826138b3565b602082019050919050565b60006020820190508181036000830152613918816138dc565b9050919050565b600069ffffffffffffffffffff82169050919050565b61393e8161391f565b811461394957600080fd5b50565b60008151905061395b81613935565b92915050565b6000819050919050565b61397481613961565b811461397f57600080fd5b50565b6000815190506139918161396b565b92915050565b600080600080600060a086880312156139b3576139b2613248565b5b60006139c18882890161394c565b95505060206139d288828901613982565b94505060406139e38882890161359e565b93505060606139f48882890161359e565b9250506080613a058882890161394c565b9150509295509295909350565b7f496e76616c696420555344542070726963650000000000000000000000000000600082015250565b6000613a486012836131a1565b9150613a5382613a12565b602082019050919050565b60006020820190508181036000830152613a7781613a3b565b9050919050565b7f45524332303a2064656372656173656420616c6c6f77616e63652062656c6f7760008201527f207a65726f000000000000000000000000000000000000000000000000000000602082015250565b6000613ada6025836131a1565b9150613ae582613a7e565b604082019050919050565b60006020820190508181036000830152613b0981613acd565b9050919050565b7f4f776e61626c653a206e6577206f776e657220697320746865207a65726f206160008201527f6464726573730000000000000000000000000000000000000000000000000000602082015250565b6000613b6c6026836131a1565b9150613b7782613b10565b604082019050919050565b60006020820190508181036000830152613b9b81613b5f565b9050919050565b7f45524332303a20617070726f76652066726f6d20746865207a65726f2061646460008201527f7265737300000000000000000000000000000000000000000000000000000000602082015250565b6000613bfe6024836131a1565b9150613c0982613ba2565b604082019050919050565b60006020820190508181036000830152613c2d81613bf1565b9050919050565b7f45524332303a20617070726f766520746f20746865207a65726f20616464726560008201527f7373000000000000000000000000000000000000000000000000000000000000602082015250565b6000613c906022836131a1565b9150613c9b82613c34565b604082019050919050565b60006020820190508181036000830152613cbf81613c83565b9050919050565b7f45524332303a20696e73756666696369656e7420616c6c6f77616e6365000000600082015250565b6000613cfc601d836131a1565b9150613d0782613cc6565b602082019050919050565b60006020820190508181036000830152613d2b81613cef565b9050919050565b7f45524332303a207472616e736665722066726f6d20746865207a65726f20616460008201527f6472657373000000000000000000000000000000000000000000000000000000602082015250565b6000613d8e6025836131a1565b9150613d9982613d32565b604082019050919050565b60006020820190508181036000830152613dbd81613d81565b9050919050565b7f45524332303a207472616e7366657220746f20746865207a65726f206164647260008201527f6573730000000000000000000000000000000000000000000000000000000000602082015250565b6000613e206023836131a1565b9150613e2b82613dc4565b604082019050919050565b60006020820190508181036000830152613e4f81613e13565b9050919050565b7f45524332303a207472616e7366657220616d6f756e742065786365656473206260008201527f616c616e63650000000000000000000000000000000000000000000000000000602082015250565b6000613eb26026836131a1565b9150613ebd82613e56565b604082019050919050565b60006020820190508181036000830152613ee181613ea5565b9050919050565b7f4f776e61626c653a2063616c6c6572206973206e6f7420746865206f776e6572600082015250565b6000613f1e6020836131a1565b9150613f2982613ee8565b602082019050919050565b60006020820190508181036000830152613f4d81613f11565b9050919050565b7f45524332303a206d696e7420746f20746865207a65726f206164647265737300600082015250565b6000613f8a601f836131a1565b9150613f9582613f54565b602082019050919050565b60006020820190508181036000830152613fb981613f7d565b905091905056fea26469706673582212201232bed63a75fd8bb68e939d3a47b578459f30a0658dae95aa1f8fa88482e88a64736f6c63430008130033",
  "linkReferences": {},
  "deployedLinkReferences": {}
}